{"abi":[{"constant":true,"inputs":[],"name":"name","outputs":[{"name":"","type":"string"}],"payable":false,"stateMutability":"view","type":"function"},{"constant":false,"inputs":[{"name":"spender","type":"address"},{"name":"value","type":"uint256"}],"name":"approve","outputs":[{"name":"","type":"bool"}],"payable":false,"stateMutability":"nonpayable","type":"function"},{"constant":true,"inputs":[],"name":"totalSupply","outputs":[{"name":"","type":"uint256"}],"payable":false,"stateMutability":"view","type":"function"},{"constant":false,"inputs":[{"name":"pollution","type":"uint256"}],"name":"sensorAddPollution","outputs":[],"payable":false,"stateMutability":"nonpayable","type":"function"},{"constant":false,"inputs":[{"name":"from","type":"address"},{"name":"to","type":"address"},{"name":"value","type":"uint256"}],"name":"transferFrom","outputs":[{"name":"","type":"bool"}],"payable":false,"stateMutability":"nonpayable","type":"function"},{"constant":true,"inputs":[{"name":"loc","type":"string"}],"name":"getLocationHoldings","outputs":[{"name":"","type":"uint256"}],"payable":false,"stateMutability":"view","type":"function"},{"constant":true,"inputs":[],"name":"decimals","outputs":[{"name":"","type":"uint8"}],"payable":false,"stateMutability":"view","type":"function"},{"constant":false,"inputs":[{"name":"user","type":"address"},{"name":"loc","type":"string"}],"name":"register","outputs":[],"payable":false,"stateMutability":"nonpayable","type":"function"},{"constant":false,"inputs":[{"name":"spender","type":"address"},{"name":"addedValue","type":"uint256"}],"name":"increaseAllowance","outputs":[{"name":"","type":"bool"}],"payable":false,"stateMutability":"nonpayable","type":"function"},{"constant":false,"inputs":[{"name":"value","type":"uint256"}],"name":"burn","outputs":[],"payable":false,"stateMutability":"nonpayable","type":"function"},{"constant":true,"inputs":[{"name":"user","type":"address"}],"name":"getUserLocation","outputs":[{"name":"","type":"string"}],"payable":false,"stateMutability":"view","type":"function"},{"constant":true,"inputs":[{"name":"pol","type":"address"}],"name":"checkPolluterLimit","outputs":[{"name":"","type":"uint256"}],"payable":false,"stateMutability":"view","type":"function"},{"constant":false,"inputs":[{"name":"loc","type":"string"},{"name":"capacity","type":"uint256"}],"name":"setLocationCapacity","outputs":[],"payable":false,"stateMutability":"nonpayable","type":"function"},{"constant":false,"inputs":[],"name":"nextCycle","outputs":[],"payable":false,"stateMutability":"nonpayable","type":"function"},{"constant":true,"inputs":[{"name":"owner","type":"address"}],"name":"balanceOf","outputs":[{"name":"","type":"uint256"}],"payable":false,"stateMutability":"view","type":"function"},{"constant":false,"inputs":[],"name":"renounceOwnership","outputs":[],"payable":false,"stateMutability":"nonpayable","type":"function"},{"constant":false,"inputs":[{"name":"from","type":"address"},{"name":"value","type":"uint256"}],"name":"burnFrom","outputs":[],"payable":false,"stateMutability":"nonpayable","type":"function"},{"constant":true,"inputs":[{"name":"loc","type":"string"}],"name":"getLocationCapacity","outputs":[{"name":"","type":"uint256"}],"payable":false,"stateMutability":"view","type":"function"},{"constant":true,"inputs":[],"name":"owner","outputs":[{"name":"","type":"address"}],"payable":false,"stateMutability":"view","type":"function"},{"constant":true,"inputs":[],"name":"isOwner","outputs":[{"name":"","type":"bool"}],"payable":false,"stateMutability":"view","type":"function"},{"constant":true,"inputs":[],"name":"symbol","outputs":[{"name":"","type":"string"}],"payable":false,"stateMutability":"view","type":"function"},{"constant":false,"inputs":[{"name":"spender","type":"address"},{"name":"subtractedValue","type":"uint256"}],"name":"decreaseAllowance","outputs":[{"name":"","type":"bool"}],"payable":false,"stateMutability":"nonpayable","type":"function"},{"constant":false,"inputs":[{"name":"to","type":"address"},{"name":"value","type":"uint256"}],"name":"transfer","outputs":[{"name":"","type":"bool"}],"payable":false,"stateMutability":"nonpayable","type":"function"},{"constant":false,"inputs":[{"name":"pol","type":"address"},{"name":"sens","type":"address"}],"name":"registerSensor","outputs":[],"payable":false,"stateMutability":"nonpayable","type":"function"},{"constant":true,"inputs":[{"name":"pol","type":"address"}],"name":"getUserPreviousCyclePollution","outputs":[{"name":"","type":"uint256"}],"payable":false,"stateMutability":"view","type":"function"},{"constant":true,"inputs":[{"name":"owner","type":"address"},{"name":"spender","type":"address"}],"name":"allowance","outputs":[{"name":"","type":"uint256"}],"payable":false,"stateMutability":"view","type":"function"},{"constant":true,"inputs":[{"name":"loc","type":"string"}],"name":"getLocationOriginalCapacity","outputs":[{"name":"","type":"uint256"}],"payable":false,"stateMutability":"view","type":"function"},{"constant":false,"inputs":[{"name":"newOwner","type":"address"}],"name":"transferOwnership","outputs":[],"payable":false,"stateMutability":"nonpayable","type":"function"},{"inputs":[],"payable":false,"stateMutability":"nonpayable","type":"constructor"},{"anonymous":false,"inputs":[{"indexed":true,"name":"previousOwner","type":"address"},{"indexed":true,"name":"newOwner","type":"address"}],"name":"OwnershipTransferred","type":"event"},{"anonymous":false,"inputs":[{"indexed":true,"name":"from","type":"address"},{"indexed":true,"name":"to","type":"address"},{"indexed":false,"name":"value","type":"uint256"}],"name":"Transfer","type":"event"},{"anonymous":false,"inputs":[{"indexed":true,"name":"owner","type":"address"},{"indexed":true,"name":"spender","type":"address"},{"indexed":false,"name":"value","type":"uint256"}],"name":"Approval","type":"event"}],"devdoc":{"methods":{"allowance(address,address)":{"details":"Function to check the amount of tokens that an owner allowed to a spender.","params":{"owner":"address The address which owns the funds.","spender":"address The address which will spend the funds."},"return":"A uint256 specifying the amount of tokens still available for the spender."},"approve(address,uint256)":{"details":"Approve the passed address to spend the specified amount of tokens on behalf of msg.sender. Beware that changing an allowance with this method brings the risk that someone may use both the old and the new allowance by unfortunate transaction ordering. One possible solution to mitigate this race condition is to first reduce the spender's allowance to 0 and set the desired value afterwards: https://github.com/ethereum/EIPs/issues/20#issuecomment-263524729","params":{"spender":"The address which will spend the funds.","value":"The amount of tokens to be spent."}},"balanceOf(address)":{"details":"Gets the balance of the specified address.","params":{"owner":"The address to query the balance of."},"return":"A uint256 representing the amount owned by the passed address."},"decreaseAllowance(address,uint256)":{"details":"Decrease the amount of tokens that an owner allowed to a spender. approve should be called when _allowed[msg.sender][spender] == 0. To decrement allowed value is better to use this function to avoid 2 calls (and wait until the first transaction is mined) From MonolithDAO Token.sol Emits an Approval event.","params":{"spender":"The address which will spend the funds.","subtractedValue":"The amount of tokens to decrease the allowance by."}},"increaseAllowance(address,uint256)":{"details":"Increase the amount of tokens that an owner allowed to a spender. approve should be called when _allowed[msg.sender][spender] == 0. To increment allowed value is better to use this function to avoid 2 calls (and wait until the first transaction is mined) From MonolithDAO Token.sol Emits an Approval event.","params":{"addedValue":"The amount of tokens to increase the allowance by.","spender":"The address which will spend the funds."}},"isOwner()":{"return":"true if `msg.sender` is the owner of the contract."},"owner()":{"return":"the address of the owner."},"renounceOwnership()":{"details":"Allows the current owner to relinquish control of the contract. It will not be possible to call the functions with the `onlyOwner` modifier anymore."},"totalSupply()":{"details":"Total number of tokens in existence."},"transferOwnership(address)":{"details":"Allows the current owner to transfer control of the contract to a newOwner.","params":{"newOwner":"The address to transfer ownership to."}}}},"evm":{"assembly":"    /* \"EcoCapCoin.sol\":99:8393  contract EcoCapCoin is ERC20Burnable, Ownable{... */\n  mstore(0x40, 0x80)\n    /* \"EcoCapCoin.sol\":1219:2082  constructor() public {... */\n  callvalue\n    /* \"--CODEGEN--\":8:17   */\n  dup1\n    /* \"--CODEGEN--\":5:7   */\n  iszero\n  tag_1\n  jumpi\n    /* \"--CODEGEN--\":30:31   */\n  0x00\n    /* \"--CODEGEN--\":27:28   */\n  dup1\n    /* \"--CODEGEN--\":20:32   */\n  revert\n    /* \"--CODEGEN--\":5:7   */\ntag_1:\n    /* \"EcoCapCoin.sol\":1219:2082  constructor() public {... */\n  pop\n    /* \"Ownable.sol\":524:534   */\n  caller\n    /* \"Ownable.sol\":515:521   */\n  0x03\n  0x00\n    /* \"Ownable.sol\":515:534   */\n  0x0100\n  exp\n  dup2\n  sload\n  dup2\n  0xffffffffffffffffffffffffffffffffffffffff\n  mul\n  not\n  and\n  swap1\n  dup4\n  0xffffffffffffffffffffffffffffffffffffffff\n  and\n  mul\n  or\n  swap1\n  sstore\n  pop\n    /* \"Ownable.sol\":582:588   */\n  0x03\n  0x00\n  swap1\n  sload\n  swap1\n  0x0100\n  exp\n  swap1\n  div\n  0xffffffffffffffffffffffffffffffffffffffff\n  and\n    /* \"Ownable.sol\":549:589   */\n  0xffffffffffffffffffffffffffffffffffffffff\n  and\n    /* \"Ownable.sol\":578:579   */\n  0x00\n    /* \"Ownable.sol\":549:589   */\n  0xffffffffffffffffffffffffffffffffffffffff\n  and\n  0x8be0079c531659141344cd1fd0a4f28419497f9722a3daafe3b4186f6b6457e0\n  mload(0x40)\n  mload(0x40)\n  dup1\n  swap2\n  sub\n  swap1\n  log3\n    /* \"EcoCapCoin.sol\":1250:1269  name = \"EcoCapCoin\" */\n  mload(0x40)\n  dup1\n  0x40\n  add\n  0x40\n  mstore\n  dup1\n  0x0a\n  dup2\n  mstore\n  0x20\n  add\n  0x45636f436170436f696e00000000000000000000000000000000000000000000\n  dup2\n  mstore\n  pop\n    /* \"EcoCapCoin.sol\":1250:1254  name */\n  0x04\n    /* \"EcoCapCoin.sol\":1250:1269  name = \"EcoCapCoin\" */\n  swap1\n  dup1\n  mload\n  swap1\n  0x20\n  add\n  swap1\n  tag_6\n  swap3\n  swap2\n  swap1\n  tag_7\n  jump\t// in\ntag_6:\n  pop\n    /* \"EcoCapCoin.sol\":1361:1363  18 */\n  0x12\n    /* \"EcoCapCoin.sol\":1350:1358  decimals */\n  0x05\n  0x00\n    /* \"EcoCapCoin.sol\":1350:1363  decimals = 18 */\n  0x0100\n  exp\n  dup2\n  sload\n  dup2\n  0xff\n  mul\n  not\n  and\n  swap1\n  dup4\n  0xff\n  and\n  mul\n  or\n  swap1\n  sstore\n  pop\n    /* \"EcoCapCoin.sol\":1443:1457  symbol = \"ECC\" */\n  mload(0x40)\n  dup1\n  0x40\n  add\n  0x40\n  mstore\n  dup1\n  0x03\n  dup2\n  mstore\n  0x20\n  add\n  0x4543430000000000000000000000000000000000000000000000000000000000\n  dup2\n  mstore\n  pop\n    /* \"EcoCapCoin.sol\":1443:1449  symbol */\n  0x06\n    /* \"EcoCapCoin.sol\":1443:1457  symbol = \"ECC\" */\n  swap1\n  dup1\n  mload\n  swap1\n  0x20\n  add\n  swap1\n  tag_8\n  swap3\n  swap2\n  swap1\n  tag_7\n  jump\t// in\ntag_8:\n  pop\n    /* \"EcoCapCoin.sol\":1536:1555  uint256 totalSupply */\n  0x00\n    /* \"EcoCapCoin.sol\":1586:1594  decimals */\n  0x05\n  0x00\n  swap1\n  sload\n  swap1\n  0x0100\n  exp\n  swap1\n  div\n  0xff\n  and\n    /* \"EcoCapCoin.sol\":1581:1595  uint(decimals) */\n  0xff\n  and\n    /* \"EcoCapCoin.sol\":1577:1579  10 */\n  0x0a\n    /* \"EcoCapCoin.sol\":1577:1595  10**uint(decimals) */\n  exp\n    /* \"EcoCapCoin.sol\":1566:1576  1000000000 */\n  0x3b9aca00\n    /* \"EcoCapCoin.sol\":1566:1595  1000000000*10**uint(decimals) */\n  mul\n    /* \"EcoCapCoin.sol\":1536:1596  uint256 totalSupply = uint256(1000000000*10**uint(decimals)) */\n  swap1\n  pop\n    /* \"EcoCapCoin.sol\":1652:1682  _mint(msg.sender, totalSupply) */\n  tag_9\n    /* \"EcoCapCoin.sol\":1658:1668  msg.sender */\n  caller\n    /* \"EcoCapCoin.sol\":1670:1681  totalSupply */\n  dup3\n    /* \"EcoCapCoin.sol\":1652:1657  _mint */\n  shl(0x20, tag_10)\n    /* \"EcoCapCoin.sol\":1652:1682  _mint(msg.sender, totalSupply) */\n  0x20\n  shr\n  jump\t// in\ntag_9:\n    /* \"EcoCapCoin.sol\":1742:1768  polluter storage regulator */\n  0x00\n    /* \"EcoCapCoin.sol\":1771:1780  polluters */\n  0x07\n    /* \"EcoCapCoin.sol\":1771:1792  polluters[msg.sender] */\n  0x00\n    /* \"EcoCapCoin.sol\":1781:1791  msg.sender */\n  caller\n    /* \"EcoCapCoin.sol\":1771:1792  polluters[msg.sender] */\n  0xffffffffffffffffffffffffffffffffffffffff\n  and\n  0xffffffffffffffffffffffffffffffffffffffff\n  and\n  dup2\n  mstore\n  0x20\n  add\n  swap1\n  dup2\n  mstore\n  0x20\n  add\n  0x00\n  keccak256\n    /* \"EcoCapCoin.sol\":1742:1792  polluter storage regulator = polluters[msg.sender] */\n  swap1\n  pop\n    /* \"EcoCapCoin.sol\":1802:1844  regulator.location = \"GOVERNANCE NON AREA\" */\n  mload(0x40)\n  dup1\n  0x40\n  add\n  0x40\n  mstore\n  dup1\n  0x13\n  dup2\n  mstore\n  0x20\n  add\n  0x474f5645524e414e4345204e4f4e204152454100000000000000000000000000\n  dup2\n  mstore\n  pop\n    /* \"EcoCapCoin.sol\":1802:1811  regulator */\n  dup2\n    /* \"EcoCapCoin.sol\":1802:1820  regulator.location */\n  0x01\n  add\n    /* \"EcoCapCoin.sol\":1802:1844  regulator.location = \"GOVERNANCE NON AREA\" */\n  swap1\n  dup1\n  mload\n  swap1\n  0x20\n  add\n  swap1\n  tag_11\n  swap3\n  swap2\n  swap1\n  tag_7\n  jump\t// in\ntag_11:\n  pop\n    /* \"EcoCapCoin.sol\":1878:1882  true */\n  0x01\n    /* \"EcoCapCoin.sol\":1854:1863  regulator */\n  dup2\n    /* \"EcoCapCoin.sol\":1854:1875  regulator.hasLocation */\n  0x00\n  add\n  0x00\n    /* \"EcoCapCoin.sol\":1854:1882  regulator.hasLocation = true */\n  0x0100\n  exp\n  dup2\n  sload\n  dup2\n  0xff\n  mul\n  not\n  and\n  swap1\n  dup4\n  iszero\n  iszero\n  mul\n  or\n  swap1\n  sstore\n  pop\n    /* \"EcoCapCoin.sol\":1892:1916  location storage govArea */\n  0x00\n    /* \"EcoCapCoin.sol\":1919:1928  locations */\n  0x08\n    /* \"EcoCapCoin.sol\":1919:1951  locations[\"GOVERNANCE NON AREA\"] */\n  mload(0x40)\n  dup1\n  dup1\n  0x474f5645524e414e4345204e4f4e204152454100000000000000000000000000\n  dup2\n  mstore\n  pop\n  0x13\n  add\n  swap1\n  pop\n  swap1\n  dup2\n  mstore\n  0x20\n  add\n  mload(0x40)\n  dup1\n  swap2\n  sub\n  swap1\n  keccak256\n    /* \"EcoCapCoin.sol\":1892:1951  location storage govArea = locations[\"GOVERNANCE NON AREA\"] */\n  swap1\n  pop\n    /* \"EcoCapCoin.sol\":1980:1991  totalSupply */\n  dup3\n    /* \"EcoCapCoin.sol\":1961:1968  govArea */\n  dup2\n    /* \"EcoCapCoin.sol\":1961:1977  govArea.capacity */\n  0x00\n  add\n    /* \"EcoCapCoin.sol\":1961:1991  govArea.capacity = totalSupply */\n  dup2\n  swap1\n  sstore\n  pop\n    /* \"EcoCapCoin.sol\":2019:2030  totalSupply */\n  dup3\n    /* \"EcoCapCoin.sol\":2001:2008  govArea */\n  dup2\n    /* \"EcoCapCoin.sol\":2001:2016  govArea.holding */\n  0x01\n  add\n    /* \"EcoCapCoin.sol\":2001:2030  govArea.holding = totalSupply */\n  dup2\n  swap1\n  sstore\n  pop\n    /* \"EcoCapCoin.sol\":2063:2074  totalSupply */\n  dup3\n    /* \"EcoCapCoin.sol\":2040:2047  govArea */\n  dup2\n    /* \"EcoCapCoin.sol\":2040:2060  govArea.original_cap */\n  0x02\n  add\n    /* \"EcoCapCoin.sol\":2040:2074  govArea.original_cap = totalSupply */\n  dup2\n  swap1\n  sstore\n  pop\n    /* \"EcoCapCoin.sol\":1219:2082  constructor() public {... */\n  pop\n  pop\n  pop\n    /* \"EcoCapCoin.sol\":99:8393  contract EcoCapCoin is ERC20Burnable, Ownable{... */\n  jump(tag_12)\n    /* \"ERC20.sol\":5856:6154   */\ntag_10:\n    /* \"ERC20.sol\":5949:5950   */\n  0x00\n    /* \"ERC20.sol\":5930:5951   */\n  0xffffffffffffffffffffffffffffffffffffffff\n  and\n    /* \"ERC20.sol\":5930:5937   */\n  dup3\n    /* \"ERC20.sol\":5930:5951   */\n  0xffffffffffffffffffffffffffffffffffffffff\n  and\n  eq\n  iszero\n    /* \"ERC20.sol\":5922:5987   */\n  tag_14\n  jumpi\n  mload(0x40)\n  0x08c379a000000000000000000000000000000000000000000000000000000000\n  dup2\n  mstore\n  0x04\n  add\n  dup1\n  dup1\n  0x20\n  add\n  dup3\n  dup2\n  sub\n  dup3\n  mstore\n  0x1f\n  dup2\n  mstore\n  0x20\n  add\n  dup1\n  0x45524332303a206d696e7420746f20746865207a65726f206164647265737300\n  dup2\n  mstore\n  pop\n  0x20\n  add\n  swap2\n  pop\n  pop\n  mload(0x40)\n  dup1\n  swap2\n  sub\n  swap1\n  revert\ntag_14:\n    /* \"ERC20.sol\":6013:6036   */\n  tag_15\n    /* \"ERC20.sol\":6030:6035   */\n  dup2\n    /* \"ERC20.sol\":6013:6025   */\n  sload(0x02)\n    /* \"ERC20.sol\":6013:6029   */\n  or(tag_0_152, shl(0x20, tag_16))\n  swap1\n    /* \"ERC20.sol\":6013:6036   */\n  swap2\n  swap1\n  0x20\n  shr\n  jump\t// in\ntag_15:\n    /* \"ERC20.sol\":5998:6010   */\n  0x02\n    /* \"ERC20.sol\":5998:6036   */\n  dup2\n  swap1\n  sstore\n  pop\n    /* \"ERC20.sol\":6067:6096   */\n  tag_17\n    /* \"ERC20.sol\":6090:6095   */\n  dup2\n    /* \"ERC20.sol\":6067:6076   */\n  0x00\n    /* \"ERC20.sol\":6067:6085   */\n  dup1\n    /* \"ERC20.sol\":6077:6084   */\n  dup6\n    /* \"ERC20.sol\":6067:6085   */\n  0xffffffffffffffffffffffffffffffffffffffff\n  and\n  0xffffffffffffffffffffffffffffffffffffffff\n  and\n  dup2\n  mstore\n  0x20\n  add\n  swap1\n  dup2\n  mstore\n  0x20\n  add\n  0x00\n  keccak256\n  sload\n    /* \"ERC20.sol\":6067:6089   */\n  or(tag_0_152, shl(0x20, tag_16))\n  swap1\n    /* \"ERC20.sol\":6067:6096   */\n  swap2\n  swap1\n  0x20\n  shr\n  jump\t// in\ntag_17:\n    /* \"ERC20.sol\":6046:6055   */\n  0x00\n    /* \"ERC20.sol\":6046:6064   */\n  dup1\n    /* \"ERC20.sol\":6056:6063   */\n  dup5\n    /* \"ERC20.sol\":6046:6064   */\n  0xffffffffffffffffffffffffffffffffffffffff\n  and\n  0xffffffffffffffffffffffffffffffffffffffff\n  and\n  dup2\n  mstore\n  0x20\n  add\n  swap1\n  dup2\n  mstore\n  0x20\n  add\n  0x00\n  keccak256\n    /* \"ERC20.sol\":6046:6096   */\n  dup2\n  swap1\n  sstore\n  pop\n    /* \"ERC20.sol\":6132:6139   */\n  dup2\n    /* \"ERC20.sol\":6111:6147   */\n  0xffffffffffffffffffffffffffffffffffffffff\n  and\n    /* \"ERC20.sol\":6128:6129   */\n  0x00\n    /* \"ERC20.sol\":6111:6147   */\n  0xffffffffffffffffffffffffffffffffffffffff\n  and\n  0xddf252ad1be2c89b69c2b068fc378daa952ba7f163c4a11628f55a4df523b3ef\n    /* \"ERC20.sol\":6141:6146   */\n  dup4\n    /* \"ERC20.sol\":6111:6147   */\n  mload(0x40)\n  dup1\n  dup3\n  dup2\n  mstore\n  0x20\n  add\n  swap2\n  pop\n  pop\n  mload(0x40)\n  dup1\n  swap2\n  sub\n  swap1\n  log3\n    /* \"ERC20.sol\":5856:6154   */\n  pop\n  pop\n  jump\t// out\n    /* \"math/SafeMath.sol\":1541:1717   */\ntag_16:\n    /* \"math/SafeMath.sol\":1599:1606   */\n  0x00\n    /* \"math/SafeMath.sol\":1618:1627   */\n  dup1\n    /* \"math/SafeMath.sol\":1634:1635   */\n  dup3\n    /* \"math/SafeMath.sol\":1630:1631   */\n  dup5\n    /* \"math/SafeMath.sol\":1630:1635   */\n  add\n    /* \"math/SafeMath.sol\":1618:1635   */\n  swap1\n  pop\n    /* \"math/SafeMath.sol\":1658:1659   */\n  dup4\n    /* \"math/SafeMath.sol\":1653:1654   */\n  dup2\n    /* \"math/SafeMath.sol\":1653:1659   */\n  lt\n  iszero\n    /* \"math/SafeMath.sol\":1645:1691   */\n  tag_19\n  jumpi\n  mload(0x40)\n  0x08c379a000000000000000000000000000000000000000000000000000000000\n  dup2\n  mstore\n  0x04\n  add\n  dup1\n  dup1\n  0x20\n  add\n  dup3\n  dup2\n  sub\n  dup3\n  mstore\n  0x1b\n  dup2\n  mstore\n  0x20\n  add\n  dup1\n  0x536166654d6174683a206164646974696f6e206f766572666c6f770000000000\n  dup2\n  mstore\n  pop\n  0x20\n  add\n  swap2\n  pop\n  pop\n  mload(0x40)\n  dup1\n  swap2\n  sub\n  swap1\n  revert\ntag_19:\n    /* \"math/SafeMath.sol\":1709:1710   */\n  dup1\n    /* \"math/SafeMath.sol\":1702:1710   */\n  swap2\n  pop\n  pop\n    /* \"math/SafeMath.sol\":1541:1717   */\n  swap3\n  swap2\n  pop\n  pop\n  jump\t// out\n    /* \"EcoCapCoin.sol\":99:8393  contract EcoCapCoin is ERC20Burnable, Ownable{... */\ntag_7:\n  dup3\n  dup1\n  sload\n  0x01\n  dup2\n  0x01\n  and\n  iszero\n  0x0100\n  mul\n  sub\n  and\n  0x02\n  swap1\n  div\n  swap1\n  0x00\n  mstore\n  keccak256(0x00, 0x20)\n  swap1\n  0x1f\n  add\n  0x20\n  swap1\n  div\n  dup2\n  add\n  swap3\n  dup3\n  0x1f\n  lt\n  tag_21\n  jumpi\n  dup1\n  mload\n  not(0xff)\n  and\n  dup4\n  dup1\n  add\n  or\n  dup6\n  sstore\n  jump(tag_20)\ntag_21:\n  dup3\n  dup1\n  add\n  0x01\n  add\n  dup6\n  sstore\n  dup3\n  iszero\n  tag_20\n  jumpi\n  swap2\n  dup3\n  add\ntag_22:\n  dup3\n  dup2\n  gt\n  iszero\n  tag_23\n  jumpi\n  dup3\n  mload\n  dup3\n  sstore\n  swap2\n  0x20\n  add\n  swap2\n  swap1\n  0x01\n  add\n  swap1\n  jump(tag_22)\ntag_23:\ntag_20:\n  pop\n  swap1\n  pop\n  tag_24\n  swap2\n  swap1\n  tag_25\n  jump\t// in\ntag_24:\n  pop\n  swap1\n  jump\t// out\ntag_25:\n  tag_26\n  swap2\n  swap1\ntag_27:\n  dup1\n  dup3\n  gt\n  iszero\n  tag_28\n  jumpi\n  0x00\n  dup2\n  0x00\n  swap1\n  sstore\n  pop\n  0x01\n  add\n  jump(tag_27)\ntag_28:\n  pop\n  swap1\n  jump\ntag_26:\n  swap1\n  jump\t// out\ntag_12:\n  dataSize(sub_0)\n  dup1\n  dataOffset(sub_0)\n  0x00\n  codecopy\n  0x00\n  return\nstop\n\nsub_0: assembly {\n        /* \"EcoCapCoin.sol\":99:8393  contract EcoCapCoin is ERC20Burnable, Ownable{... */\n      mstore(0x40, 0x80)\n      callvalue\n        /* \"--CODEGEN--\":8:17   */\n      dup1\n        /* \"--CODEGEN--\":5:7   */\n      iszero\n      tag_1\n      jumpi\n        /* \"--CODEGEN--\":30:31   */\n      0x00\n        /* \"--CODEGEN--\":27:28   */\n      dup1\n        /* \"--CODEGEN--\":20:32   */\n      revert\n        /* \"--CODEGEN--\":5:7   */\n    tag_1:\n        /* \"EcoCapCoin.sol\":99:8393  contract EcoCapCoin is ERC20Burnable, Ownable{... */\n      pop\n      jumpi(tag_2, lt(calldatasize, 0x04))\n      shr(0xe0, calldataload(0x00))\n      dup1\n      0x70a08231\n      gt\n      tag_31\n      jumpi\n      dup1\n      0xa457c2d7\n      gt\n      tag_32\n      jumpi\n      dup1\n      0xd277add8\n      gt\n      tag_33\n      jumpi\n      dup1\n      0xd277add8\n      eq\n      tag_27\n      jumpi\n      dup1\n      0xdd62ed3e\n      eq\n      tag_28\n      jumpi\n      dup1\n      0xe6bcff66\n      eq\n      tag_29\n      jumpi\n      dup1\n      0xf2fde38b\n      eq\n      tag_30\n      jumpi\n      jump(tag_2)\n    tag_33:\n      dup1\n      0xa457c2d7\n      eq\n      tag_24\n      jumpi\n      dup1\n      0xa9059cbb\n      eq\n      tag_25\n      jumpi\n      dup1\n      0xcd3d3fa4\n      eq\n      tag_26\n      jumpi\n      jump(tag_2)\n    tag_32:\n      dup1\n      0x87038ff7\n      gt\n      tag_34\n      jumpi\n      dup1\n      0x87038ff7\n      eq\n      tag_20\n      jumpi\n      dup1\n      0x8da5cb5b\n      eq\n      tag_21\n      jumpi\n      dup1\n      0x8f32d59b\n      eq\n      tag_22\n      jumpi\n      dup1\n      0x95d89b41\n      eq\n      tag_23\n      jumpi\n      jump(tag_2)\n    tag_34:\n      dup1\n      0x70a08231\n      eq\n      tag_17\n      jumpi\n      dup1\n      0x715018a6\n      eq\n      tag_18\n      jumpi\n      dup1\n      0x79cc6790\n      eq\n      tag_19\n      jumpi\n      jump(tag_2)\n    tag_31:\n      dup1\n      0x32434a2e\n      gt\n      tag_35\n      jumpi\n      dup1\n      0x4a3a9d25\n      gt\n      tag_36\n      jumpi\n      dup1\n      0x4a3a9d25\n      eq\n      tag_13\n      jumpi\n      dup1\n      0x551dc454\n      eq\n      tag_14\n      jumpi\n      dup1\n      0x5f151bc5\n      eq\n      tag_15\n      jumpi\n      dup1\n      0x6b6923b8\n      eq\n      tag_16\n      jumpi\n      jump(tag_2)\n    tag_36:\n      dup1\n      0x32434a2e\n      eq\n      tag_10\n      jumpi\n      dup1\n      0x39509351\n      eq\n      tag_11\n      jumpi\n      dup1\n      0x42966c68\n      eq\n      tag_12\n      jumpi\n      jump(tag_2)\n    tag_35:\n      dup1\n      0x1feab8ec\n      gt\n      tag_37\n      jumpi\n      dup1\n      0x1feab8ec\n      eq\n      tag_6\n      jumpi\n      dup1\n      0x23b872dd\n      eq\n      tag_7\n      jumpi\n      dup1\n      0x2af37d01\n      eq\n      tag_8\n      jumpi\n      dup1\n      0x313ce567\n      eq\n      tag_9\n      jumpi\n      jump(tag_2)\n    tag_37:\n      dup1\n      0x06fdde03\n      eq\n      tag_3\n      jumpi\n      dup1\n      0x095ea7b3\n      eq\n      tag_4\n      jumpi\n      dup1\n      0x18160ddd\n      eq\n      tag_5\n      jumpi\n    tag_2:\n      0x00\n      dup1\n      revert\n        /* \"EcoCapCoin.sol\":150:168  string public name */\n    tag_3:\n      tag_38\n      tag_39\n      jump\t// in\n    tag_38:\n      mload(0x40)\n      dup1\n      dup1\n      0x20\n      add\n      dup3\n      dup2\n      sub\n      dup3\n      mstore\n      dup4\n      dup2\n      dup2\n      mload\n      dup2\n      mstore\n      0x20\n      add\n      swap2\n      pop\n      dup1\n      mload\n      swap1\n      0x20\n      add\n      swap1\n      dup1\n      dup4\n      dup4\n        /* \"--CODEGEN--\":23:24   */\n      0x00\n        /* \"--CODEGEN--\":8:108   */\n    tag_40:\n        /* \"--CODEGEN--\":33:36   */\n      dup4\n        /* \"--CODEGEN--\":30:31   */\n      dup2\n        /* \"--CODEGEN--\":27:37   */\n      lt\n        /* \"--CODEGEN--\":8:108   */\n      iszero\n      tag_42\n      jumpi\n        /* \"--CODEGEN--\":99:100   */\n      dup1\n        /* \"--CODEGEN--\":94:97   */\n      dup3\n        /* \"--CODEGEN--\":90:101   */\n      add\n        /* \"--CODEGEN--\":84:102   */\n      mload\n        /* \"--CODEGEN--\":80:81   */\n      dup2\n        /* \"--CODEGEN--\":75:78   */\n      dup5\n        /* \"--CODEGEN--\":71:82   */\n      add\n        /* \"--CODEGEN--\":64:103   */\n      mstore\n        /* \"--CODEGEN--\":52:54   */\n      0x20\n        /* \"--CODEGEN--\":49:50   */\n      dup2\n        /* \"--CODEGEN--\":45:55   */\n      add\n        /* \"--CODEGEN--\":40:55   */\n      swap1\n      pop\n        /* \"--CODEGEN--\":8:108   */\n      jump(tag_40)\n    tag_42:\n        /* \"--CODEGEN--\":12:26   */\n      pop\n        /* \"EcoCapCoin.sol\":150:168  string public name */\n      pop\n      pop\n      pop\n      swap1\n      pop\n      swap1\n      dup2\n      add\n      swap1\n      0x1f\n      and\n      dup1\n      iszero\n      tag_43\n      jumpi\n      dup1\n      dup3\n      sub\n      dup1\n      mload\n      0x01\n      dup4\n      0x20\n      sub\n      0x0100\n      exp\n      sub\n      not\n      and\n      dup2\n      mstore\n      0x20\n      add\n      swap2\n      pop\n    tag_43:\n      pop\n      swap3\n      pop\n      pop\n      pop\n      mload(0x40)\n      dup1\n      swap2\n      sub\n      swap1\n      return\n        /* \"ERC20.sol\":2723:2868   */\n    tag_4:\n      tag_44\n      0x04\n      dup1\n      calldatasize\n      sub\n        /* \"--CODEGEN--\":13:15   */\n      0x40\n        /* \"--CODEGEN--\":8:11   */\n      dup2\n        /* \"--CODEGEN--\":5:16   */\n      lt\n        /* \"--CODEGEN--\":2:4   */\n      iszero\n      tag_45\n      jumpi\n        /* \"--CODEGEN--\":29:30   */\n      0x00\n        /* \"--CODEGEN--\":26:27   */\n      dup1\n        /* \"--CODEGEN--\":19:31   */\n      revert\n        /* \"--CODEGEN--\":2:4   */\n    tag_45:\n        /* \"ERC20.sol\":2723:2868   */\n      dup2\n      add\n      swap1\n      dup1\n      dup1\n      calldataload\n      0xffffffffffffffffffffffffffffffffffffffff\n      and\n      swap1\n      0x20\n      add\n      swap1\n      swap3\n      swap2\n      swap1\n      dup1\n      calldataload\n      swap1\n      0x20\n      add\n      swap1\n      swap3\n      swap2\n      swap1\n      pop\n      pop\n      pop\n      tag_46\n      jump\t// in\n    tag_44:\n      mload(0x40)\n      dup1\n      dup3\n      iszero\n      iszero\n      iszero\n      iszero\n      dup2\n      mstore\n      0x20\n      add\n      swap2\n      pop\n      pop\n      mload(0x40)\n      dup1\n      swap2\n      sub\n      swap1\n      return\n        /* \"ERC20.sol\":917:1006   */\n    tag_5:\n      tag_47\n      tag_48\n      jump\t// in\n    tag_47:\n      mload(0x40)\n      dup1\n      dup3\n      dup2\n      mstore\n      0x20\n      add\n      swap2\n      pop\n      pop\n      mload(0x40)\n      dup1\n      swap2\n      sub\n      swap1\n      return\n        /* \"EcoCapCoin.sol\":2824:3357  function sensorAddPollution(uint256 pollution) public{... */\n    tag_6:\n      tag_49\n      0x04\n      dup1\n      calldatasize\n      sub\n        /* \"--CODEGEN--\":13:15   */\n      0x20\n        /* \"--CODEGEN--\":8:11   */\n      dup2\n        /* \"--CODEGEN--\":5:16   */\n      lt\n        /* \"--CODEGEN--\":2:4   */\n      iszero\n      tag_50\n      jumpi\n        /* \"--CODEGEN--\":29:30   */\n      0x00\n        /* \"--CODEGEN--\":26:27   */\n      dup1\n        /* \"--CODEGEN--\":19:31   */\n      revert\n        /* \"--CODEGEN--\":2:4   */\n    tag_50:\n        /* \"EcoCapCoin.sol\":2824:3357  function sensorAddPollution(uint256 pollution) public{... */\n      dup2\n      add\n      swap1\n      dup1\n      dup1\n      calldataload\n      swap1\n      0x20\n      add\n      swap1\n      swap3\n      swap2\n      swap1\n      pop\n      pop\n      pop\n      tag_51\n      jump\t// in\n    tag_49:\n      stop\n        /* \"EcoCapCoin.sol\":5825:7434  function transferFrom(address from, address to, uint256 value) public returns (bool) {... */\n    tag_7:\n      tag_52\n      0x04\n      dup1\n      calldatasize\n      sub\n        /* \"--CODEGEN--\":13:15   */\n      0x60\n        /* \"--CODEGEN--\":8:11   */\n      dup2\n        /* \"--CODEGEN--\":5:16   */\n      lt\n        /* \"--CODEGEN--\":2:4   */\n      iszero\n      tag_53\n      jumpi\n        /* \"--CODEGEN--\":29:30   */\n      0x00\n        /* \"--CODEGEN--\":26:27   */\n      dup1\n        /* \"--CODEGEN--\":19:31   */\n      revert\n        /* \"--CODEGEN--\":2:4   */\n    tag_53:\n        /* \"EcoCapCoin.sol\":5825:7434  function transferFrom(address from, address to, uint256 value) public returns (bool) {... */\n      dup2\n      add\n      swap1\n      dup1\n      dup1\n      calldataload\n      0xffffffffffffffffffffffffffffffffffffffff\n      and\n      swap1\n      0x20\n      add\n      swap1\n      swap3\n      swap2\n      swap1\n      dup1\n      calldataload\n      0xffffffffffffffffffffffffffffffffffffffff\n      and\n      swap1\n      0x20\n      add\n      swap1\n      swap3\n      swap2\n      swap1\n      dup1\n      calldataload\n      swap1\n      0x20\n      add\n      swap1\n      swap3\n      swap2\n      swap1\n      pop\n      pop\n      pop\n      tag_54\n      jump\t// in\n    tag_52:\n      mload(0x40)\n      dup1\n      dup3\n      iszero\n      iszero\n      iszero\n      iszero\n      dup2\n      mstore\n      0x20\n      add\n      swap2\n      pop\n      pop\n      mload(0x40)\n      dup1\n      swap2\n      sub\n      swap1\n      return\n        /* \"EcoCapCoin.sol\":4299:4423  function getLocationHoldings(string memory loc) public view returns (uint256) {... */\n    tag_8:\n      tag_55\n      0x04\n      dup1\n      calldatasize\n      sub\n        /* \"--CODEGEN--\":13:15   */\n      0x20\n        /* \"--CODEGEN--\":8:11   */\n      dup2\n        /* \"--CODEGEN--\":5:16   */\n      lt\n        /* \"--CODEGEN--\":2:4   */\n      iszero\n      tag_56\n      jumpi\n        /* \"--CODEGEN--\":29:30   */\n      0x00\n        /* \"--CODEGEN--\":26:27   */\n      dup1\n        /* \"--CODEGEN--\":19:31   */\n      revert\n        /* \"--CODEGEN--\":2:4   */\n    tag_56:\n        /* \"EcoCapCoin.sol\":4299:4423  function getLocationHoldings(string memory loc) public view returns (uint256) {... */\n      dup2\n      add\n      swap1\n      dup1\n      dup1\n      calldataload\n      swap1\n      0x20\n      add\n      swap1\n        /* \"--CODEGEN--\":21:32   */\n      0x0100000000\n        /* \"--CODEGEN--\":8:19   */\n      dup2\n        /* \"--CODEGEN--\":5:33   */\n      gt\n        /* \"--CODEGEN--\":2:4   */\n      iszero\n      tag_57\n      jumpi\n        /* \"--CODEGEN--\":46:47   */\n      0x00\n        /* \"--CODEGEN--\":43:44   */\n      dup1\n        /* \"--CODEGEN--\":36:48   */\n      revert\n        /* \"--CODEGEN--\":2:4   */\n    tag_57:\n        /* \"EcoCapCoin.sol\":4299:4423  function getLocationHoldings(string memory loc) public view returns (uint256) {... */\n      dup3\n      add\n        /* \"--CODEGEN--\":35:44   */\n      dup4\n        /* \"--CODEGEN--\":28:32   */\n      0x20\n        /* \"--CODEGEN--\":12:26   */\n      dup3\n        /* \"--CODEGEN--\":8:33   */\n      add\n        /* \"--CODEGEN--\":5:45   */\n      gt\n        /* \"--CODEGEN--\":2:4   */\n      iszero\n      tag_58\n      jumpi\n        /* \"--CODEGEN--\":58:59   */\n      0x00\n        /* \"--CODEGEN--\":55:56   */\n      dup1\n        /* \"--CODEGEN--\":48:60   */\n      revert\n        /* \"--CODEGEN--\":2:4   */\n    tag_58:\n        /* \"EcoCapCoin.sol\":4299:4423  function getLocationHoldings(string memory loc) public view returns (uint256) {... */\n      dup1\n      calldataload\n      swap1\n      0x20\n      add\n      swap2\n        /* \"--CODEGEN--\":100:109   */\n      dup5\n        /* \"--CODEGEN--\":95:96   */\n      0x01\n        /* \"--CODEGEN--\":81:93   */\n      dup4\n        /* \"--CODEGEN--\":77:97   */\n      mul\n        /* \"--CODEGEN--\":67:75   */\n      dup5\n        /* \"--CODEGEN--\":63:98   */\n      add\n        /* \"--CODEGEN--\":60:110   */\n      gt\n        /* \"--CODEGEN--\":39:50   */\n      0x0100000000\n        /* \"--CODEGEN--\":25:37   */\n      dup4\n        /* \"--CODEGEN--\":22:51   */\n      gt\n        /* \"--CODEGEN--\":11:118   */\n      or\n        /* \"--CODEGEN--\":8:10   */\n      iszero\n      tag_59\n      jumpi\n        /* \"--CODEGEN--\":131:132   */\n      0x00\n        /* \"--CODEGEN--\":128:129   */\n      dup1\n        /* \"--CODEGEN--\":121:133   */\n      revert\n        /* \"--CODEGEN--\":8:10   */\n    tag_59:\n        /* \"EcoCapCoin.sol\":4299:4423  function getLocationHoldings(string memory loc) public view returns (uint256) {... */\n      swap2\n      swap1\n      dup1\n      dup1\n      0x1f\n      add\n      0x20\n      dup1\n      swap2\n      div\n      mul\n      0x20\n      add\n      mload(0x40)\n      swap1\n      dup2\n      add\n      0x40\n      mstore\n      dup1\n      swap4\n      swap3\n      swap2\n      swap1\n      dup2\n      dup2\n      mstore\n      0x20\n      add\n      dup4\n      dup4\n        /* \"--CODEGEN--\":30:33   */\n      dup1\n        /* \"--CODEGEN--\":22:28   */\n      dup3\n        /* \"--CODEGEN--\":14:20   */\n      dup5\n        /* \"--CODEGEN--\":1:34   */\n      calldatacopy\n        /* \"--CODEGEN--\":99:100   */\n      0x00\n        /* \"--CODEGEN--\":93:96   */\n      dup2\n        /* \"--CODEGEN--\":85:91   */\n      dup5\n        /* \"--CODEGEN--\":81:97   */\n      add\n        /* \"--CODEGEN--\":74:101   */\n      mstore\n        /* \"--CODEGEN--\":137:141   */\n      0x1f\n        /* \"--CODEGEN--\":133:142   */\n      not\n        /* \"--CODEGEN--\":126:130   */\n      0x1f\n        /* \"--CODEGEN--\":121:124   */\n      dup3\n        /* \"--CODEGEN--\":117:131   */\n      add\n        /* \"--CODEGEN--\":113:143   */\n      and\n        /* \"--CODEGEN--\":106:143   */\n      swap1\n      pop\n        /* \"--CODEGEN--\":169:172   */\n      dup1\n        /* \"--CODEGEN--\":161:167   */\n      dup4\n        /* \"--CODEGEN--\":157:173   */\n      add\n        /* \"--CODEGEN--\":147:173   */\n      swap3\n      pop\n        /* \"EcoCapCoin.sol\":4299:4423  function getLocationHoldings(string memory loc) public view returns (uint256) {... */\n      pop\n      pop\n      pop\n      pop\n      pop\n      pop\n      swap2\n      swap3\n      swap2\n      swap3\n      swap1\n      pop\n      pop\n      pop\n      tag_60\n      jump\t// in\n    tag_55:\n      mload(0x40)\n      dup1\n      dup3\n      dup2\n      mstore\n      0x20\n      add\n      swap2\n      pop\n      pop\n      mload(0x40)\n      dup1\n      swap2\n      sub\n      swap1\n      return\n        /* \"EcoCapCoin.sol\":174:195  uint8 public decimals */\n    tag_9:\n      tag_61\n      tag_62\n      jump\t// in\n    tag_61:\n      mload(0x40)\n      dup1\n      dup3\n      0xff\n      and\n      0xff\n      and\n      dup2\n      mstore\n      0x20\n      add\n      swap2\n      pop\n      pop\n      mload(0x40)\n      dup1\n      swap2\n      sub\n      swap1\n      return\n        /* \"EcoCapCoin.sol\":2183:2388  function register(address user, string memory loc) public onlyOwner{... */\n    tag_10:\n      tag_63\n      0x04\n      dup1\n      calldatasize\n      sub\n        /* \"--CODEGEN--\":13:15   */\n      0x40\n        /* \"--CODEGEN--\":8:11   */\n      dup2\n        /* \"--CODEGEN--\":5:16   */\n      lt\n        /* \"--CODEGEN--\":2:4   */\n      iszero\n      tag_64\n      jumpi\n        /* \"--CODEGEN--\":29:30   */\n      0x00\n        /* \"--CODEGEN--\":26:27   */\n      dup1\n        /* \"--CODEGEN--\":19:31   */\n      revert\n        /* \"--CODEGEN--\":2:4   */\n    tag_64:\n        /* \"EcoCapCoin.sol\":2183:2388  function register(address user, string memory loc) public onlyOwner{... */\n      dup2\n      add\n      swap1\n      dup1\n      dup1\n      calldataload\n      0xffffffffffffffffffffffffffffffffffffffff\n      and\n      swap1\n      0x20\n      add\n      swap1\n      swap3\n      swap2\n      swap1\n      dup1\n      calldataload\n      swap1\n      0x20\n      add\n      swap1\n        /* \"--CODEGEN--\":21:32   */\n      0x0100000000\n        /* \"--CODEGEN--\":8:19   */\n      dup2\n        /* \"--CODEGEN--\":5:33   */\n      gt\n        /* \"--CODEGEN--\":2:4   */\n      iszero\n      tag_65\n      jumpi\n        /* \"--CODEGEN--\":46:47   */\n      0x00\n        /* \"--CODEGEN--\":43:44   */\n      dup1\n        /* \"--CODEGEN--\":36:48   */\n      revert\n        /* \"--CODEGEN--\":2:4   */\n    tag_65:\n        /* \"EcoCapCoin.sol\":2183:2388  function register(address user, string memory loc) public onlyOwner{... */\n      dup3\n      add\n        /* \"--CODEGEN--\":35:44   */\n      dup4\n        /* \"--CODEGEN--\":28:32   */\n      0x20\n        /* \"--CODEGEN--\":12:26   */\n      dup3\n        /* \"--CODEGEN--\":8:33   */\n      add\n        /* \"--CODEGEN--\":5:45   */\n      gt\n        /* \"--CODEGEN--\":2:4   */\n      iszero\n      tag_66\n      jumpi\n        /* \"--CODEGEN--\":58:59   */\n      0x00\n        /* \"--CODEGEN--\":55:56   */\n      dup1\n        /* \"--CODEGEN--\":48:60   */\n      revert\n        /* \"--CODEGEN--\":2:4   */\n    tag_66:\n        /* \"EcoCapCoin.sol\":2183:2388  function register(address user, string memory loc) public onlyOwner{... */\n      dup1\n      calldataload\n      swap1\n      0x20\n      add\n      swap2\n        /* \"--CODEGEN--\":100:109   */\n      dup5\n        /* \"--CODEGEN--\":95:96   */\n      0x01\n        /* \"--CODEGEN--\":81:93   */\n      dup4\n        /* \"--CODEGEN--\":77:97   */\n      mul\n        /* \"--CODEGEN--\":67:75   */\n      dup5\n        /* \"--CODEGEN--\":63:98   */\n      add\n        /* \"--CODEGEN--\":60:110   */\n      gt\n        /* \"--CODEGEN--\":39:50   */\n      0x0100000000\n        /* \"--CODEGEN--\":25:37   */\n      dup4\n        /* \"--CODEGEN--\":22:51   */\n      gt\n        /* \"--CODEGEN--\":11:118   */\n      or\n        /* \"--CODEGEN--\":8:10   */\n      iszero\n      tag_67\n      jumpi\n        /* \"--CODEGEN--\":131:132   */\n      0x00\n        /* \"--CODEGEN--\":128:129   */\n      dup1\n        /* \"--CODEGEN--\":121:133   */\n      revert\n        /* \"--CODEGEN--\":8:10   */\n    tag_67:\n        /* \"EcoCapCoin.sol\":2183:2388  function register(address user, string memory loc) public onlyOwner{... */\n      swap2\n      swap1\n      dup1\n      dup1\n      0x1f\n      add\n      0x20\n      dup1\n      swap2\n      div\n      mul\n      0x20\n      add\n      mload(0x40)\n      swap1\n      dup2\n      add\n      0x40\n      mstore\n      dup1\n      swap4\n      swap3\n      swap2\n      swap1\n      dup2\n      dup2\n      mstore\n      0x20\n      add\n      dup4\n      dup4\n        /* \"--CODEGEN--\":30:33   */\n      dup1\n        /* \"--CODEGEN--\":22:28   */\n      dup3\n        /* \"--CODEGEN--\":14:20   */\n      dup5\n        /* \"--CODEGEN--\":1:34   */\n      calldatacopy\n        /* \"--CODEGEN--\":99:100   */\n      0x00\n        /* \"--CODEGEN--\":93:96   */\n      dup2\n        /* \"--CODEGEN--\":85:91   */\n      dup5\n        /* \"--CODEGEN--\":81:97   */\n      add\n        /* \"--CODEGEN--\":74:101   */\n      mstore\n        /* \"--CODEGEN--\":137:141   */\n      0x1f\n        /* \"--CODEGEN--\":133:142   */\n      not\n        /* \"--CODEGEN--\":126:130   */\n      0x1f\n        /* \"--CODEGEN--\":121:124   */\n      dup3\n        /* \"--CODEGEN--\":117:131   */\n      add\n        /* \"--CODEGEN--\":113:143   */\n      and\n        /* \"--CODEGEN--\":106:143   */\n      swap1\n      pop\n        /* \"--CODEGEN--\":169:172   */\n      dup1\n        /* \"--CODEGEN--\":161:167   */\n      dup4\n        /* \"--CODEGEN--\":157:173   */\n      add\n        /* \"--CODEGEN--\":147:173   */\n      swap3\n      pop\n        /* \"EcoCapCoin.sol\":2183:2388  function register(address user, string memory loc) public onlyOwner{... */\n      pop\n      pop\n      pop\n      pop\n      pop\n      pop\n      swap2\n      swap3\n      swap2\n      swap3\n      swap1\n      pop\n      pop\n      pop\n      tag_68\n      jump\t// in\n    tag_63:\n      stop\n        /* \"ERC20.sol\":4069:4269   */\n    tag_11:\n      tag_69\n      0x04\n      dup1\n      calldatasize\n      sub\n        /* \"--CODEGEN--\":13:15   */\n      0x40\n        /* \"--CODEGEN--\":8:11   */\n      dup2\n        /* \"--CODEGEN--\":5:16   */\n      lt\n        /* \"--CODEGEN--\":2:4   */\n      iszero\n      tag_70\n      jumpi\n        /* \"--CODEGEN--\":29:30   */\n      0x00\n        /* \"--CODEGEN--\":26:27   */\n      dup1\n        /* \"--CODEGEN--\":19:31   */\n      revert\n        /* \"--CODEGEN--\":2:4   */\n    tag_70:\n        /* \"ERC20.sol\":4069:4269   */\n      dup2\n      add\n      swap1\n      dup1\n      dup1\n      calldataload\n      0xffffffffffffffffffffffffffffffffffffffff\n      and\n      swap1\n      0x20\n      add\n      swap1\n      swap3\n      swap2\n      swap1\n      dup1\n      calldataload\n      swap1\n      0x20\n      add\n      swap1\n      swap3\n      swap2\n      swap1\n      pop\n      pop\n      pop\n      tag_71\n      jump\t// in\n    tag_69:\n      mload(0x40)\n      dup1\n      dup3\n      iszero\n      iszero\n      iszero\n      iszero\n      dup2\n      mstore\n      0x20\n      add\n      swap2\n      pop\n      pop\n      mload(0x40)\n      dup1\n      swap2\n      sub\n      swap1\n      return\n        /* \"EcoCapCoin.sol\":7620:7997  function burn(uint256 value) public {... */\n    tag_12:\n      tag_72\n      0x04\n      dup1\n      calldatasize\n      sub\n        /* \"--CODEGEN--\":13:15   */\n      0x20\n        /* \"--CODEGEN--\":8:11   */\n      dup2\n        /* \"--CODEGEN--\":5:16   */\n      lt\n        /* \"--CODEGEN--\":2:4   */\n      iszero\n      tag_73\n      jumpi\n        /* \"--CODEGEN--\":29:30   */\n      0x00\n        /* \"--CODEGEN--\":26:27   */\n      dup1\n        /* \"--CODEGEN--\":19:31   */\n      revert\n        /* \"--CODEGEN--\":2:4   */\n    tag_73:\n        /* \"EcoCapCoin.sol\":7620:7997  function burn(uint256 value) public {... */\n      dup2\n      add\n      swap1\n      dup1\n      dup1\n      calldataload\n      swap1\n      0x20\n      add\n      swap1\n      swap3\n      swap2\n      swap1\n      pop\n      pop\n      pop\n      tag_74\n      jump\t// in\n    tag_72:\n      stop\n        /* \"EcoCapCoin.sol\":3896:4019  function getUserLocation(address user) public view returns (string memory) {... */\n    tag_13:\n      tag_75\n      0x04\n      dup1\n      calldatasize\n      sub\n        /* \"--CODEGEN--\":13:15   */\n      0x20\n        /* \"--CODEGEN--\":8:11   */\n      dup2\n        /* \"--CODEGEN--\":5:16   */\n      lt\n        /* \"--CODEGEN--\":2:4   */\n      iszero\n      tag_76\n      jumpi\n        /* \"--CODEGEN--\":29:30   */\n      0x00\n        /* \"--CODEGEN--\":26:27   */\n      dup1\n        /* \"--CODEGEN--\":19:31   */\n      revert\n        /* \"--CODEGEN--\":2:4   */\n    tag_76:\n        /* \"EcoCapCoin.sol\":3896:4019  function getUserLocation(address user) public view returns (string memory) {... */\n      dup2\n      add\n      swap1\n      dup1\n      dup1\n      calldataload\n      0xffffffffffffffffffffffffffffffffffffffff\n      and\n      swap1\n      0x20\n      add\n      swap1\n      swap3\n      swap2\n      swap1\n      pop\n      pop\n      pop\n      tag_77\n      jump\t// in\n    tag_75:\n      mload(0x40)\n      dup1\n      dup1\n      0x20\n      add\n      dup3\n      dup2\n      sub\n      dup3\n      mstore\n      dup4\n      dup2\n      dup2\n      mload\n      dup2\n      mstore\n      0x20\n      add\n      swap2\n      pop\n      dup1\n      mload\n      swap1\n      0x20\n      add\n      swap1\n      dup1\n      dup4\n      dup4\n        /* \"--CODEGEN--\":23:24   */\n      0x00\n        /* \"--CODEGEN--\":8:108   */\n    tag_78:\n        /* \"--CODEGEN--\":33:36   */\n      dup4\n        /* \"--CODEGEN--\":30:31   */\n      dup2\n        /* \"--CODEGEN--\":27:37   */\n      lt\n        /* \"--CODEGEN--\":8:108   */\n      iszero\n      tag_80\n      jumpi\n        /* \"--CODEGEN--\":99:100   */\n      dup1\n        /* \"--CODEGEN--\":94:97   */\n      dup3\n        /* \"--CODEGEN--\":90:101   */\n      add\n        /* \"--CODEGEN--\":84:102   */\n      mload\n        /* \"--CODEGEN--\":80:81   */\n      dup2\n        /* \"--CODEGEN--\":75:78   */\n      dup5\n        /* \"--CODEGEN--\":71:82   */\n      add\n        /* \"--CODEGEN--\":64:103   */\n      mstore\n        /* \"--CODEGEN--\":52:54   */\n      0x20\n        /* \"--CODEGEN--\":49:50   */\n      dup2\n        /* \"--CODEGEN--\":45:55   */\n      add\n        /* \"--CODEGEN--\":40:55   */\n      swap1\n      pop\n        /* \"--CODEGEN--\":8:108   */\n      jump(tag_78)\n    tag_80:\n        /* \"--CODEGEN--\":12:26   */\n      pop\n        /* \"EcoCapCoin.sol\":3896:4019  function getUserLocation(address user) public view returns (string memory) {... */\n      pop\n      pop\n      pop\n      swap1\n      pop\n      swap1\n      dup2\n      add\n      swap1\n      0x1f\n      and\n      dup1\n      iszero\n      tag_81\n      jumpi\n      dup1\n      dup3\n      sub\n      dup1\n      mload\n      0x01\n      dup4\n      0x20\n      sub\n      0x0100\n      exp\n      sub\n      not\n      and\n      dup2\n      mstore\n      0x20\n      add\n      swap2\n      pop\n    tag_81:\n      pop\n      swap3\n      pop\n      pop\n      pop\n      mload(0x40)\n      dup1\n      swap2\n      sub\n      swap1\n      return\n        /* \"EcoCapCoin.sol\":4509:4806  function checkPolluterLimit(address pol) public view returns (uint256){... */\n    tag_14:\n      tag_82\n      0x04\n      dup1\n      calldatasize\n      sub\n        /* \"--CODEGEN--\":13:15   */\n      0x20\n        /* \"--CODEGEN--\":8:11   */\n      dup2\n        /* \"--CODEGEN--\":5:16   */\n      lt\n        /* \"--CODEGEN--\":2:4   */\n      iszero\n      tag_83\n      jumpi\n        /* \"--CODEGEN--\":29:30   */\n      0x00\n        /* \"--CODEGEN--\":26:27   */\n      dup1\n        /* \"--CODEGEN--\":19:31   */\n      revert\n        /* \"--CODEGEN--\":2:4   */\n    tag_83:\n        /* \"EcoCapCoin.sol\":4509:4806  function checkPolluterLimit(address pol) public view returns (uint256){... */\n      dup2\n      add\n      swap1\n      dup1\n      dup1\n      calldataload\n      0xffffffffffffffffffffffffffffffffffffffff\n      and\n      swap1\n      0x20\n      add\n      swap1\n      swap3\n      swap2\n      swap1\n      pop\n      pop\n      pop\n      tag_84\n      jump\t// in\n    tag_82:\n      mload(0x40)\n      dup1\n      dup3\n      dup2\n      mstore\n      0x20\n      add\n      swap2\n      pop\n      pop\n      mload(0x40)\n      dup1\n      swap2\n      sub\n      swap1\n      return\n        /* \"EcoCapCoin.sol\":2394:2575  function setLocationCapacity(string memory loc, uint256 capacity) public onlyOwner{... */\n    tag_15:\n      tag_85\n      0x04\n      dup1\n      calldatasize\n      sub\n        /* \"--CODEGEN--\":13:15   */\n      0x40\n        /* \"--CODEGEN--\":8:11   */\n      dup2\n        /* \"--CODEGEN--\":5:16   */\n      lt\n        /* \"--CODEGEN--\":2:4   */\n      iszero\n      tag_86\n      jumpi\n        /* \"--CODEGEN--\":29:30   */\n      0x00\n        /* \"--CODEGEN--\":26:27   */\n      dup1\n        /* \"--CODEGEN--\":19:31   */\n      revert\n        /* \"--CODEGEN--\":2:4   */\n    tag_86:\n        /* \"EcoCapCoin.sol\":2394:2575  function setLocationCapacity(string memory loc, uint256 capacity) public onlyOwner{... */\n      dup2\n      add\n      swap1\n      dup1\n      dup1\n      calldataload\n      swap1\n      0x20\n      add\n      swap1\n        /* \"--CODEGEN--\":21:32   */\n      0x0100000000\n        /* \"--CODEGEN--\":8:19   */\n      dup2\n        /* \"--CODEGEN--\":5:33   */\n      gt\n        /* \"--CODEGEN--\":2:4   */\n      iszero\n      tag_87\n      jumpi\n        /* \"--CODEGEN--\":46:47   */\n      0x00\n        /* \"--CODEGEN--\":43:44   */\n      dup1\n        /* \"--CODEGEN--\":36:48   */\n      revert\n        /* \"--CODEGEN--\":2:4   */\n    tag_87:\n        /* \"EcoCapCoin.sol\":2394:2575  function setLocationCapacity(string memory loc, uint256 capacity) public onlyOwner{... */\n      dup3\n      add\n        /* \"--CODEGEN--\":35:44   */\n      dup4\n        /* \"--CODEGEN--\":28:32   */\n      0x20\n        /* \"--CODEGEN--\":12:26   */\n      dup3\n        /* \"--CODEGEN--\":8:33   */\n      add\n        /* \"--CODEGEN--\":5:45   */\n      gt\n        /* \"--CODEGEN--\":2:4   */\n      iszero\n      tag_88\n      jumpi\n        /* \"--CODEGEN--\":58:59   */\n      0x00\n        /* \"--CODEGEN--\":55:56   */\n      dup1\n        /* \"--CODEGEN--\":48:60   */\n      revert\n        /* \"--CODEGEN--\":2:4   */\n    tag_88:\n        /* \"EcoCapCoin.sol\":2394:2575  function setLocationCapacity(string memory loc, uint256 capacity) public onlyOwner{... */\n      dup1\n      calldataload\n      swap1\n      0x20\n      add\n      swap2\n        /* \"--CODEGEN--\":100:109   */\n      dup5\n        /* \"--CODEGEN--\":95:96   */\n      0x01\n        /* \"--CODEGEN--\":81:93   */\n      dup4\n        /* \"--CODEGEN--\":77:97   */\n      mul\n        /* \"--CODEGEN--\":67:75   */\n      dup5\n        /* \"--CODEGEN--\":63:98   */\n      add\n        /* \"--CODEGEN--\":60:110   */\n      gt\n        /* \"--CODEGEN--\":39:50   */\n      0x0100000000\n        /* \"--CODEGEN--\":25:37   */\n      dup4\n        /* \"--CODEGEN--\":22:51   */\n      gt\n        /* \"--CODEGEN--\":11:118   */\n      or\n        /* \"--CODEGEN--\":8:10   */\n      iszero\n      tag_89\n      jumpi\n        /* \"--CODEGEN--\":131:132   */\n      0x00\n        /* \"--CODEGEN--\":128:129   */\n      dup1\n        /* \"--CODEGEN--\":121:133   */\n      revert\n        /* \"--CODEGEN--\":8:10   */\n    tag_89:\n        /* \"EcoCapCoin.sol\":2394:2575  function setLocationCapacity(string memory loc, uint256 capacity) public onlyOwner{... */\n      swap2\n      swap1\n      dup1\n      dup1\n      0x1f\n      add\n      0x20\n      dup1\n      swap2\n      div\n      mul\n      0x20\n      add\n      mload(0x40)\n      swap1\n      dup2\n      add\n      0x40\n      mstore\n      dup1\n      swap4\n      swap3\n      swap2\n      swap1\n      dup2\n      dup2\n      mstore\n      0x20\n      add\n      dup4\n      dup4\n        /* \"--CODEGEN--\":30:33   */\n      dup1\n        /* \"--CODEGEN--\":22:28   */\n      dup3\n        /* \"--CODEGEN--\":14:20   */\n      dup5\n        /* \"--CODEGEN--\":1:34   */\n      calldatacopy\n        /* \"--CODEGEN--\":99:100   */\n      0x00\n        /* \"--CODEGEN--\":93:96   */\n      dup2\n        /* \"--CODEGEN--\":85:91   */\n      dup5\n        /* \"--CODEGEN--\":81:97   */\n      add\n        /* \"--CODEGEN--\":74:101   */\n      mstore\n        /* \"--CODEGEN--\":137:141   */\n      0x1f\n        /* \"--CODEGEN--\":133:142   */\n      not\n        /* \"--CODEGEN--\":126:130   */\n      0x1f\n        /* \"--CODEGEN--\":121:124   */\n      dup3\n        /* \"--CODEGEN--\":117:131   */\n      add\n        /* \"--CODEGEN--\":113:143   */\n      and\n        /* \"--CODEGEN--\":106:143   */\n      swap1\n      pop\n        /* \"--CODEGEN--\":169:172   */\n      dup1\n        /* \"--CODEGEN--\":161:167   */\n      dup4\n        /* \"--CODEGEN--\":157:173   */\n      add\n        /* \"--CODEGEN--\":147:173   */\n      swap3\n      pop\n        /* \"EcoCapCoin.sol\":2394:2575  function setLocationCapacity(string memory loc, uint256 capacity) public onlyOwner{... */\n      pop\n      pop\n      pop\n      pop\n      pop\n      pop\n      swap2\n      swap3\n      swap2\n      swap3\n      swap1\n      dup1\n      calldataload\n      swap1\n      0x20\n      add\n      swap1\n      swap3\n      swap2\n      swap1\n      pop\n      pop\n      pop\n      tag_90\n      jump\t// in\n    tag_85:\n      stop\n        /* \"EcoCapCoin.sol\":2581:2651  function nextCycle() public onlyOwner{... */\n    tag_16:\n      tag_91\n      tag_92\n      jump\t// in\n    tag_91:\n      stop\n        /* \"ERC20.sol\":1218:1322   */\n    tag_17:\n      tag_93\n      0x04\n      dup1\n      calldatasize\n      sub\n        /* \"--CODEGEN--\":13:15   */\n      0x20\n        /* \"--CODEGEN--\":8:11   */\n      dup2\n        /* \"--CODEGEN--\":5:16   */\n      lt\n        /* \"--CODEGEN--\":2:4   */\n      iszero\n      tag_94\n      jumpi\n        /* \"--CODEGEN--\":29:30   */\n      0x00\n        /* \"--CODEGEN--\":26:27   */\n      dup1\n        /* \"--CODEGEN--\":19:31   */\n      revert\n        /* \"--CODEGEN--\":2:4   */\n    tag_94:\n        /* \"ERC20.sol\":1218:1322   */\n      dup2\n      add\n      swap1\n      dup1\n      dup1\n      calldataload\n      0xffffffffffffffffffffffffffffffffffffffff\n      and\n      swap1\n      0x20\n      add\n      swap1\n      swap3\n      swap2\n      swap1\n      pop\n      pop\n      pop\n      tag_95\n      jump\t// in\n    tag_93:\n      mload(0x40)\n      dup1\n      dup3\n      dup2\n      mstore\n      0x20\n      add\n      swap2\n      pop\n      pop\n      mload(0x40)\n      dup1\n      swap2\n      sub\n      swap1\n      return\n        /* \"Ownable.sol\":1459:1596   */\n    tag_18:\n      tag_96\n      tag_97\n      jump\t// in\n    tag_96:\n      stop\n        /* \"EcoCapCoin.sol\":8003:8390  function burnFrom(address from, uint256 value) public {... */\n    tag_19:\n      tag_98\n      0x04\n      dup1\n      calldatasize\n      sub\n        /* \"--CODEGEN--\":13:15   */\n      0x40\n        /* \"--CODEGEN--\":8:11   */\n      dup2\n        /* \"--CODEGEN--\":5:16   */\n      lt\n        /* \"--CODEGEN--\":2:4   */\n      iszero\n      tag_99\n      jumpi\n        /* \"--CODEGEN--\":29:30   */\n      0x00\n        /* \"--CODEGEN--\":26:27   */\n      dup1\n        /* \"--CODEGEN--\":19:31   */\n      revert\n        /* \"--CODEGEN--\":2:4   */\n    tag_99:\n        /* \"EcoCapCoin.sol\":8003:8390  function burnFrom(address from, uint256 value) public {... */\n      dup2\n      add\n      swap1\n      dup1\n      dup1\n      calldataload\n      0xffffffffffffffffffffffffffffffffffffffff\n      and\n      swap1\n      0x20\n      add\n      swap1\n      swap3\n      swap2\n      swap1\n      dup1\n      calldataload\n      swap1\n      0x20\n      add\n      swap1\n      swap3\n      swap2\n      swap1\n      pop\n      pop\n      pop\n      tag_100\n      jump\t// in\n    tag_98:\n      stop\n        /* \"EcoCapCoin.sol\":4168:4293  function getLocationCapacity(string memory loc) public view returns (uint256) {... */\n    tag_20:\n      tag_101\n      0x04\n      dup1\n      calldatasize\n      sub\n        /* \"--CODEGEN--\":13:15   */\n      0x20\n        /* \"--CODEGEN--\":8:11   */\n      dup2\n        /* \"--CODEGEN--\":5:16   */\n      lt\n        /* \"--CODEGEN--\":2:4   */\n      iszero\n      tag_102\n      jumpi\n        /* \"--CODEGEN--\":29:30   */\n      0x00\n        /* \"--CODEGEN--\":26:27   */\n      dup1\n        /* \"--CODEGEN--\":19:31   */\n      revert\n        /* \"--CODEGEN--\":2:4   */\n    tag_102:\n        /* \"EcoCapCoin.sol\":4168:4293  function getLocationCapacity(string memory loc) public view returns (uint256) {... */\n      dup2\n      add\n      swap1\n      dup1\n      dup1\n      calldataload\n      swap1\n      0x20\n      add\n      swap1\n        /* \"--CODEGEN--\":21:32   */\n      0x0100000000\n        /* \"--CODEGEN--\":8:19   */\n      dup2\n        /* \"--CODEGEN--\":5:33   */\n      gt\n        /* \"--CODEGEN--\":2:4   */\n      iszero\n      tag_103\n      jumpi\n        /* \"--CODEGEN--\":46:47   */\n      0x00\n        /* \"--CODEGEN--\":43:44   */\n      dup1\n        /* \"--CODEGEN--\":36:48   */\n      revert\n        /* \"--CODEGEN--\":2:4   */\n    tag_103:\n        /* \"EcoCapCoin.sol\":4168:4293  function getLocationCapacity(string memory loc) public view returns (uint256) {... */\n      dup3\n      add\n        /* \"--CODEGEN--\":35:44   */\n      dup4\n        /* \"--CODEGEN--\":28:32   */\n      0x20\n        /* \"--CODEGEN--\":12:26   */\n      dup3\n        /* \"--CODEGEN--\":8:33   */\n      add\n        /* \"--CODEGEN--\":5:45   */\n      gt\n        /* \"--CODEGEN--\":2:4   */\n      iszero\n      tag_104\n      jumpi\n        /* \"--CODEGEN--\":58:59   */\n      0x00\n        /* \"--CODEGEN--\":55:56   */\n      dup1\n        /* \"--CODEGEN--\":48:60   */\n      revert\n        /* \"--CODEGEN--\":2:4   */\n    tag_104:\n        /* \"EcoCapCoin.sol\":4168:4293  function getLocationCapacity(string memory loc) public view returns (uint256) {... */\n      dup1\n      calldataload\n      swap1\n      0x20\n      add\n      swap2\n        /* \"--CODEGEN--\":100:109   */\n      dup5\n        /* \"--CODEGEN--\":95:96   */\n      0x01\n        /* \"--CODEGEN--\":81:93   */\n      dup4\n        /* \"--CODEGEN--\":77:97   */\n      mul\n        /* \"--CODEGEN--\":67:75   */\n      dup5\n        /* \"--CODEGEN--\":63:98   */\n      add\n        /* \"--CODEGEN--\":60:110   */\n      gt\n        /* \"--CODEGEN--\":39:50   */\n      0x0100000000\n        /* \"--CODEGEN--\":25:37   */\n      dup4\n        /* \"--CODEGEN--\":22:51   */\n      gt\n        /* \"--CODEGEN--\":11:118   */\n      or\n        /* \"--CODEGEN--\":8:10   */\n      iszero\n      tag_105\n      jumpi\n        /* \"--CODEGEN--\":131:132   */\n      0x00\n        /* \"--CODEGEN--\":128:129   */\n      dup1\n        /* \"--CODEGEN--\":121:133   */\n      revert\n        /* \"--CODEGEN--\":8:10   */\n    tag_105:\n        /* \"EcoCapCoin.sol\":4168:4293  function getLocationCapacity(string memory loc) public view returns (uint256) {... */\n      swap2\n      swap1\n      dup1\n      dup1\n      0x1f\n      add\n      0x20\n      dup1\n      swap2\n      div\n      mul\n      0x20\n      add\n      mload(0x40)\n      swap1\n      dup2\n      add\n      0x40\n      mstore\n      dup1\n      swap4\n      swap3\n      swap2\n      swap1\n      dup2\n      dup2\n      mstore\n      0x20\n      add\n      dup4\n      dup4\n        /* \"--CODEGEN--\":30:33   */\n      dup1\n        /* \"--CODEGEN--\":22:28   */\n      dup3\n        /* \"--CODEGEN--\":14:20   */\n      dup5\n        /* \"--CODEGEN--\":1:34   */\n      calldatacopy\n        /* \"--CODEGEN--\":99:100   */\n      0x00\n        /* \"--CODEGEN--\":93:96   */\n      dup2\n        /* \"--CODEGEN--\":85:91   */\n      dup5\n        /* \"--CODEGEN--\":81:97   */\n      add\n        /* \"--CODEGEN--\":74:101   */\n      mstore\n        /* \"--CODEGEN--\":137:141   */\n      0x1f\n        /* \"--CODEGEN--\":133:142   */\n      not\n        /* \"--CODEGEN--\":126:130   */\n      0x1f\n        /* \"--CODEGEN--\":121:124   */\n      dup3\n        /* \"--CODEGEN--\":117:131   */\n      add\n        /* \"--CODEGEN--\":113:143   */\n      and\n        /* \"--CODEGEN--\":106:143   */\n      swap1\n      pop\n        /* \"--CODEGEN--\":169:172   */\n      dup1\n        /* \"--CODEGEN--\":161:167   */\n      dup4\n        /* \"--CODEGEN--\":157:173   */\n      add\n        /* \"--CODEGEN--\":147:173   */\n      swap3\n      pop\n        /* \"EcoCapCoin.sol\":4168:4293  function getLocationCapacity(string memory loc) public view returns (uint256) {... */\n      pop\n      pop\n      pop\n      pop\n      pop\n      pop\n      swap2\n      swap3\n      swap2\n      swap3\n      swap1\n      pop\n      pop\n      pop\n      tag_106\n      jump\t// in\n    tag_101:\n      mload(0x40)\n      dup1\n      dup3\n      dup2\n      mstore\n      0x20\n      add\n      swap2\n      pop\n      pop\n      mload(0x40)\n      dup1\n      swap2\n      sub\n      swap1\n      return\n        /* \"Ownable.sol\":659:736   */\n    tag_21:\n      tag_107\n      tag_108\n      jump\t// in\n    tag_107:\n      mload(0x40)\n      dup1\n      dup3\n      0xffffffffffffffffffffffffffffffffffffffff\n      and\n      0xffffffffffffffffffffffffffffffffffffffff\n      and\n      dup2\n      mstore\n      0x20\n      add\n      swap2\n      pop\n      pop\n      mload(0x40)\n      dup1\n      swap2\n      sub\n      swap1\n      return\n        /* \"Ownable.sol\":1015:1105   */\n    tag_22:\n      tag_109\n      tag_110\n      jump\t// in\n    tag_109:\n      mload(0x40)\n      dup1\n      dup3\n      iszero\n      iszero\n      iszero\n      iszero\n      dup2\n      mstore\n      0x20\n      add\n      swap2\n      pop\n      pop\n      mload(0x40)\n      dup1\n      swap2\n      sub\n      swap1\n      return\n        /* \"EcoCapCoin.sol\":201:221  string public symbol */\n    tag_23:\n      tag_111\n      tag_112\n      jump\t// in\n    tag_111:\n      mload(0x40)\n      dup1\n      dup1\n      0x20\n      add\n      dup3\n      dup2\n      sub\n      dup3\n      mstore\n      dup4\n      dup2\n      dup2\n      mload\n      dup2\n      mstore\n      0x20\n      add\n      swap2\n      pop\n      dup1\n      mload\n      swap1\n      0x20\n      add\n      swap1\n      dup1\n      dup4\n      dup4\n        /* \"--CODEGEN--\":23:24   */\n      0x00\n        /* \"--CODEGEN--\":8:108   */\n    tag_113:\n        /* \"--CODEGEN--\":33:36   */\n      dup4\n        /* \"--CODEGEN--\":30:31   */\n      dup2\n        /* \"--CODEGEN--\":27:37   */\n      lt\n        /* \"--CODEGEN--\":8:108   */\n      iszero\n      tag_115\n      jumpi\n        /* \"--CODEGEN--\":99:100   */\n      dup1\n        /* \"--CODEGEN--\":94:97   */\n      dup3\n        /* \"--CODEGEN--\":90:101   */\n      add\n        /* \"--CODEGEN--\":84:102   */\n      mload\n        /* \"--CODEGEN--\":80:81   */\n      dup2\n        /* \"--CODEGEN--\":75:78   */\n      dup5\n        /* \"--CODEGEN--\":71:82   */\n      add\n        /* \"--CODEGEN--\":64:103   */\n      mstore\n        /* \"--CODEGEN--\":52:54   */\n      0x20\n        /* \"--CODEGEN--\":49:50   */\n      dup2\n        /* \"--CODEGEN--\":45:55   */\n      add\n        /* \"--CODEGEN--\":40:55   */\n      swap1\n      pop\n        /* \"--CODEGEN--\":8:108   */\n      jump(tag_113)\n    tag_115:\n        /* \"--CODEGEN--\":12:26   */\n      pop\n        /* \"EcoCapCoin.sol\":201:221  string public symbol */\n      pop\n      pop\n      pop\n      swap1\n      pop\n      swap1\n      dup2\n      add\n      swap1\n      0x1f\n      and\n      dup1\n      iszero\n      tag_116\n      jumpi\n      dup1\n      dup3\n      sub\n      dup1\n      mload\n      0x01\n      dup4\n      0x20\n      sub\n      0x0100\n      exp\n      sub\n      not\n      and\n      dup2\n      mstore\n      0x20\n      add\n      swap2\n      pop\n    tag_116:\n      pop\n      swap3\n      pop\n      pop\n      pop\n      mload(0x40)\n      dup1\n      swap2\n      sub\n      swap1\n      return\n        /* \"ERC20.sol\":4788:4998   */\n    tag_24:\n      tag_117\n      0x04\n      dup1\n      calldatasize\n      sub\n        /* \"--CODEGEN--\":13:15   */\n      0x40\n        /* \"--CODEGEN--\":8:11   */\n      dup2\n        /* \"--CODEGEN--\":5:16   */\n      lt\n        /* \"--CODEGEN--\":2:4   */\n      iszero\n      tag_118\n      jumpi\n        /* \"--CODEGEN--\":29:30   */\n      0x00\n        /* \"--CODEGEN--\":26:27   */\n      dup1\n        /* \"--CODEGEN--\":19:31   */\n      revert\n        /* \"--CODEGEN--\":2:4   */\n    tag_118:\n        /* \"ERC20.sol\":4788:4998   */\n      dup2\n      add\n      swap1\n      dup1\n      dup1\n      calldataload\n      0xffffffffffffffffffffffffffffffffffffffff\n      and\n      swap1\n      0x20\n      add\n      swap1\n      swap3\n      swap2\n      swap1\n      dup1\n      calldataload\n      swap1\n      0x20\n      add\n      swap1\n      swap3\n      swap2\n      swap1\n      pop\n      pop\n      pop\n      tag_119\n      jump\t// in\n    tag_117:\n      mload(0x40)\n      dup1\n      dup3\n      iszero\n      iszero\n      iszero\n      iszero\n      dup2\n      mstore\n      0x20\n      add\n      swap2\n      pop\n      pop\n      mload(0x40)\n      dup1\n      swap2\n      sub\n      swap1\n      return\n        /* \"EcoCapCoin.sol\":4938:5819  function transfer(address to, uint256 value) public returns(bool){... */\n    tag_25:\n      tag_120\n      0x04\n      dup1\n      calldatasize\n      sub\n        /* \"--CODEGEN--\":13:15   */\n      0x40\n        /* \"--CODEGEN--\":8:11   */\n      dup2\n        /* \"--CODEGEN--\":5:16   */\n      lt\n        /* \"--CODEGEN--\":2:4   */\n      iszero\n      tag_121\n      jumpi\n        /* \"--CODEGEN--\":29:30   */\n      0x00\n        /* \"--CODEGEN--\":26:27   */\n      dup1\n        /* \"--CODEGEN--\":19:31   */\n      revert\n        /* \"--CODEGEN--\":2:4   */\n    tag_121:\n        /* \"EcoCapCoin.sol\":4938:5819  function transfer(address to, uint256 value) public returns(bool){... */\n      dup2\n      add\n      swap1\n      dup1\n      dup1\n      calldataload\n      0xffffffffffffffffffffffffffffffffffffffff\n      and\n      swap1\n      0x20\n      add\n      swap1\n      swap3\n      swap2\n      swap1\n      dup1\n      calldataload\n      swap1\n      0x20\n      add\n      swap1\n      swap3\n      swap2\n      swap1\n      pop\n      pop\n      pop\n      tag_122\n      jump\t// in\n    tag_120:\n      mload(0x40)\n      dup1\n      dup3\n      iszero\n      iszero\n      iszero\n      iszero\n      dup2\n      mstore\n      0x20\n      add\n      swap2\n      pop\n      pop\n      mload(0x40)\n      dup1\n      swap2\n      sub\n      swap1\n      return\n        /* \"EcoCapCoin.sol\":2657:2818  function registerSensor(address pol, address sens) public onlyOwner{... */\n    tag_26:\n      tag_123\n      0x04\n      dup1\n      calldatasize\n      sub\n        /* \"--CODEGEN--\":13:15   */\n      0x40\n        /* \"--CODEGEN--\":8:11   */\n      dup2\n        /* \"--CODEGEN--\":5:16   */\n      lt\n        /* \"--CODEGEN--\":2:4   */\n      iszero\n      tag_124\n      jumpi\n        /* \"--CODEGEN--\":29:30   */\n      0x00\n        /* \"--CODEGEN--\":26:27   */\n      dup1\n        /* \"--CODEGEN--\":19:31   */\n      revert\n        /* \"--CODEGEN--\":2:4   */\n    tag_124:\n        /* \"EcoCapCoin.sol\":2657:2818  function registerSensor(address pol, address sens) public onlyOwner{... */\n      dup2\n      add\n      swap1\n      dup1\n      dup1\n      calldataload\n      0xffffffffffffffffffffffffffffffffffffffff\n      and\n      swap1\n      0x20\n      add\n      swap1\n      swap3\n      swap2\n      swap1\n      dup1\n      calldataload\n      0xffffffffffffffffffffffffffffffffffffffff\n      and\n      swap1\n      0x20\n      add\n      swap1\n      swap3\n      swap2\n      swap1\n      pop\n      pop\n      pop\n      tag_125\n      jump\t// in\n    tag_123:\n      stop\n        /* \"EcoCapCoin.sol\":3363:3890  function getUserPreviousCyclePollution(address pol) public view returns (uint256) {... */\n    tag_27:\n      tag_126\n      0x04\n      dup1\n      calldatasize\n      sub\n        /* \"--CODEGEN--\":13:15   */\n      0x20\n        /* \"--CODEGEN--\":8:11   */\n      dup2\n        /* \"--CODEGEN--\":5:16   */\n      lt\n        /* \"--CODEGEN--\":2:4   */\n      iszero\n      tag_127\n      jumpi\n        /* \"--CODEGEN--\":29:30   */\n      0x00\n        /* \"--CODEGEN--\":26:27   */\n      dup1\n        /* \"--CODEGEN--\":19:31   */\n      revert\n        /* \"--CODEGEN--\":2:4   */\n    tag_127:\n        /* \"EcoCapCoin.sol\":3363:3890  function getUserPreviousCyclePollution(address pol) public view returns (uint256) {... */\n      dup2\n      add\n      swap1\n      dup1\n      dup1\n      calldataload\n      0xffffffffffffffffffffffffffffffffffffffff\n      and\n      swap1\n      0x20\n      add\n      swap1\n      swap3\n      swap2\n      swap1\n      pop\n      pop\n      pop\n      tag_128\n      jump\t// in\n    tag_126:\n      mload(0x40)\n      dup1\n      dup3\n      dup2\n      mstore\n      0x20\n      add\n      swap2\n      pop\n      pop\n      mload(0x40)\n      dup1\n      swap2\n      sub\n      swap1\n      return\n        /* \"ERC20.sol\":1653:1782   */\n    tag_28:\n      tag_129\n      0x04\n      dup1\n      calldatasize\n      sub\n        /* \"--CODEGEN--\":13:15   */\n      0x40\n        /* \"--CODEGEN--\":8:11   */\n      dup2\n        /* \"--CODEGEN--\":5:16   */\n      lt\n        /* \"--CODEGEN--\":2:4   */\n      iszero\n      tag_130\n      jumpi\n        /* \"--CODEGEN--\":29:30   */\n      0x00\n        /* \"--CODEGEN--\":26:27   */\n      dup1\n        /* \"--CODEGEN--\":19:31   */\n      revert\n        /* \"--CODEGEN--\":2:4   */\n    tag_130:\n        /* \"ERC20.sol\":1653:1782   */\n      dup2\n      add\n      swap1\n      dup1\n      dup1\n      calldataload\n      0xffffffffffffffffffffffffffffffffffffffff\n      and\n      swap1\n      0x20\n      add\n      swap1\n      swap3\n      swap2\n      swap1\n      dup1\n      calldataload\n      0xffffffffffffffffffffffffffffffffffffffff\n      and\n      swap1\n      0x20\n      add\n      swap1\n      swap3\n      swap2\n      swap1\n      pop\n      pop\n      pop\n      tag_131\n      jump\t// in\n    tag_129:\n      mload(0x40)\n      dup1\n      dup3\n      dup2\n      mstore\n      0x20\n      add\n      swap2\n      pop\n      pop\n      mload(0x40)\n      dup1\n      swap2\n      sub\n      swap1\n      return\n        /* \"EcoCapCoin.sol\":4025:4162  function getLocationOriginalCapacity(string memory loc) public view returns (uint256) {... */\n    tag_29:\n      tag_132\n      0x04\n      dup1\n      calldatasize\n      sub\n        /* \"--CODEGEN--\":13:15   */\n      0x20\n        /* \"--CODEGEN--\":8:11   */\n      dup2\n        /* \"--CODEGEN--\":5:16   */\n      lt\n        /* \"--CODEGEN--\":2:4   */\n      iszero\n      tag_133\n      jumpi\n        /* \"--CODEGEN--\":29:30   */\n      0x00\n        /* \"--CODEGEN--\":26:27   */\n      dup1\n        /* \"--CODEGEN--\":19:31   */\n      revert\n        /* \"--CODEGEN--\":2:4   */\n    tag_133:\n        /* \"EcoCapCoin.sol\":4025:4162  function getLocationOriginalCapacity(string memory loc) public view returns (uint256) {... */\n      dup2\n      add\n      swap1\n      dup1\n      dup1\n      calldataload\n      swap1\n      0x20\n      add\n      swap1\n        /* \"--CODEGEN--\":21:32   */\n      0x0100000000\n        /* \"--CODEGEN--\":8:19   */\n      dup2\n        /* \"--CODEGEN--\":5:33   */\n      gt\n        /* \"--CODEGEN--\":2:4   */\n      iszero\n      tag_134\n      jumpi\n        /* \"--CODEGEN--\":46:47   */\n      0x00\n        /* \"--CODEGEN--\":43:44   */\n      dup1\n        /* \"--CODEGEN--\":36:48   */\n      revert\n        /* \"--CODEGEN--\":2:4   */\n    tag_134:\n        /* \"EcoCapCoin.sol\":4025:4162  function getLocationOriginalCapacity(string memory loc) public view returns (uint256) {... */\n      dup3\n      add\n        /* \"--CODEGEN--\":35:44   */\n      dup4\n        /* \"--CODEGEN--\":28:32   */\n      0x20\n        /* \"--CODEGEN--\":12:26   */\n      dup3\n        /* \"--CODEGEN--\":8:33   */\n      add\n        /* \"--CODEGEN--\":5:45   */\n      gt\n        /* \"--CODEGEN--\":2:4   */\n      iszero\n      tag_135\n      jumpi\n        /* \"--CODEGEN--\":58:59   */\n      0x00\n        /* \"--CODEGEN--\":55:56   */\n      dup1\n        /* \"--CODEGEN--\":48:60   */\n      revert\n        /* \"--CODEGEN--\":2:4   */\n    tag_135:\n        /* \"EcoCapCoin.sol\":4025:4162  function getLocationOriginalCapacity(string memory loc) public view returns (uint256) {... */\n      dup1\n      calldataload\n      swap1\n      0x20\n      add\n      swap2\n        /* \"--CODEGEN--\":100:109   */\n      dup5\n        /* \"--CODEGEN--\":95:96   */\n      0x01\n        /* \"--CODEGEN--\":81:93   */\n      dup4\n        /* \"--CODEGEN--\":77:97   */\n      mul\n        /* \"--CODEGEN--\":67:75   */\n      dup5\n        /* \"--CODEGEN--\":63:98   */\n      add\n        /* \"--CODEGEN--\":60:110   */\n      gt\n        /* \"--CODEGEN--\":39:50   */\n      0x0100000000\n        /* \"--CODEGEN--\":25:37   */\n      dup4\n        /* \"--CODEGEN--\":22:51   */\n      gt\n        /* \"--CODEGEN--\":11:118   */\n      or\n        /* \"--CODEGEN--\":8:10   */\n      iszero\n      tag_136\n      jumpi\n        /* \"--CODEGEN--\":131:132   */\n      0x00\n        /* \"--CODEGEN--\":128:129   */\n      dup1\n        /* \"--CODEGEN--\":121:133   */\n      revert\n        /* \"--CODEGEN--\":8:10   */\n    tag_136:\n        /* \"EcoCapCoin.sol\":4025:4162  function getLocationOriginalCapacity(string memory loc) public view returns (uint256) {... */\n      swap2\n      swap1\n      dup1\n      dup1\n      0x1f\n      add\n      0x20\n      dup1\n      swap2\n      div\n      mul\n      0x20\n      add\n      mload(0x40)\n      swap1\n      dup2\n      add\n      0x40\n      mstore\n      dup1\n      swap4\n      swap3\n      swap2\n      swap1\n      dup2\n      dup2\n      mstore\n      0x20\n      add\n      dup4\n      dup4\n        /* \"--CODEGEN--\":30:33   */\n      dup1\n        /* \"--CODEGEN--\":22:28   */\n      dup3\n        /* \"--CODEGEN--\":14:20   */\n      dup5\n        /* \"--CODEGEN--\":1:34   */\n      calldatacopy\n        /* \"--CODEGEN--\":99:100   */\n      0x00\n        /* \"--CODEGEN--\":93:96   */\n      dup2\n        /* \"--CODEGEN--\":85:91   */\n      dup5\n        /* \"--CODEGEN--\":81:97   */\n      add\n        /* \"--CODEGEN--\":74:101   */\n      mstore\n        /* \"--CODEGEN--\":137:141   */\n      0x1f\n        /* \"--CODEGEN--\":133:142   */\n      not\n        /* \"--CODEGEN--\":126:130   */\n      0x1f\n        /* \"--CODEGEN--\":121:124   */\n      dup3\n        /* \"--CODEGEN--\":117:131   */\n      add\n        /* \"--CODEGEN--\":113:143   */\n      and\n        /* \"--CODEGEN--\":106:143   */\n      swap1\n      pop\n        /* \"--CODEGEN--\":169:172   */\n      dup1\n        /* \"--CODEGEN--\":161:167   */\n      dup4\n        /* \"--CODEGEN--\":157:173   */\n      add\n        /* \"--CODEGEN--\":147:173   */\n      swap3\n      pop\n        /* \"EcoCapCoin.sol\":4025:4162  function getLocationOriginalCapacity(string memory loc) public view returns (uint256) {... */\n      pop\n      pop\n      pop\n      pop\n      pop\n      pop\n      swap2\n      swap3\n      swap2\n      swap3\n      swap1\n      pop\n      pop\n      pop\n      tag_137\n      jump\t// in\n    tag_132:\n      mload(0x40)\n      dup1\n      dup3\n      dup2\n      mstore\n      0x20\n      add\n      swap2\n      pop\n      pop\n      mload(0x40)\n      dup1\n      swap2\n      sub\n      swap1\n      return\n        /* \"Ownable.sol\":1767:1874   */\n    tag_30:\n      tag_138\n      0x04\n      dup1\n      calldatasize\n      sub\n        /* \"--CODEGEN--\":13:15   */\n      0x20\n        /* \"--CODEGEN--\":8:11   */\n      dup2\n        /* \"--CODEGEN--\":5:16   */\n      lt\n        /* \"--CODEGEN--\":2:4   */\n      iszero\n      tag_139\n      jumpi\n        /* \"--CODEGEN--\":29:30   */\n      0x00\n        /* \"--CODEGEN--\":26:27   */\n      dup1\n        /* \"--CODEGEN--\":19:31   */\n      revert\n        /* \"--CODEGEN--\":2:4   */\n    tag_139:\n        /* \"Ownable.sol\":1767:1874   */\n      dup2\n      add\n      swap1\n      dup1\n      dup1\n      calldataload\n      0xffffffffffffffffffffffffffffffffffffffff\n      and\n      swap1\n      0x20\n      add\n      swap1\n      swap3\n      swap2\n      swap1\n      pop\n      pop\n      pop\n      tag_140\n      jump\t// in\n    tag_138:\n      stop\n        /* \"EcoCapCoin.sol\":150:168  string public name */\n    tag_39:\n      0x04\n      dup1\n      sload\n      0x01\n      dup2\n      0x01\n      and\n      iszero\n      0x0100\n      mul\n      sub\n      and\n      0x02\n      swap1\n      div\n      dup1\n      0x1f\n      add\n      0x20\n      dup1\n      swap2\n      div\n      mul\n      0x20\n      add\n      mload(0x40)\n      swap1\n      dup2\n      add\n      0x40\n      mstore\n      dup1\n      swap3\n      swap2\n      swap1\n      dup2\n      dup2\n      mstore\n      0x20\n      add\n      dup3\n      dup1\n      sload\n      0x01\n      dup2\n      0x01\n      and\n      iszero\n      0x0100\n      mul\n      sub\n      and\n      0x02\n      swap1\n      div\n      dup1\n      iszero\n      tag_141\n      jumpi\n      dup1\n      0x1f\n      lt\n      tag_142\n      jumpi\n      0x0100\n      dup1\n      dup4\n      sload\n      div\n      mul\n      dup4\n      mstore\n      swap2\n      0x20\n      add\n      swap2\n      jump(tag_141)\n    tag_142:\n      dup3\n      add\n      swap2\n      swap1\n      0x00\n      mstore\n      keccak256(0x00, 0x20)\n      swap1\n    tag_143:\n      dup2\n      sload\n      dup2\n      mstore\n      swap1\n      0x01\n      add\n      swap1\n      0x20\n      add\n      dup1\n      dup4\n      gt\n      tag_143\n      jumpi\n      dup3\n      swap1\n      sub\n      0x1f\n      and\n      dup3\n      add\n      swap2\n    tag_141:\n      pop\n      pop\n      pop\n      pop\n      pop\n      dup2\n      jump\t// out\n        /* \"ERC20.sol\":2723:2868   */\n    tag_46:\n        /* \"ERC20.sol\":2788:2792   */\n      0x00\n        /* \"ERC20.sol\":2804:2840   */\n      tag_145\n        /* \"ERC20.sol\":2813:2823   */\n      caller\n        /* \"ERC20.sol\":2825:2832   */\n      dup5\n        /* \"ERC20.sol\":2834:2839   */\n      dup5\n        /* \"ERC20.sol\":2804:2812   */\n      tag_146\n        /* \"ERC20.sol\":2804:2840   */\n      jump\t// in\n    tag_145:\n        /* \"ERC20.sol\":2857:2861   */\n      0x01\n        /* \"ERC20.sol\":2850:2861   */\n      swap1\n      pop\n        /* \"ERC20.sol\":2723:2868   */\n      swap3\n      swap2\n      pop\n      pop\n      jump\t// out\n        /* \"ERC20.sol\":917:1006   */\n    tag_48:\n        /* \"ERC20.sol\":961:968   */\n      0x00\n        /* \"ERC20.sol\":987:999   */\n      sload(0x02)\n        /* \"ERC20.sol\":980:999   */\n      swap1\n      pop\n        /* \"ERC20.sol\":917:1006   */\n      swap1\n      jump\t// out\n        /* \"EcoCapCoin.sol\":2824:3357  function sensorAddPollution(uint256 pollution) public{... */\n    tag_51:\n        /* \"EcoCapCoin.sol\":2895:2902  sensors */\n      0x09\n        /* \"EcoCapCoin.sol\":2895:2914  sensors[msg.sender] */\n      0x00\n        /* \"EcoCapCoin.sol\":2903:2913  msg.sender */\n      caller\n        /* \"EcoCapCoin.sol\":2895:2914  sensors[msg.sender] */\n      0xffffffffffffffffffffffffffffffffffffffff\n      and\n      0xffffffffffffffffffffffffffffffffffffffff\n      and\n      dup2\n      mstore\n      0x20\n      add\n      swap1\n      dup2\n      mstore\n      0x20\n      add\n      0x00\n      keccak256\n        /* \"EcoCapCoin.sol\":2895:2923  sensors[msg.sender].isSensor */\n      0x00\n      add\n      0x00\n      swap1\n      sload\n      swap1\n      0x0100\n      exp\n      swap1\n      div\n      0xff\n      and\n        /* \"EcoCapCoin.sol\":2887:2924  require(sensors[msg.sender].isSensor) */\n      tag_149\n      jumpi\n      0x00\n      dup1\n      revert\n    tag_149:\n        /* \"EcoCapCoin.sol\":2934:2948  address polAdd */\n      0x00\n        /* \"EcoCapCoin.sol\":2951:2958  sensors */\n      0x09\n        /* \"EcoCapCoin.sol\":2951:2970  sensors[msg.sender] */\n      0x00\n        /* \"EcoCapCoin.sol\":2959:2969  msg.sender */\n      caller\n        /* \"EcoCapCoin.sol\":2951:2970  sensors[msg.sender] */\n      0xffffffffffffffffffffffffffffffffffffffff\n      and\n      0xffffffffffffffffffffffffffffffffffffffff\n      and\n      dup2\n      mstore\n      0x20\n      add\n      swap1\n      dup2\n      mstore\n      0x20\n      add\n      0x00\n      keccak256\n        /* \"EcoCapCoin.sol\":2951:2989  sensors[msg.sender].registeredPolluter */\n      0x00\n      add\n      0x01\n      swap1\n      sload\n      swap1\n      0x0100\n      exp\n      swap1\n      div\n      0xffffffffffffffffffffffffffffffffffffffff\n      and\n        /* \"EcoCapCoin.sol\":2934:2989  address polAdd = sensors[msg.sender].registeredPolluter */\n      swap1\n      pop\n        /* \"EcoCapCoin.sol\":2999:3019  polluter storage pol */\n      0x00\n        /* \"EcoCapCoin.sol\":3022:3031  polluters */\n      0x07\n        /* \"EcoCapCoin.sol\":3022:3039  polluters[polAdd] */\n      0x00\n        /* \"EcoCapCoin.sol\":3032:3038  polAdd */\n      dup4\n        /* \"EcoCapCoin.sol\":3022:3039  polluters[polAdd] */\n      0xffffffffffffffffffffffffffffffffffffffff\n      and\n      0xffffffffffffffffffffffffffffffffffffffff\n      and\n      dup2\n      mstore\n      0x20\n      add\n      swap1\n      dup2\n      mstore\n      0x20\n      add\n      0x00\n      keccak256\n        /* \"EcoCapCoin.sol\":2999:3039  polluter storage pol = polluters[polAdd] */\n      swap1\n      pop\n        /* \"EcoCapCoin.sol\":3080:3085  cycle */\n      sload(0x0a)\n        /* \"EcoCapCoin.sol\":3053:3056  pol */\n      dup2\n        /* \"EcoCapCoin.sol\":3053:3076  pol.lastRegisteredCycle */\n      0x04\n      add\n      sload\n        /* \"EcoCapCoin.sol\":3053:3085  pol.lastRegisteredCycle != cycle */\n      eq\n        /* \"EcoCapCoin.sol\":3050:3244  if(pol.lastRegisteredCycle != cycle){... */\n      tag_150\n      jumpi\n        /* \"EcoCapCoin.sol\":3126:3131  cycle */\n      sload(0x0a)\n        /* \"EcoCapCoin.sol\":3100:3103  pol */\n      dup2\n        /* \"EcoCapCoin.sol\":3100:3123  pol.lastRegisteredCycle */\n      0x04\n      add\n        /* \"EcoCapCoin.sol\":3100:3131  pol.lastRegisteredCycle = cycle */\n      dup2\n      swap1\n      sstore\n      pop\n        /* \"EcoCapCoin.sol\":3173:3176  pol */\n      dup1\n        /* \"EcoCapCoin.sol\":3173:3194  pol.pollutedThisCycle */\n      0x02\n      add\n      sload\n        /* \"EcoCapCoin.sol\":3145:3148  pol */\n      dup2\n        /* \"EcoCapCoin.sol\":3145:3170  pol.pollutedPreviousCycle */\n      0x03\n      add\n        /* \"EcoCapCoin.sol\":3145:3194  pol.pollutedPreviousCycle = pol.pollutedThisCycle */\n      dup2\n      swap1\n      sstore\n      pop\n        /* \"EcoCapCoin.sol\":3232:3233  0 */\n      0x00\n        /* \"EcoCapCoin.sol\":3208:3211  pol */\n      dup2\n        /* \"EcoCapCoin.sol\":3208:3229  pol.pollutedThisCycle */\n      0x02\n      add\n        /* \"EcoCapCoin.sol\":3208:3233  pol.pollutedThisCycle = 0 */\n      dup2\n      swap1\n      sstore\n      pop\n        /* \"EcoCapCoin.sol\":3050:3244  if(pol.lastRegisteredCycle != cycle){... */\n    tag_150:\n        /* \"EcoCapCoin.sol\":3278:3314  pol.pollutedThisCycle.add(pollution) */\n      tag_151\n        /* \"EcoCapCoin.sol\":3304:3313  pollution */\n      dup4\n        /* \"EcoCapCoin.sol\":3278:3281  pol */\n      dup3\n        /* \"EcoCapCoin.sol\":3278:3299  pol.pollutedThisCycle */\n      0x02\n      add\n      sload\n        /* \"EcoCapCoin.sol\":3278:3303  pol.pollutedThisCycle.add */\n      tag_152\n      swap1\n        /* \"EcoCapCoin.sol\":3278:3314  pol.pollutedThisCycle.add(pollution) */\n      swap2\n      swap1\n      0xffffffff\n      and\n      jump\t// in\n    tag_151:\n        /* \"EcoCapCoin.sol\":3254:3257  pol */\n      dup2\n        /* \"EcoCapCoin.sol\":3254:3275  pol.pollutedThisCycle */\n      0x02\n      add\n        /* \"EcoCapCoin.sol\":3254:3314  pol.pollutedThisCycle = pol.pollutedThisCycle.add(pollution) */\n      dup2\n      swap1\n      sstore\n      pop\n        /* \"EcoCapCoin.sol\":2824:3357  function sensorAddPollution(uint256 pollution) public{... */\n      pop\n      pop\n      pop\n      jump\t// out\n        /* \"EcoCapCoin.sol\":5825:7434  function transferFrom(address from, address to, uint256 value) public returns (bool) {... */\n    tag_54:\n        /* \"EcoCapCoin.sol\":5904:5908  bool */\n      0x00\n        /* \"EcoCapCoin.sol\":5920:5945  polluter storage receiver */\n      dup1\n        /* \"EcoCapCoin.sol\":5948:5957  polluters */\n      0x07\n        /* \"EcoCapCoin.sol\":5948:5961  polluters[to] */\n      0x00\n        /* \"EcoCapCoin.sol\":5958:5960  to */\n      dup6\n        /* \"EcoCapCoin.sol\":5948:5961  polluters[to] */\n      0xffffffffffffffffffffffffffffffffffffffff\n      and\n      0xffffffffffffffffffffffffffffffffffffffff\n      and\n      dup2\n      mstore\n      0x20\n      add\n      swap1\n      dup2\n      mstore\n      0x20\n      add\n      0x00\n      keccak256\n        /* \"EcoCapCoin.sol\":5920:5961  polluter storage receiver = polluters[to] */\n      swap1\n      pop\n        /* \"EcoCapCoin.sol\":5971:5994  polluter storage sender */\n      0x00\n        /* \"EcoCapCoin.sol\":5997:6006  polluters */\n      0x07\n        /* \"EcoCapCoin.sol\":5997:6018  polluters[msg.sender] */\n      0x00\n        /* \"EcoCapCoin.sol\":6007:6017  msg.sender */\n      caller\n        /* \"EcoCapCoin.sol\":5997:6018  polluters[msg.sender] */\n      0xffffffffffffffffffffffffffffffffffffffff\n      and\n      0xffffffffffffffffffffffffffffffffffffffff\n      and\n      dup2\n      mstore\n      0x20\n      add\n      swap1\n      dup2\n      mstore\n      0x20\n      add\n      0x00\n      keccak256\n        /* \"EcoCapCoin.sol\":5971:6018  polluter storage sender = polluters[msg.sender] */\n      swap1\n      pop\n        /* \"EcoCapCoin.sol\":6036:6044  receiver */\n      dup2\n        /* \"EcoCapCoin.sol\":6036:6056  receiver.hasLocation */\n      0x00\n      add\n      0x00\n      swap1\n      sload\n      swap1\n      0x0100\n      exp\n      swap1\n      div\n      0xff\n      and\n        /* \"EcoCapCoin.sol\":6028:6057  require(receiver.hasLocation) */\n      tag_154\n      jumpi\n      0x00\n      dup1\n      revert\n    tag_154:\n        /* \"EcoCapCoin.sol\":6109:6115  sender */\n      dup1\n        /* \"EcoCapCoin.sol\":6109:6127  sender.hasLocation */\n      0x00\n      add\n      0x00\n      swap1\n      sload\n      swap1\n      0x0100\n      exp\n      swap1\n      div\n      0xff\n      and\n        /* \"EcoCapCoin.sol\":6101:6128  require(sender.hasLocation) */\n      tag_155\n      jumpi\n      0x00\n      dup1\n      revert\n    tag_155:\n        /* \"EcoCapCoin.sol\":6170:6199  location storage receiver_loc */\n      0x00\n        /* \"EcoCapCoin.sol\":6202:6211  locations */\n      0x08\n        /* \"EcoCapCoin.sol\":6212:6220  receiver */\n      dup4\n        /* \"EcoCapCoin.sol\":6212:6229  receiver.location */\n      0x01\n      add\n        /* \"EcoCapCoin.sol\":6202:6230  locations[receiver.location] */\n      mload(0x40)\n      dup1\n      dup3\n      dup1\n      sload\n      0x01\n      dup2\n      0x01\n      and\n      iszero\n      0x0100\n      mul\n      sub\n      and\n      0x02\n      swap1\n      div\n      dup1\n      iszero\n      tag_156\n      jumpi\n      dup1\n      0x1f\n      lt\n      tag_157\n      jumpi\n      0x0100\n      dup1\n      dup4\n      sload\n      div\n      mul\n      dup4\n      mstore\n      swap2\n      dup3\n      add\n      swap2\n      jump(tag_156)\n    tag_157:\n      dup3\n      add\n      swap2\n      swap1\n      0x00\n      mstore\n      keccak256(0x00, 0x20)\n      swap1\n    tag_158:\n      dup2\n      sload\n      dup2\n      mstore\n      swap1\n      0x01\n      add\n      swap1\n      0x20\n      add\n      dup1\n      dup4\n      gt\n      tag_158\n      jumpi\n    tag_156:\n      pop\n      pop\n      swap2\n      pop\n      pop\n      swap1\n      dup2\n      mstore\n      0x20\n      add\n      mload(0x40)\n      dup1\n      swap2\n      sub\n      swap1\n      keccak256\n        /* \"EcoCapCoin.sol\":6170:6230  location storage receiver_loc = locations[receiver.location] */\n      swap1\n      pop\n        /* \"EcoCapCoin.sol\":6240:6267  location storage sender_loc */\n      0x00\n        /* \"EcoCapCoin.sol\":6270:6279  locations */\n      0x08\n        /* \"EcoCapCoin.sol\":6280:6286  sender */\n      dup4\n        /* \"EcoCapCoin.sol\":6280:6295  sender.location */\n      0x01\n      add\n        /* \"EcoCapCoin.sol\":6270:6296  locations[sender.location] */\n      mload(0x40)\n      dup1\n      dup3\n      dup1\n      sload\n      0x01\n      dup2\n      0x01\n      and\n      iszero\n      0x0100\n      mul\n      sub\n      and\n      0x02\n      swap1\n      div\n      dup1\n      iszero\n      tag_159\n      jumpi\n      dup1\n      0x1f\n      lt\n      tag_160\n      jumpi\n      0x0100\n      dup1\n      dup4\n      sload\n      div\n      mul\n      dup4\n      mstore\n      swap2\n      dup3\n      add\n      swap2\n      jump(tag_159)\n    tag_160:\n      dup3\n      add\n      swap2\n      swap1\n      0x00\n      mstore\n      keccak256(0x00, 0x20)\n      swap1\n    tag_161:\n      dup2\n      sload\n      dup2\n      mstore\n      swap1\n      0x01\n      add\n      swap1\n      0x20\n      add\n      dup1\n      dup4\n      gt\n      tag_161\n      jumpi\n    tag_159:\n      pop\n      pop\n      swap2\n      pop\n      pop\n      swap1\n      dup2\n      mstore\n      0x20\n      add\n      mload(0x40)\n      dup1\n      swap2\n      sub\n      swap1\n      keccak256\n        /* \"EcoCapCoin.sol\":6240:6296  location storage sender_loc = locations[sender.location] */\n      swap1\n      pop\n        /* \"EcoCapCoin.sol\":6351:6363  receiver_loc */\n      dup2\n        /* \"EcoCapCoin.sol\":6351:6372  receiver_loc.capacity */\n      0x00\n      add\n      sload\n        /* \"EcoCapCoin.sol\":6316:6347  receiver_loc.holding.add(value) */\n      tag_162\n        /* \"EcoCapCoin.sol\":6341:6346  value */\n      dup8\n        /* \"EcoCapCoin.sol\":6316:6328  receiver_loc */\n      dup5\n        /* \"EcoCapCoin.sol\":6316:6336  receiver_loc.holding */\n      0x01\n      add\n      sload\n        /* \"EcoCapCoin.sol\":6316:6340  receiver_loc.holding.add */\n      tag_152\n      swap1\n        /* \"EcoCapCoin.sol\":6316:6347  receiver_loc.holding.add(value) */\n      swap2\n      swap1\n      0xffffffff\n      and\n      jump\t// in\n    tag_162:\n        /* \"EcoCapCoin.sol\":6316:6372  receiver_loc.holding.add(value) <= receiver_loc.capacity */\n      gt\n      iszero\n        /* \"EcoCapCoin.sol\":6308:6373  require(receiver_loc.holding.add(value) <= receiver_loc.capacity) */\n      tag_163\n      jumpi\n      0x00\n      dup1\n      revert\n    tag_163:\n        /* \"EcoCapCoin.sol\":6458:6489  receiver_loc.holding.add(value) */\n      tag_164\n        /* \"EcoCapCoin.sol\":6483:6488  value */\n      dup7\n        /* \"EcoCapCoin.sol\":6458:6470  receiver_loc */\n      dup4\n        /* \"EcoCapCoin.sol\":6458:6478  receiver_loc.holding */\n      0x01\n      add\n      sload\n        /* \"EcoCapCoin.sol\":6458:6482  receiver_loc.holding.add */\n      tag_152\n      swap1\n        /* \"EcoCapCoin.sol\":6458:6489  receiver_loc.holding.add(value) */\n      swap2\n      swap1\n      0xffffffff\n      and\n      jump\t// in\n    tag_164:\n        /* \"EcoCapCoin.sol\":6435:6447  receiver_loc */\n      dup3\n        /* \"EcoCapCoin.sol\":6435:6455  receiver_loc.holding */\n      0x01\n      add\n        /* \"EcoCapCoin.sol\":6435:6489  receiver_loc.holding = receiver_loc.holding.add(value) */\n      dup2\n      swap1\n      sstore\n      pop\n        /* \"EcoCapCoin.sol\":6565:6594  sender_loc.holding.sub(value) */\n      tag_165\n        /* \"EcoCapCoin.sol\":6588:6593  value */\n      dup7\n        /* \"EcoCapCoin.sol\":6565:6575  sender_loc */\n      dup3\n        /* \"EcoCapCoin.sol\":6565:6583  sender_loc.holding */\n      0x01\n      add\n      sload\n        /* \"EcoCapCoin.sol\":6565:6587  sender_loc.holding.sub */\n      tag_166\n      swap1\n        /* \"EcoCapCoin.sol\":6565:6594  sender_loc.holding.sub(value) */\n      swap2\n      swap1\n      0xffffffff\n      and\n      jump\t// in\n    tag_165:\n        /* \"EcoCapCoin.sol\":6544:6554  sender_loc */\n      dup2\n        /* \"EcoCapCoin.sol\":6544:6562  sender_loc.holding */\n      0x01\n      add\n        /* \"EcoCapCoin.sol\":6544:6594  sender_loc.holding = sender_loc.holding.sub(value) */\n      dup2\n      swap1\n      sstore\n      pop\n        /* \"EcoCapCoin.sol\":6651:6686  super.transferFrom(from, to, value) */\n      tag_167\n        /* \"EcoCapCoin.sol\":6670:6674  from */\n      dup9\n        /* \"EcoCapCoin.sol\":6676:6678  to */\n      dup9\n        /* \"EcoCapCoin.sol\":6680:6685  value */\n      dup9\n        /* \"EcoCapCoin.sol\":6651:6669  super.transferFrom */\n      tag_168\n        /* \"EcoCapCoin.sol\":6651:6686  super.transferFrom(from, to, value) */\n      jump\t// in\n    tag_167:\n        /* \"EcoCapCoin.sol\":6644:6686  return super.transferFrom(from, to, value) */\n      swap5\n      pop\n      pop\n      pop\n      pop\n      pop\n        /* \"EcoCapCoin.sol\":5825:7434  function transferFrom(address from, address to, uint256 value) public returns (bool) {... */\n      swap4\n      swap3\n      pop\n      pop\n      pop\n      jump\t// out\n        /* \"EcoCapCoin.sol\":4299:4423  function getLocationHoldings(string memory loc) public view returns (uint256) {... */\n    tag_60:\n        /* \"EcoCapCoin.sol\":4368:4375  uint256 */\n      0x00\n        /* \"EcoCapCoin.sol\":4394:4403  locations */\n      0x08\n        /* \"EcoCapCoin.sol\":4404:4407  loc */\n      dup3\n        /* \"EcoCapCoin.sol\":4394:4408  locations[loc] */\n      mload(0x40)\n      dup1\n      dup3\n      dup1\n      mload\n      swap1\n      0x20\n      add\n      swap1\n      dup1\n      dup4\n      dup4\n        /* \"--CODEGEN--\":36:189   */\n    tag_170:\n        /* \"--CODEGEN--\":66:68   */\n      0x20\n        /* \"--CODEGEN--\":61:64   */\n      dup4\n        /* \"--CODEGEN--\":58:69   */\n      lt\n        /* \"--CODEGEN--\":36:189   */\n      tag_172\n      jumpi\n        /* \"--CODEGEN--\":182:185   */\n      dup1\n        /* \"--CODEGEN--\":176:186   */\n      mload\n        /* \"--CODEGEN--\":171:174   */\n      dup3\n        /* \"--CODEGEN--\":164:187   */\n      mstore\n        /* \"--CODEGEN--\":98:100   */\n      0x20\n        /* \"--CODEGEN--\":93:96   */\n      dup3\n        /* \"--CODEGEN--\":89:101   */\n      add\n        /* \"--CODEGEN--\":82:101   */\n      swap2\n      pop\n        /* \"--CODEGEN--\":123:125   */\n      0x20\n        /* \"--CODEGEN--\":118:121   */\n      dup2\n        /* \"--CODEGEN--\":114:126   */\n      add\n        /* \"--CODEGEN--\":107:126   */\n      swap1\n      pop\n        /* \"--CODEGEN--\":148:150   */\n      0x20\n        /* \"--CODEGEN--\":143:146   */\n      dup4\n        /* \"--CODEGEN--\":139:151   */\n      sub\n        /* \"--CODEGEN--\":132:151   */\n      swap3\n      pop\n        /* \"--CODEGEN--\":36:189   */\n      jump(tag_170)\n    tag_172:\n        /* \"--CODEGEN--\":274:275   */\n      0x01\n        /* \"--CODEGEN--\":267:270   */\n      dup4\n        /* \"--CODEGEN--\":263:265   */\n      0x20\n        /* \"--CODEGEN--\":259:271   */\n      sub\n        /* \"--CODEGEN--\":254:257   */\n      0x0100\n        /* \"--CODEGEN--\":250:272   */\n      exp\n        /* \"--CODEGEN--\":246:276   */\n      sub\n        /* \"--CODEGEN--\":315:319   */\n      dup1\n        /* \"--CODEGEN--\":311:320   */\n      not\n        /* \"--CODEGEN--\":305:308   */\n      dup3\n        /* \"--CODEGEN--\":299:309   */\n      mload\n        /* \"--CODEGEN--\":295:321   */\n      and\n        /* \"--CODEGEN--\":356:360   */\n      dup2\n        /* \"--CODEGEN--\":350:353   */\n      dup5\n        /* \"--CODEGEN--\":344:354   */\n      mload\n        /* \"--CODEGEN--\":340:361   */\n      and\n        /* \"--CODEGEN--\":389:396   */\n      dup1\n        /* \"--CODEGEN--\":380:387   */\n      dup3\n        /* \"--CODEGEN--\":377:397   */\n      or\n        /* \"--CODEGEN--\":372:375   */\n      dup6\n        /* \"--CODEGEN--\":365:398   */\n      mstore\n        /* \"--CODEGEN--\":3:402   */\n      pop\n      pop\n      pop\n        /* \"EcoCapCoin.sol\":4394:4408  locations[loc] */\n      pop\n      pop\n      pop\n      swap1\n      pop\n      add\n      swap2\n      pop\n      pop\n      swap1\n      dup2\n      mstore\n      0x20\n      add\n      mload(0x40)\n      dup1\n      swap2\n      sub\n      swap1\n      keccak256\n        /* \"EcoCapCoin.sol\":4394:4416  locations[loc].holding */\n      0x01\n      add\n      sload\n        /* \"EcoCapCoin.sol\":4387:4416  return locations[loc].holding */\n      swap1\n      pop\n        /* \"EcoCapCoin.sol\":4299:4423  function getLocationHoldings(string memory loc) public view returns (uint256) {... */\n      swap2\n      swap1\n      pop\n      jump\t// out\n        /* \"EcoCapCoin.sol\":174:195  uint8 public decimals */\n    tag_62:\n      0x05\n      0x00\n      swap1\n      sload\n      swap1\n      0x0100\n      exp\n      swap1\n      div\n      0xff\n      and\n      dup2\n      jump\t// out\n        /* \"EcoCapCoin.sol\":2183:2388  function register(address user, string memory loc) public onlyOwner{... */\n    tag_68:\n        /* \"Ownable.sol\":863:872   */\n      tag_174\n        /* \"Ownable.sol\":863:870   */\n      tag_110\n        /* \"Ownable.sol\":863:872   */\n      jump\t// in\n    tag_174:\n        /* \"Ownable.sol\":855:909   */\n      tag_175\n      jumpi\n      mload(0x40)\n      0x08c379a000000000000000000000000000000000000000000000000000000000\n      dup2\n      mstore\n      0x04\n      add\n      dup1\n      dup1\n      0x20\n      add\n      dup3\n      dup2\n      sub\n      dup3\n      mstore\n      0x20\n      dup2\n      mstore\n      0x20\n      add\n      dup1\n      0x4f776e61626c653a2063616c6c6572206973206e6f7420746865206f776e6572\n      dup2\n      mstore\n      pop\n      0x20\n      add\n      swap2\n      pop\n      pop\n      mload(0x40)\n      dup1\n      swap2\n      sub\n      swap1\n      revert\n    tag_175:\n        /* \"EcoCapCoin.sol\":2287:2290  loc */\n      dup1\n        /* \"EcoCapCoin.sol\":2260:2269  polluters */\n      0x07\n        /* \"EcoCapCoin.sol\":2260:2275  polluters[user] */\n      0x00\n        /* \"EcoCapCoin.sol\":2270:2274  user */\n      dup5\n        /* \"EcoCapCoin.sol\":2260:2275  polluters[user] */\n      0xffffffffffffffffffffffffffffffffffffffff\n      and\n      0xffffffffffffffffffffffffffffffffffffffff\n      and\n      dup2\n      mstore\n      0x20\n      add\n      swap1\n      dup2\n      mstore\n      0x20\n      add\n      0x00\n      keccak256\n        /* \"EcoCapCoin.sol\":2260:2284  polluters[user].location */\n      0x01\n      add\n        /* \"EcoCapCoin.sol\":2260:2290  polluters[user].location = loc */\n      swap1\n      dup1\n      mload\n      swap1\n      0x20\n      add\n      swap1\n      tag_177\n      swap3\n      swap2\n      swap1\n      tag_178\n      jump\t// in\n    tag_177:\n      pop\n        /* \"EcoCapCoin.sol\":2330:2334  true */\n      0x01\n        /* \"EcoCapCoin.sol\":2300:2309  polluters */\n      0x07\n        /* \"EcoCapCoin.sol\":2300:2315  polluters[user] */\n      0x00\n        /* \"EcoCapCoin.sol\":2310:2314  user */\n      dup5\n        /* \"EcoCapCoin.sol\":2300:2315  polluters[user] */\n      0xffffffffffffffffffffffffffffffffffffffff\n      and\n      0xffffffffffffffffffffffffffffffffffffffff\n      and\n      dup2\n      mstore\n      0x20\n      add\n      swap1\n      dup2\n      mstore\n      0x20\n      add\n      0x00\n      keccak256\n        /* \"EcoCapCoin.sol\":2300:2327  polluters[user].hasLocation */\n      0x00\n      add\n      0x00\n        /* \"EcoCapCoin.sol\":2300:2334  polluters[user].hasLocation = true */\n      0x0100\n      exp\n      dup2\n      sload\n      dup2\n      0xff\n      mul\n      not\n      and\n      swap1\n      dup4\n      iszero\n      iszero\n      mul\n      or\n      swap1\n      sstore\n      pop\n        /* \"EcoCapCoin.sol\":2380:2381  0 */\n      0x00\n        /* \"EcoCapCoin.sol\":2344:2353  polluters */\n      0x07\n        /* \"EcoCapCoin.sol\":2344:2359  polluters[user] */\n      0x00\n        /* \"EcoCapCoin.sol\":2354:2358  user */\n      dup5\n        /* \"EcoCapCoin.sol\":2344:2359  polluters[user] */\n      0xffffffffffffffffffffffffffffffffffffffff\n      and\n      0xffffffffffffffffffffffffffffffffffffffff\n      and\n      dup2\n      mstore\n      0x20\n      add\n      swap1\n      dup2\n      mstore\n      0x20\n      add\n      0x00\n      keccak256\n        /* \"EcoCapCoin.sol\":2344:2377  polluters[user].pollutedThisCycle */\n      0x02\n      add\n        /* \"EcoCapCoin.sol\":2344:2381  polluters[user].pollutedThisCycle = 0 */\n      dup2\n      swap1\n      sstore\n      pop\n        /* \"EcoCapCoin.sol\":2183:2388  function register(address user, string memory loc) public onlyOwner{... */\n      pop\n      pop\n      jump\t// out\n        /* \"ERC20.sol\":4069:4269   */\n    tag_71:\n        /* \"ERC20.sol\":4149:4153   */\n      0x00\n        /* \"ERC20.sol\":4165:4241   */\n      tag_180\n        /* \"ERC20.sol\":4174:4184   */\n      caller\n        /* \"ERC20.sol\":4186:4193   */\n      dup5\n        /* \"ERC20.sol\":4195:4240   */\n      tag_181\n        /* \"ERC20.sol\":4229:4239   */\n      dup6\n        /* \"ERC20.sol\":4195:4203   */\n      0x01\n        /* \"ERC20.sol\":4195:4215   */\n      0x00\n        /* \"ERC20.sol\":4204:4214   */\n      caller\n        /* \"ERC20.sol\":4195:4215   */\n      0xffffffffffffffffffffffffffffffffffffffff\n      and\n      0xffffffffffffffffffffffffffffffffffffffff\n      and\n      dup2\n      mstore\n      0x20\n      add\n      swap1\n      dup2\n      mstore\n      0x20\n      add\n      0x00\n      keccak256\n        /* \"ERC20.sol\":4195:4224   */\n      0x00\n        /* \"ERC20.sol\":4216:4223   */\n      dup10\n        /* \"ERC20.sol\":4195:4224   */\n      0xffffffffffffffffffffffffffffffffffffffff\n      and\n      0xffffffffffffffffffffffffffffffffffffffff\n      and\n      dup2\n      mstore\n      0x20\n      add\n      swap1\n      dup2\n      mstore\n      0x20\n      add\n      0x00\n      keccak256\n      sload\n        /* \"ERC20.sol\":4195:4228   */\n      tag_152\n      swap1\n        /* \"ERC20.sol\":4195:4240   */\n      swap2\n      swap1\n      0xffffffff\n      and\n      jump\t// in\n    tag_181:\n        /* \"ERC20.sol\":4165:4173   */\n      tag_146\n        /* \"ERC20.sol\":4165:4241   */\n      jump\t// in\n    tag_180:\n        /* \"ERC20.sol\":4258:4262   */\n      0x01\n        /* \"ERC20.sol\":4251:4262   */\n      swap1\n      pop\n        /* \"ERC20.sol\":4069:4269   */\n      swap3\n      swap2\n      pop\n      pop\n      jump\t// out\n        /* \"EcoCapCoin.sol\":7620:7997  function burn(uint256 value) public {... */\n    tag_74:\n        /* \"EcoCapCoin.sol\":7666:7689  polluter storage sender */\n      0x00\n        /* \"EcoCapCoin.sol\":7692:7701  polluters */\n      0x07\n        /* \"EcoCapCoin.sol\":7692:7713  polluters[msg.sender] */\n      0x00\n        /* \"EcoCapCoin.sol\":7702:7712  msg.sender */\n      caller\n        /* \"EcoCapCoin.sol\":7692:7713  polluters[msg.sender] */\n      0xffffffffffffffffffffffffffffffffffffffff\n      and\n      0xffffffffffffffffffffffffffffffffffffffff\n      and\n      dup2\n      mstore\n      0x20\n      add\n      swap1\n      dup2\n      mstore\n      0x20\n      add\n      0x00\n      keccak256\n        /* \"EcoCapCoin.sol\":7666:7713  polluter storage sender = polluters[msg.sender] */\n      swap1\n      pop\n        /* \"EcoCapCoin.sol\":7727:7733  sender */\n      dup1\n        /* \"EcoCapCoin.sol\":7727:7745  sender.hasLocation */\n      0x00\n      add\n      0x00\n      swap1\n      sload\n      swap1\n      0x0100\n      exp\n      swap1\n      div\n      0xff\n      and\n        /* \"EcoCapCoin.sol\":7724:7957  if(sender.hasLocation){... */\n      iszero\n      tag_183\n      jumpi\n        /* \"EcoCapCoin.sol\":7760:7787  location storage sender_loc */\n      0x00\n        /* \"EcoCapCoin.sol\":7790:7799  locations */\n      0x08\n        /* \"EcoCapCoin.sol\":7800:7806  sender */\n      dup3\n        /* \"EcoCapCoin.sol\":7800:7815  sender.location */\n      0x01\n      add\n        /* \"EcoCapCoin.sol\":7790:7816  locations[sender.location] */\n      mload(0x40)\n      dup1\n      dup3\n      dup1\n      sload\n      0x01\n      dup2\n      0x01\n      and\n      iszero\n      0x0100\n      mul\n      sub\n      and\n      0x02\n      swap1\n      div\n      dup1\n      iszero\n      tag_184\n      jumpi\n      dup1\n      0x1f\n      lt\n      tag_185\n      jumpi\n      0x0100\n      dup1\n      dup4\n      sload\n      div\n      mul\n      dup4\n      mstore\n      swap2\n      dup3\n      add\n      swap2\n      jump(tag_184)\n    tag_185:\n      dup3\n      add\n      swap2\n      swap1\n      0x00\n      mstore\n      keccak256(0x00, 0x20)\n      swap1\n    tag_186:\n      dup2\n      sload\n      dup2\n      mstore\n      swap1\n      0x01\n      add\n      swap1\n      0x20\n      add\n      dup1\n      dup4\n      gt\n      tag_186\n      jumpi\n    tag_184:\n      pop\n      pop\n      swap2\n      pop\n      pop\n      swap1\n      dup2\n      mstore\n      0x20\n      add\n      mload(0x40)\n      dup1\n      swap2\n      sub\n      swap1\n      keccak256\n        /* \"EcoCapCoin.sol\":7760:7816  location storage sender_loc = locations[sender.location] */\n      swap1\n      pop\n        /* \"EcoCapCoin.sol\":7851:7880  sender_loc.holding.sub(value) */\n      tag_187\n        /* \"EcoCapCoin.sol\":7874:7879  value */\n      dup4\n        /* \"EcoCapCoin.sol\":7851:7861  sender_loc */\n      dup3\n        /* \"EcoCapCoin.sol\":7851:7869  sender_loc.holding */\n      0x01\n      add\n      sload\n        /* \"EcoCapCoin.sol\":7851:7873  sender_loc.holding.sub */\n      tag_166\n      swap1\n        /* \"EcoCapCoin.sol\":7851:7880  sender_loc.holding.sub(value) */\n      swap2\n      swap1\n      0xffffffff\n      and\n      jump\t// in\n    tag_187:\n        /* \"EcoCapCoin.sol\":7830:7840  sender_loc */\n      dup2\n        /* \"EcoCapCoin.sol\":7830:7848  sender_loc.holding */\n      0x01\n      add\n        /* \"EcoCapCoin.sol\":7830:7880  sender_loc.holding = sender_loc.holding.sub(value) */\n      dup2\n      swap1\n      sstore\n      pop\n        /* \"EcoCapCoin.sol\":7916:7946  sender_loc.capacity.sub(value) */\n      tag_188\n        /* \"EcoCapCoin.sol\":7940:7945  value */\n      dup4\n        /* \"EcoCapCoin.sol\":7916:7926  sender_loc */\n      dup3\n        /* \"EcoCapCoin.sol\":7916:7935  sender_loc.capacity */\n      0x00\n      add\n      sload\n        /* \"EcoCapCoin.sol\":7916:7939  sender_loc.capacity.sub */\n      tag_166\n      swap1\n        /* \"EcoCapCoin.sol\":7916:7946  sender_loc.capacity.sub(value) */\n      swap2\n      swap1\n      0xffffffff\n      and\n      jump\t// in\n    tag_188:\n        /* \"EcoCapCoin.sol\":7894:7904  sender_loc */\n      dup2\n        /* \"EcoCapCoin.sol\":7894:7913  sender_loc.capacity */\n      0x00\n      add\n        /* \"EcoCapCoin.sol\":7894:7946  sender_loc.capacity = sender_loc.capacity.sub(value) */\n      dup2\n      swap1\n      sstore\n      pop\n        /* \"EcoCapCoin.sol\":7724:7957  if(sender.hasLocation){... */\n      pop\n    tag_183:\n        /* \"EcoCapCoin.sol\":7966:7990  _burn(msg.sender, value) */\n      tag_189\n        /* \"EcoCapCoin.sol\":7972:7982  msg.sender */\n      caller\n        /* \"EcoCapCoin.sol\":7984:7989  value */\n      dup4\n        /* \"EcoCapCoin.sol\":7966:7971  _burn */\n      tag_190\n        /* \"EcoCapCoin.sol\":7966:7990  _burn(msg.sender, value) */\n      jump\t// in\n    tag_189:\n        /* \"EcoCapCoin.sol\":7620:7997  function burn(uint256 value) public {... */\n      pop\n      pop\n      jump\t// out\n        /* \"EcoCapCoin.sol\":3896:4019  function getUserLocation(address user) public view returns (string memory) {... */\n    tag_77:\n        /* \"EcoCapCoin.sol\":3956:3969  string memory */\n      0x60\n        /* \"EcoCapCoin.sol\":3988:3997  polluters */\n      0x07\n        /* \"EcoCapCoin.sol\":3988:4003  polluters[user] */\n      0x00\n        /* \"EcoCapCoin.sol\":3998:4002  user */\n      dup4\n        /* \"EcoCapCoin.sol\":3988:4003  polluters[user] */\n      0xffffffffffffffffffffffffffffffffffffffff\n      and\n      0xffffffffffffffffffffffffffffffffffffffff\n      and\n      dup2\n      mstore\n      0x20\n      add\n      swap1\n      dup2\n      mstore\n      0x20\n      add\n      0x00\n      keccak256\n        /* \"EcoCapCoin.sol\":3988:4012  polluters[user].location */\n      0x01\n      add\n        /* \"EcoCapCoin.sol\":3981:4012  return polluters[user].location */\n      dup1\n      sload\n      0x01\n      dup2\n      0x01\n      and\n      iszero\n      0x0100\n      mul\n      sub\n      and\n      0x02\n      swap1\n      div\n      dup1\n      0x1f\n      add\n      0x20\n      dup1\n      swap2\n      div\n      mul\n      0x20\n      add\n      mload(0x40)\n      swap1\n      dup2\n      add\n      0x40\n      mstore\n      dup1\n      swap3\n      swap2\n      swap1\n      dup2\n      dup2\n      mstore\n      0x20\n      add\n      dup3\n      dup1\n      sload\n      0x01\n      dup2\n      0x01\n      and\n      iszero\n      0x0100\n      mul\n      sub\n      and\n      0x02\n      swap1\n      div\n      dup1\n      iszero\n      tag_192\n      jumpi\n      dup1\n      0x1f\n      lt\n      tag_193\n      jumpi\n      0x0100\n      dup1\n      dup4\n      sload\n      div\n      mul\n      dup4\n      mstore\n      swap2\n      0x20\n      add\n      swap2\n      jump(tag_192)\n    tag_193:\n      dup3\n      add\n      swap2\n      swap1\n      0x00\n      mstore\n      keccak256(0x00, 0x20)\n      swap1\n    tag_194:\n      dup2\n      sload\n      dup2\n      mstore\n      swap1\n      0x01\n      add\n      swap1\n      0x20\n      add\n      dup1\n      dup4\n      gt\n      tag_194\n      jumpi\n      dup3\n      swap1\n      sub\n      0x1f\n      and\n      dup3\n      add\n      swap2\n    tag_192:\n      pop\n      pop\n      pop\n      pop\n      pop\n      swap1\n      pop\n        /* \"EcoCapCoin.sol\":3896:4019  function getUserLocation(address user) public view returns (string memory) {... */\n      swap2\n      swap1\n      pop\n      jump\t// out\n        /* \"EcoCapCoin.sol\":4509:4806  function checkPolluterLimit(address pol) public view returns (uint256){... */\n    tag_84:\n        /* \"EcoCapCoin.sol\":4571:4578  uint256 */\n      0x00\n        /* \"EcoCapCoin.sol\":4589:4605  uint256 polluted */\n      dup1\n        /* \"EcoCapCoin.sol\":4615:4639  polluter memory poLEETer */\n      tag_196\n      tag_197\n      jump\t// in\n    tag_196:\n        /* \"EcoCapCoin.sol\":4642:4651  polluters */\n      0x07\n        /* \"EcoCapCoin.sol\":4642:4656  polluters[pol] */\n      0x00\n        /* \"EcoCapCoin.sol\":4652:4655  pol */\n      dup6\n        /* \"EcoCapCoin.sol\":4642:4656  polluters[pol] */\n      0xffffffffffffffffffffffffffffffffffffffff\n      and\n      0xffffffffffffffffffffffffffffffffffffffff\n      and\n      dup2\n      mstore\n      0x20\n      add\n      swap1\n      dup2\n      mstore\n      0x20\n      add\n      0x00\n      keccak256\n        /* \"EcoCapCoin.sol\":4615:4656  polluter memory poLEETer = polluters[pol] */\n      mload(0x40)\n      dup1\n      0xa0\n      add\n      0x40\n      mstore\n      swap1\n      dup2\n      0x00\n      dup3\n      add\n      0x00\n      swap1\n      sload\n      swap1\n      0x0100\n      exp\n      swap1\n      div\n      0xff\n      and\n      iszero\n      iszero\n      iszero\n      iszero\n      dup2\n      mstore\n      0x20\n      add\n      0x01\n      dup3\n      add\n      dup1\n      sload\n      0x01\n      dup2\n      0x01\n      and\n      iszero\n      0x0100\n      mul\n      sub\n      and\n      0x02\n      swap1\n      div\n      dup1\n      0x1f\n      add\n      0x20\n      dup1\n      swap2\n      div\n      mul\n      0x20\n      add\n      mload(0x40)\n      swap1\n      dup2\n      add\n      0x40\n      mstore\n      dup1\n      swap3\n      swap2\n      swap1\n      dup2\n      dup2\n      mstore\n      0x20\n      add\n      dup3\n      dup1\n      sload\n      0x01\n      dup2\n      0x01\n      and\n      iszero\n      0x0100\n      mul\n      sub\n      and\n      0x02\n      swap1\n      div\n      dup1\n      iszero\n      tag_198\n      jumpi\n      dup1\n      0x1f\n      lt\n      tag_199\n      jumpi\n      0x0100\n      dup1\n      dup4\n      sload\n      div\n      mul\n      dup4\n      mstore\n      swap2\n      0x20\n      add\n      swap2\n      jump(tag_198)\n    tag_199:\n      dup3\n      add\n      swap2\n      swap1\n      0x00\n      mstore\n      keccak256(0x00, 0x20)\n      swap1\n    tag_200:\n      dup2\n      sload\n      dup2\n      mstore\n      swap1\n      0x01\n      add\n      swap1\n      0x20\n      add\n      dup1\n      dup4\n      gt\n      tag_200\n      jumpi\n      dup3\n      swap1\n      sub\n      0x1f\n      and\n      dup3\n      add\n      swap2\n    tag_198:\n      pop\n      pop\n      pop\n      pop\n      pop\n      dup2\n      mstore\n      0x20\n      add\n      0x02\n      dup3\n      add\n      sload\n      dup2\n      mstore\n      0x20\n      add\n      0x03\n      dup3\n      add\n      sload\n      dup2\n      mstore\n      0x20\n      add\n      0x04\n      dup3\n      add\n      sload\n      dup2\n      mstore\n      pop\n      pop\n      swap1\n      pop\n        /* \"EcoCapCoin.sol\":4702:4707  cycle */\n      sload(0x0a)\n        /* \"EcoCapCoin.sol\":4670:4678  poLEETer */\n      dup2\n        /* \"EcoCapCoin.sol\":4670:4698  poLEETer.lastRegisteredCycle */\n      0x80\n      add\n      mload\n        /* \"EcoCapCoin.sol\":4670:4707  poLEETer.lastRegisteredCycle == cycle */\n      eq\n        /* \"EcoCapCoin.sol\":4667:4773  if(poLEETer.lastRegisteredCycle == cycle) polluted = poLEETer.pollutedThisCycle;... */\n      iszero\n      tag_201\n      jumpi\n        /* \"EcoCapCoin.sol\":4720:4728  poLEETer */\n      dup1\n        /* \"EcoCapCoin.sol\":4720:4746  poLEETer.pollutedThisCycle */\n      0x40\n      add\n      mload\n        /* \"EcoCapCoin.sol\":4709:4746  polluted = poLEETer.pollutedThisCycle */\n      swap2\n      pop\n        /* \"EcoCapCoin.sol\":4667:4773  if(poLEETer.lastRegisteredCycle == cycle) polluted = poLEETer.pollutedThisCycle;... */\n      jump(tag_202)\n    tag_201:\n        /* \"EcoCapCoin.sol\":4772:4773  0 */\n      0x00\n        /* \"EcoCapCoin.sol\":4761:4773  polluted = 0 */\n      swap2\n      pop\n        /* \"EcoCapCoin.sol\":4667:4773  if(poLEETer.lastRegisteredCycle == cycle) polluted = poLEETer.pollutedThisCycle;... */\n    tag_202:\n        /* \"EcoCapCoin.sol\":4791:4799  polluted */\n      dup2\n        /* \"EcoCapCoin.sol\":4784:4799  return polluted */\n      swap3\n      pop\n      pop\n      pop\n        /* \"EcoCapCoin.sol\":4509:4806  function checkPolluterLimit(address pol) public view returns (uint256){... */\n      swap2\n      swap1\n      pop\n      jump\t// out\n        /* \"EcoCapCoin.sol\":2394:2575  function setLocationCapacity(string memory loc, uint256 capacity) public onlyOwner{... */\n    tag_90:\n        /* \"Ownable.sol\":863:872   */\n      tag_204\n        /* \"Ownable.sol\":863:870   */\n      tag_110\n        /* \"Ownable.sol\":863:872   */\n      jump\t// in\n    tag_204:\n        /* \"Ownable.sol\":855:909   */\n      tag_205\n      jumpi\n      mload(0x40)\n      0x08c379a000000000000000000000000000000000000000000000000000000000\n      dup2\n      mstore\n      0x04\n      add\n      dup1\n      dup1\n      0x20\n      add\n      dup3\n      dup2\n      sub\n      dup3\n      mstore\n      0x20\n      dup2\n      mstore\n      0x20\n      add\n      dup1\n      0x4f776e61626c653a2063616c6c6572206973206e6f7420746865206f776e6572\n      dup2\n      mstore\n      pop\n      0x20\n      add\n      swap2\n      pop\n      pop\n      mload(0x40)\n      dup1\n      swap2\n      sub\n      swap1\n      revert\n    tag_205:\n        /* \"EcoCapCoin.sol\":2512:2520  capacity */\n      dup1\n        /* \"EcoCapCoin.sol\":2486:2495  locations */\n      0x08\n        /* \"EcoCapCoin.sol\":2496:2499  loc */\n      dup4\n        /* \"EcoCapCoin.sol\":2486:2500  locations[loc] */\n      mload(0x40)\n      dup1\n      dup3\n      dup1\n      mload\n      swap1\n      0x20\n      add\n      swap1\n      dup1\n      dup4\n      dup4\n        /* \"--CODEGEN--\":36:189   */\n    tag_207:\n        /* \"--CODEGEN--\":66:68   */\n      0x20\n        /* \"--CODEGEN--\":61:64   */\n      dup4\n        /* \"--CODEGEN--\":58:69   */\n      lt\n        /* \"--CODEGEN--\":36:189   */\n      tag_209\n      jumpi\n        /* \"--CODEGEN--\":182:185   */\n      dup1\n        /* \"--CODEGEN--\":176:186   */\n      mload\n        /* \"--CODEGEN--\":171:174   */\n      dup3\n        /* \"--CODEGEN--\":164:187   */\n      mstore\n        /* \"--CODEGEN--\":98:100   */\n      0x20\n        /* \"--CODEGEN--\":93:96   */\n      dup3\n        /* \"--CODEGEN--\":89:101   */\n      add\n        /* \"--CODEGEN--\":82:101   */\n      swap2\n      pop\n        /* \"--CODEGEN--\":123:125   */\n      0x20\n        /* \"--CODEGEN--\":118:121   */\n      dup2\n        /* \"--CODEGEN--\":114:126   */\n      add\n        /* \"--CODEGEN--\":107:126   */\n      swap1\n      pop\n        /* \"--CODEGEN--\":148:150   */\n      0x20\n        /* \"--CODEGEN--\":143:146   */\n      dup4\n        /* \"--CODEGEN--\":139:151   */\n      sub\n        /* \"--CODEGEN--\":132:151   */\n      swap3\n      pop\n        /* \"--CODEGEN--\":36:189   */\n      jump(tag_207)\n    tag_209:\n        /* \"--CODEGEN--\":274:275   */\n      0x01\n        /* \"--CODEGEN--\":267:270   */\n      dup4\n        /* \"--CODEGEN--\":263:265   */\n      0x20\n        /* \"--CODEGEN--\":259:271   */\n      sub\n        /* \"--CODEGEN--\":254:257   */\n      0x0100\n        /* \"--CODEGEN--\":250:272   */\n      exp\n        /* \"--CODEGEN--\":246:276   */\n      sub\n        /* \"--CODEGEN--\":315:319   */\n      dup1\n        /* \"--CODEGEN--\":311:320   */\n      not\n        /* \"--CODEGEN--\":305:308   */\n      dup3\n        /* \"--CODEGEN--\":299:309   */\n      mload\n        /* \"--CODEGEN--\":295:321   */\n      and\n        /* \"--CODEGEN--\":356:360   */\n      dup2\n        /* \"--CODEGEN--\":350:353   */\n      dup5\n        /* \"--CODEGEN--\":344:354   */\n      mload\n        /* \"--CODEGEN--\":340:361   */\n      and\n        /* \"--CODEGEN--\":389:396   */\n      dup1\n        /* \"--CODEGEN--\":380:387   */\n      dup3\n        /* \"--CODEGEN--\":377:397   */\n      or\n        /* \"--CODEGEN--\":372:375   */\n      dup6\n        /* \"--CODEGEN--\":365:398   */\n      mstore\n        /* \"--CODEGEN--\":3:402   */\n      pop\n      pop\n      pop\n        /* \"EcoCapCoin.sol\":2486:2500  locations[loc] */\n      pop\n      pop\n      pop\n      swap1\n      pop\n      add\n      swap2\n      pop\n      pop\n      swap1\n      dup2\n      mstore\n      0x20\n      add\n      mload(0x40)\n      dup1\n      swap2\n      sub\n      swap1\n      keccak256\n        /* \"EcoCapCoin.sol\":2486:2509  locations[loc].capacity */\n      0x00\n      add\n        /* \"EcoCapCoin.sol\":2486:2520  locations[loc].capacity = capacity */\n      dup2\n      swap1\n      sstore\n      pop\n        /* \"EcoCapCoin.sol\":2560:2568  capacity */\n      dup1\n        /* \"EcoCapCoin.sol\":2530:2539  locations */\n      0x08\n        /* \"EcoCapCoin.sol\":2540:2543  loc */\n      dup4\n        /* \"EcoCapCoin.sol\":2530:2544  locations[loc] */\n      mload(0x40)\n      dup1\n      dup3\n      dup1\n      mload\n      swap1\n      0x20\n      add\n      swap1\n      dup1\n      dup4\n      dup4\n        /* \"--CODEGEN--\":36:189   */\n    tag_210:\n        /* \"--CODEGEN--\":66:68   */\n      0x20\n        /* \"--CODEGEN--\":61:64   */\n      dup4\n        /* \"--CODEGEN--\":58:69   */\n      lt\n        /* \"--CODEGEN--\":36:189   */\n      tag_212\n      jumpi\n        /* \"--CODEGEN--\":182:185   */\n      dup1\n        /* \"--CODEGEN--\":176:186   */\n      mload\n        /* \"--CODEGEN--\":171:174   */\n      dup3\n        /* \"--CODEGEN--\":164:187   */\n      mstore\n        /* \"--CODEGEN--\":98:100   */\n      0x20\n        /* \"--CODEGEN--\":93:96   */\n      dup3\n        /* \"--CODEGEN--\":89:101   */\n      add\n        /* \"--CODEGEN--\":82:101   */\n      swap2\n      pop\n        /* \"--CODEGEN--\":123:125   */\n      0x20\n        /* \"--CODEGEN--\":118:121   */\n      dup2\n        /* \"--CODEGEN--\":114:126   */\n      add\n        /* \"--CODEGEN--\":107:126   */\n      swap1\n      pop\n        /* \"--CODEGEN--\":148:150   */\n      0x20\n        /* \"--CODEGEN--\":143:146   */\n      dup4\n        /* \"--CODEGEN--\":139:151   */\n      sub\n        /* \"--CODEGEN--\":132:151   */\n      swap3\n      pop\n        /* \"--CODEGEN--\":36:189   */\n      jump(tag_210)\n    tag_212:\n        /* \"--CODEGEN--\":274:275   */\n      0x01\n        /* \"--CODEGEN--\":267:270   */\n      dup4\n        /* \"--CODEGEN--\":263:265   */\n      0x20\n        /* \"--CODEGEN--\":259:271   */\n      sub\n        /* \"--CODEGEN--\":254:257   */\n      0x0100\n        /* \"--CODEGEN--\":250:272   */\n      exp\n        /* \"--CODEGEN--\":246:276   */\n      sub\n        /* \"--CODEGEN--\":315:319   */\n      dup1\n        /* \"--CODEGEN--\":311:320   */\n      not\n        /* \"--CODEGEN--\":305:308   */\n      dup3\n        /* \"--CODEGEN--\":299:309   */\n      mload\n        /* \"--CODEGEN--\":295:321   */\n      and\n        /* \"--CODEGEN--\":356:360   */\n      dup2\n        /* \"--CODEGEN--\":350:353   */\n      dup5\n        /* \"--CODEGEN--\":344:354   */\n      mload\n        /* \"--CODEGEN--\":340:361   */\n      and\n        /* \"--CODEGEN--\":389:396   */\n      dup1\n        /* \"--CODEGEN--\":380:387   */\n      dup3\n        /* \"--CODEGEN--\":377:397   */\n      or\n        /* \"--CODEGEN--\":372:375   */\n      dup6\n        /* \"--CODEGEN--\":365:398   */\n      mstore\n        /* \"--CODEGEN--\":3:402   */\n      pop\n      pop\n      pop\n        /* \"EcoCapCoin.sol\":2530:2544  locations[loc] */\n      pop\n      pop\n      pop\n      swap1\n      pop\n      add\n      swap2\n      pop\n      pop\n      swap1\n      dup2\n      mstore\n      0x20\n      add\n      mload(0x40)\n      dup1\n      swap2\n      sub\n      swap1\n      keccak256\n        /* \"EcoCapCoin.sol\":2530:2557  locations[loc].original_cap */\n      0x02\n      add\n        /* \"EcoCapCoin.sol\":2530:2568  locations[loc].original_cap = capacity */\n      dup2\n      swap1\n      sstore\n      pop\n        /* \"EcoCapCoin.sol\":2394:2575  function setLocationCapacity(string memory loc, uint256 capacity) public onlyOwner{... */\n      pop\n      pop\n      jump\t// out\n        /* \"EcoCapCoin.sol\":2581:2651  function nextCycle() public onlyOwner{... */\n    tag_92:\n        /* \"Ownable.sol\":863:872   */\n      tag_214\n        /* \"Ownable.sol\":863:870   */\n      tag_110\n        /* \"Ownable.sol\":863:872   */\n      jump\t// in\n    tag_214:\n        /* \"Ownable.sol\":855:909   */\n      tag_215\n      jumpi\n      mload(0x40)\n      0x08c379a000000000000000000000000000000000000000000000000000000000\n      dup2\n      mstore\n      0x04\n      add\n      dup1\n      dup1\n      0x20\n      add\n      dup3\n      dup2\n      sub\n      dup3\n      mstore\n      0x20\n      dup2\n      mstore\n      0x20\n      add\n      dup1\n      0x4f776e61626c653a2063616c6c6572206973206e6f7420746865206f776e6572\n      dup2\n      mstore\n      pop\n      0x20\n      add\n      swap2\n      pop\n      pop\n      mload(0x40)\n      dup1\n      swap2\n      sub\n      swap1\n      revert\n    tag_215:\n        /* \"EcoCapCoin.sol\":2643:2644  1 */\n      0x01\n        /* \"EcoCapCoin.sol\":2636:2641  cycle */\n      sload(0x0a)\n        /* \"EcoCapCoin.sol\":2636:2644  cycle +1 */\n      add\n        /* \"EcoCapCoin.sol\":2628:2633  cycle */\n      0x0a\n        /* \"EcoCapCoin.sol\":2628:2644  cycle = cycle +1 */\n      dup2\n      swap1\n      sstore\n      pop\n        /* \"EcoCapCoin.sol\":2581:2651  function nextCycle() public onlyOwner{... */\n      jump\t// out\n        /* \"ERC20.sol\":1218:1322   */\n    tag_95:\n        /* \"ERC20.sol\":1273:1280   */\n      0x00\n        /* \"ERC20.sol\":1299:1308   */\n      dup1\n        /* \"ERC20.sol\":1299:1315   */\n      0x00\n        /* \"ERC20.sol\":1309:1314   */\n      dup4\n        /* \"ERC20.sol\":1299:1315   */\n      0xffffffffffffffffffffffffffffffffffffffff\n      and\n      0xffffffffffffffffffffffffffffffffffffffff\n      and\n      dup2\n      mstore\n      0x20\n      add\n      swap1\n      dup2\n      mstore\n      0x20\n      add\n      0x00\n      keccak256\n      sload\n        /* \"ERC20.sol\":1292:1315   */\n      swap1\n      pop\n        /* \"ERC20.sol\":1218:1322   */\n      swap2\n      swap1\n      pop\n      jump\t// out\n        /* \"Ownable.sol\":1459:1596   */\n    tag_97:\n        /* \"Ownable.sol\":863:872   */\n      tag_219\n        /* \"Ownable.sol\":863:870   */\n      tag_110\n        /* \"Ownable.sol\":863:872   */\n      jump\t// in\n    tag_219:\n        /* \"Ownable.sol\":855:909   */\n      tag_220\n      jumpi\n      mload(0x40)\n      0x08c379a000000000000000000000000000000000000000000000000000000000\n      dup2\n      mstore\n      0x04\n      add\n      dup1\n      dup1\n      0x20\n      add\n      dup3\n      dup2\n      sub\n      dup3\n      mstore\n      0x20\n      dup2\n      mstore\n      0x20\n      add\n      dup1\n      0x4f776e61626c653a2063616c6c6572206973206e6f7420746865206f776e6572\n      dup2\n      mstore\n      pop\n      0x20\n      add\n      swap2\n      pop\n      pop\n      mload(0x40)\n      dup1\n      swap2\n      sub\n      swap1\n      revert\n    tag_220:\n        /* \"Ownable.sol\":1557:1558   */\n      0x00\n        /* \"Ownable.sol\":1520:1560   */\n      0xffffffffffffffffffffffffffffffffffffffff\n      and\n        /* \"Ownable.sol\":1541:1547   */\n      0x03\n      0x00\n      swap1\n      sload\n      swap1\n      0x0100\n      exp\n      swap1\n      div\n      0xffffffffffffffffffffffffffffffffffffffff\n      and\n        /* \"Ownable.sol\":1520:1560   */\n      0xffffffffffffffffffffffffffffffffffffffff\n      and\n      0x8be0079c531659141344cd1fd0a4f28419497f9722a3daafe3b4186f6b6457e0\n      mload(0x40)\n      mload(0x40)\n      dup1\n      swap2\n      sub\n      swap1\n      log3\n        /* \"Ownable.sol\":1587:1588   */\n      0x00\n        /* \"Ownable.sol\":1570:1576   */\n      0x03\n      0x00\n        /* \"Ownable.sol\":1570:1589   */\n      0x0100\n      exp\n      dup2\n      sload\n      dup2\n      0xffffffffffffffffffffffffffffffffffffffff\n      mul\n      not\n      and\n      swap1\n      dup4\n      0xffffffffffffffffffffffffffffffffffffffff\n      and\n      mul\n      or\n      swap1\n      sstore\n      pop\n        /* \"Ownable.sol\":1459:1596   */\n      jump\t// out\n        /* \"EcoCapCoin.sol\":8003:8390  function burnFrom(address from, uint256 value) public {... */\n    tag_100:\n        /* \"EcoCapCoin.sol\":8067:8090  polluter storage sender */\n      0x00\n        /* \"EcoCapCoin.sol\":8093:8102  polluters */\n      0x07\n        /* \"EcoCapCoin.sol\":8093:8108  polluters[from] */\n      0x00\n        /* \"EcoCapCoin.sol\":8103:8107  from */\n      dup5\n        /* \"EcoCapCoin.sol\":8093:8108  polluters[from] */\n      0xffffffffffffffffffffffffffffffffffffffff\n      and\n      0xffffffffffffffffffffffffffffffffffffffff\n      and\n      dup2\n      mstore\n      0x20\n      add\n      swap1\n      dup2\n      mstore\n      0x20\n      add\n      0x00\n      keccak256\n        /* \"EcoCapCoin.sol\":8067:8108  polluter storage sender = polluters[from] */\n      swap1\n      pop\n        /* \"EcoCapCoin.sol\":8122:8128  sender */\n      dup1\n        /* \"EcoCapCoin.sol\":8122:8140  sender.hasLocation */\n      0x00\n      add\n      0x00\n      swap1\n      sload\n      swap1\n      0x0100\n      exp\n      swap1\n      div\n      0xff\n      and\n        /* \"EcoCapCoin.sol\":8119:8352  if(sender.hasLocation){... */\n      iszero\n      tag_223\n      jumpi\n        /* \"EcoCapCoin.sol\":8155:8182  location storage sender_loc */\n      0x00\n        /* \"EcoCapCoin.sol\":8185:8194  locations */\n      0x08\n        /* \"EcoCapCoin.sol\":8195:8201  sender */\n      dup3\n        /* \"EcoCapCoin.sol\":8195:8210  sender.location */\n      0x01\n      add\n        /* \"EcoCapCoin.sol\":8185:8211  locations[sender.location] */\n      mload(0x40)\n      dup1\n      dup3\n      dup1\n      sload\n      0x01\n      dup2\n      0x01\n      and\n      iszero\n      0x0100\n      mul\n      sub\n      and\n      0x02\n      swap1\n      div\n      dup1\n      iszero\n      tag_224\n      jumpi\n      dup1\n      0x1f\n      lt\n      tag_225\n      jumpi\n      0x0100\n      dup1\n      dup4\n      sload\n      div\n      mul\n      dup4\n      mstore\n      swap2\n      dup3\n      add\n      swap2\n      jump(tag_224)\n    tag_225:\n      dup3\n      add\n      swap2\n      swap1\n      0x00\n      mstore\n      keccak256(0x00, 0x20)\n      swap1\n    tag_226:\n      dup2\n      sload\n      dup2\n      mstore\n      swap1\n      0x01\n      add\n      swap1\n      0x20\n      add\n      dup1\n      dup4\n      gt\n      tag_226\n      jumpi\n    tag_224:\n      pop\n      pop\n      swap2\n      pop\n      pop\n      swap1\n      dup2\n      mstore\n      0x20\n      add\n      mload(0x40)\n      dup1\n      swap2\n      sub\n      swap1\n      keccak256\n        /* \"EcoCapCoin.sol\":8155:8211  location storage sender_loc = locations[sender.location] */\n      swap1\n      pop\n        /* \"EcoCapCoin.sol\":8246:8275  sender_loc.holding.sub(value) */\n      tag_227\n        /* \"EcoCapCoin.sol\":8269:8274  value */\n      dup4\n        /* \"EcoCapCoin.sol\":8246:8256  sender_loc */\n      dup3\n        /* \"EcoCapCoin.sol\":8246:8264  sender_loc.holding */\n      0x01\n      add\n      sload\n        /* \"EcoCapCoin.sol\":8246:8268  sender_loc.holding.sub */\n      tag_166\n      swap1\n        /* \"EcoCapCoin.sol\":8246:8275  sender_loc.holding.sub(value) */\n      swap2\n      swap1\n      0xffffffff\n      and\n      jump\t// in\n    tag_227:\n        /* \"EcoCapCoin.sol\":8225:8235  sender_loc */\n      dup2\n        /* \"EcoCapCoin.sol\":8225:8243  sender_loc.holding */\n      0x01\n      add\n        /* \"EcoCapCoin.sol\":8225:8275  sender_loc.holding = sender_loc.holding.sub(value) */\n      dup2\n      swap1\n      sstore\n      pop\n        /* \"EcoCapCoin.sol\":8311:8341  sender_loc.capacity.sub(value) */\n      tag_228\n        /* \"EcoCapCoin.sol\":8335:8340  value */\n      dup4\n        /* \"EcoCapCoin.sol\":8311:8321  sender_loc */\n      dup3\n        /* \"EcoCapCoin.sol\":8311:8330  sender_loc.capacity */\n      0x00\n      add\n      sload\n        /* \"EcoCapCoin.sol\":8311:8334  sender_loc.capacity.sub */\n      tag_166\n      swap1\n        /* \"EcoCapCoin.sol\":8311:8341  sender_loc.capacity.sub(value) */\n      swap2\n      swap1\n      0xffffffff\n      and\n      jump\t// in\n    tag_228:\n        /* \"EcoCapCoin.sol\":8289:8299  sender_loc */\n      dup2\n        /* \"EcoCapCoin.sol\":8289:8308  sender_loc.capacity */\n      0x00\n      add\n        /* \"EcoCapCoin.sol\":8289:8341  sender_loc.capacity = sender_loc.capacity.sub(value) */\n      dup2\n      swap1\n      sstore\n      pop\n        /* \"EcoCapCoin.sol\":8119:8352  if(sender.hasLocation){... */\n      pop\n    tag_223:\n        /* \"EcoCapCoin.sol\":8361:8383  _burnFrom(from, value) */\n      tag_229\n        /* \"EcoCapCoin.sol\":8371:8375  from */\n      dup4\n        /* \"EcoCapCoin.sol\":8377:8382  value */\n      dup4\n        /* \"EcoCapCoin.sol\":8361:8370  _burnFrom */\n      tag_230\n        /* \"EcoCapCoin.sol\":8361:8383  _burnFrom(from, value) */\n      jump\t// in\n    tag_229:\n        /* \"EcoCapCoin.sol\":8003:8390  function burnFrom(address from, uint256 value) public {... */\n      pop\n      pop\n      pop\n      jump\t// out\n        /* \"EcoCapCoin.sol\":4168:4293  function getLocationCapacity(string memory loc) public view returns (uint256) {... */\n    tag_106:\n        /* \"EcoCapCoin.sol\":4237:4244  uint256 */\n      0x00\n        /* \"EcoCapCoin.sol\":4263:4272  locations */\n      0x08\n        /* \"EcoCapCoin.sol\":4273:4276  loc */\n      dup3\n        /* \"EcoCapCoin.sol\":4263:4277  locations[loc] */\n      mload(0x40)\n      dup1\n      dup3\n      dup1\n      mload\n      swap1\n      0x20\n      add\n      swap1\n      dup1\n      dup4\n      dup4\n        /* \"--CODEGEN--\":36:189   */\n    tag_232:\n        /* \"--CODEGEN--\":66:68   */\n      0x20\n        /* \"--CODEGEN--\":61:64   */\n      dup4\n        /* \"--CODEGEN--\":58:69   */\n      lt\n        /* \"--CODEGEN--\":36:189   */\n      tag_234\n      jumpi\n        /* \"--CODEGEN--\":182:185   */\n      dup1\n        /* \"--CODEGEN--\":176:186   */\n      mload\n        /* \"--CODEGEN--\":171:174   */\n      dup3\n        /* \"--CODEGEN--\":164:187   */\n      mstore\n        /* \"--CODEGEN--\":98:100   */\n      0x20\n        /* \"--CODEGEN--\":93:96   */\n      dup3\n        /* \"--CODEGEN--\":89:101   */\n      add\n        /* \"--CODEGEN--\":82:101   */\n      swap2\n      pop\n        /* \"--CODEGEN--\":123:125   */\n      0x20\n        /* \"--CODEGEN--\":118:121   */\n      dup2\n        /* \"--CODEGEN--\":114:126   */\n      add\n        /* \"--CODEGEN--\":107:126   */\n      swap1\n      pop\n        /* \"--CODEGEN--\":148:150   */\n      0x20\n        /* \"--CODEGEN--\":143:146   */\n      dup4\n        /* \"--CODEGEN--\":139:151   */\n      sub\n        /* \"--CODEGEN--\":132:151   */\n      swap3\n      pop\n        /* \"--CODEGEN--\":36:189   */\n      jump(tag_232)\n    tag_234:\n        /* \"--CODEGEN--\":274:275   */\n      0x01\n        /* \"--CODEGEN--\":267:270   */\n      dup4\n        /* \"--CODEGEN--\":263:265   */\n      0x20\n        /* \"--CODEGEN--\":259:271   */\n      sub\n        /* \"--CODEGEN--\":254:257   */\n      0x0100\n        /* \"--CODEGEN--\":250:272   */\n      exp\n        /* \"--CODEGEN--\":246:276   */\n      sub\n        /* \"--CODEGEN--\":315:319   */\n      dup1\n        /* \"--CODEGEN--\":311:320   */\n      not\n        /* \"--CODEGEN--\":305:308   */\n      dup3\n        /* \"--CODEGEN--\":299:309   */\n      mload\n        /* \"--CODEGEN--\":295:321   */\n      and\n        /* \"--CODEGEN--\":356:360   */\n      dup2\n        /* \"--CODEGEN--\":350:353   */\n      dup5\n        /* \"--CODEGEN--\":344:354   */\n      mload\n        /* \"--CODEGEN--\":340:361   */\n      and\n        /* \"--CODEGEN--\":389:396   */\n      dup1\n        /* \"--CODEGEN--\":380:387   */\n      dup3\n        /* \"--CODEGEN--\":377:397   */\n      or\n        /* \"--CODEGEN--\":372:375   */\n      dup6\n        /* \"--CODEGEN--\":365:398   */\n      mstore\n        /* \"--CODEGEN--\":3:402   */\n      pop\n      pop\n      pop\n        /* \"EcoCapCoin.sol\":4263:4277  locations[loc] */\n      pop\n      pop\n      pop\n      swap1\n      pop\n      add\n      swap2\n      pop\n      pop\n      swap1\n      dup2\n      mstore\n      0x20\n      add\n      mload(0x40)\n      dup1\n      swap2\n      sub\n      swap1\n      keccak256\n        /* \"EcoCapCoin.sol\":4263:4286  locations[loc].capacity */\n      0x00\n      add\n      sload\n        /* \"EcoCapCoin.sol\":4256:4286  return locations[loc].capacity */\n      swap1\n      pop\n        /* \"EcoCapCoin.sol\":4168:4293  function getLocationCapacity(string memory loc) public view returns (uint256) {... */\n      swap2\n      swap1\n      pop\n      jump\t// out\n        /* \"Ownable.sol\":659:736   */\n    tag_108:\n        /* \"Ownable.sol\":697:704   */\n      0x00\n        /* \"Ownable.sol\":723:729   */\n      0x03\n      0x00\n      swap1\n      sload\n      swap1\n      0x0100\n      exp\n      swap1\n      div\n      0xffffffffffffffffffffffffffffffffffffffff\n      and\n        /* \"Ownable.sol\":716:729   */\n      swap1\n      pop\n        /* \"Ownable.sol\":659:736   */\n      swap1\n      jump\t// out\n        /* \"Ownable.sol\":1015:1105   */\n    tag_110:\n        /* \"Ownable.sol\":1055:1059   */\n      0x00\n        /* \"Ownable.sol\":1092:1098   */\n      0x03\n      0x00\n      swap1\n      sload\n      swap1\n      0x0100\n      exp\n      swap1\n      div\n      0xffffffffffffffffffffffffffffffffffffffff\n      and\n        /* \"Ownable.sol\":1078:1098   */\n      0xffffffffffffffffffffffffffffffffffffffff\n      and\n        /* \"Ownable.sol\":1078:1088   */\n      caller\n        /* \"Ownable.sol\":1078:1098   */\n      0xffffffffffffffffffffffffffffffffffffffff\n      and\n      eq\n        /* \"Ownable.sol\":1071:1098   */\n      swap1\n      pop\n        /* \"Ownable.sol\":1015:1105   */\n      swap1\n      jump\t// out\n        /* \"EcoCapCoin.sol\":201:221  string public symbol */\n    tag_112:\n      0x06\n      dup1\n      sload\n      0x01\n      dup2\n      0x01\n      and\n      iszero\n      0x0100\n      mul\n      sub\n      and\n      0x02\n      swap1\n      div\n      dup1\n      0x1f\n      add\n      0x20\n      dup1\n      swap2\n      div\n      mul\n      0x20\n      add\n      mload(0x40)\n      swap1\n      dup2\n      add\n      0x40\n      mstore\n      dup1\n      swap3\n      swap2\n      swap1\n      dup2\n      dup2\n      mstore\n      0x20\n      add\n      dup3\n      dup1\n      sload\n      0x01\n      dup2\n      0x01\n      and\n      iszero\n      0x0100\n      mul\n      sub\n      and\n      0x02\n      swap1\n      div\n      dup1\n      iszero\n      tag_237\n      jumpi\n      dup1\n      0x1f\n      lt\n      tag_238\n      jumpi\n      0x0100\n      dup1\n      dup4\n      sload\n      div\n      mul\n      dup4\n      mstore\n      swap2\n      0x20\n      add\n      swap2\n      jump(tag_237)\n    tag_238:\n      dup3\n      add\n      swap2\n      swap1\n      0x00\n      mstore\n      keccak256(0x00, 0x20)\n      swap1\n    tag_239:\n      dup2\n      sload\n      dup2\n      mstore\n      swap1\n      0x01\n      add\n      swap1\n      0x20\n      add\n      dup1\n      dup4\n      gt\n      tag_239\n      jumpi\n      dup3\n      swap1\n      sub\n      0x1f\n      and\n      dup3\n      add\n      swap2\n    tag_237:\n      pop\n      pop\n      pop\n      pop\n      pop\n      dup2\n      jump\t// out\n        /* \"ERC20.sol\":4788:4998   */\n    tag_119:\n        /* \"ERC20.sol\":4873:4877   */\n      0x00\n        /* \"ERC20.sol\":4889:4970   */\n      tag_241\n        /* \"ERC20.sol\":4898:4908   */\n      caller\n        /* \"ERC20.sol\":4910:4917   */\n      dup5\n        /* \"ERC20.sol\":4919:4969   */\n      tag_242\n        /* \"ERC20.sol\":4953:4968   */\n      dup6\n        /* \"ERC20.sol\":4919:4927   */\n      0x01\n        /* \"ERC20.sol\":4919:4939   */\n      0x00\n        /* \"ERC20.sol\":4928:4938   */\n      caller\n        /* \"ERC20.sol\":4919:4939   */\n      0xffffffffffffffffffffffffffffffffffffffff\n      and\n      0xffffffffffffffffffffffffffffffffffffffff\n      and\n      dup2\n      mstore\n      0x20\n      add\n      swap1\n      dup2\n      mstore\n      0x20\n      add\n      0x00\n      keccak256\n        /* \"ERC20.sol\":4919:4948   */\n      0x00\n        /* \"ERC20.sol\":4940:4947   */\n      dup10\n        /* \"ERC20.sol\":4919:4948   */\n      0xffffffffffffffffffffffffffffffffffffffff\n      and\n      0xffffffffffffffffffffffffffffffffffffffff\n      and\n      dup2\n      mstore\n      0x20\n      add\n      swap1\n      dup2\n      mstore\n      0x20\n      add\n      0x00\n      keccak256\n      sload\n        /* \"ERC20.sol\":4919:4952   */\n      tag_166\n      swap1\n        /* \"ERC20.sol\":4919:4969   */\n      swap2\n      swap1\n      0xffffffff\n      and\n      jump\t// in\n    tag_242:\n        /* \"ERC20.sol\":4889:4897   */\n      tag_146\n        /* \"ERC20.sol\":4889:4970   */\n      jump\t// in\n    tag_241:\n        /* \"ERC20.sol\":4987:4991   */\n      0x01\n        /* \"ERC20.sol\":4980:4991   */\n      swap1\n      pop\n        /* \"ERC20.sol\":4788:4998   */\n      swap3\n      swap2\n      pop\n      pop\n      jump\t// out\n        /* \"EcoCapCoin.sol\":4938:5819  function transfer(address to, uint256 value) public returns(bool){... */\n    tag_122:\n        /* \"EcoCapCoin.sol\":4998:5002  bool */\n      0x00\n        /* \"EcoCapCoin.sol\":5013:5038  polluter storage receiver */\n      dup1\n        /* \"EcoCapCoin.sol\":5041:5050  polluters */\n      0x07\n        /* \"EcoCapCoin.sol\":5041:5054  polluters[to] */\n      0x00\n        /* \"EcoCapCoin.sol\":5051:5053  to */\n      dup6\n        /* \"EcoCapCoin.sol\":5041:5054  polluters[to] */\n      0xffffffffffffffffffffffffffffffffffffffff\n      and\n      0xffffffffffffffffffffffffffffffffffffffff\n      and\n      dup2\n      mstore\n      0x20\n      add\n      swap1\n      dup2\n      mstore\n      0x20\n      add\n      0x00\n      keccak256\n        /* \"EcoCapCoin.sol\":5013:5054  polluter storage receiver = polluters[to] */\n      swap1\n      pop\n        /* \"EcoCapCoin.sol\":5064:5087  polluter storage sender */\n      0x00\n        /* \"EcoCapCoin.sol\":5090:5099  polluters */\n      0x07\n        /* \"EcoCapCoin.sol\":5090:5111  polluters[msg.sender] */\n      0x00\n        /* \"EcoCapCoin.sol\":5100:5110  msg.sender */\n      caller\n        /* \"EcoCapCoin.sol\":5090:5111  polluters[msg.sender] */\n      0xffffffffffffffffffffffffffffffffffffffff\n      and\n      0xffffffffffffffffffffffffffffffffffffffff\n      and\n      dup2\n      mstore\n      0x20\n      add\n      swap1\n      dup2\n      mstore\n      0x20\n      add\n      0x00\n      keccak256\n        /* \"EcoCapCoin.sol\":5064:5111  polluter storage sender = polluters[msg.sender] */\n      swap1\n      pop\n        /* \"EcoCapCoin.sol\":5129:5137  receiver */\n      dup2\n        /* \"EcoCapCoin.sol\":5129:5149  receiver.hasLocation */\n      0x00\n      add\n      0x00\n      swap1\n      sload\n      swap1\n      0x0100\n      exp\n      swap1\n      div\n      0xff\n      and\n        /* \"EcoCapCoin.sol\":5121:5150  require(receiver.hasLocation) */\n      tag_244\n      jumpi\n      0x00\n      dup1\n      revert\n    tag_244:\n        /* \"EcoCapCoin.sol\":5202:5208  sender */\n      dup1\n        /* \"EcoCapCoin.sol\":5202:5220  sender.hasLocation */\n      0x00\n      add\n      0x00\n      swap1\n      sload\n      swap1\n      0x0100\n      exp\n      swap1\n      div\n      0xff\n      and\n        /* \"EcoCapCoin.sol\":5194:5221  require(sender.hasLocation) */\n      tag_245\n      jumpi\n      0x00\n      dup1\n      revert\n    tag_245:\n        /* \"EcoCapCoin.sol\":5263:5292  location storage receiver_loc */\n      0x00\n        /* \"EcoCapCoin.sol\":5295:5304  locations */\n      0x08\n        /* \"EcoCapCoin.sol\":5305:5313  receiver */\n      dup4\n        /* \"EcoCapCoin.sol\":5305:5322  receiver.location */\n      0x01\n      add\n        /* \"EcoCapCoin.sol\":5295:5323  locations[receiver.location] */\n      mload(0x40)\n      dup1\n      dup3\n      dup1\n      sload\n      0x01\n      dup2\n      0x01\n      and\n      iszero\n      0x0100\n      mul\n      sub\n      and\n      0x02\n      swap1\n      div\n      dup1\n      iszero\n      tag_246\n      jumpi\n      dup1\n      0x1f\n      lt\n      tag_247\n      jumpi\n      0x0100\n      dup1\n      dup4\n      sload\n      div\n      mul\n      dup4\n      mstore\n      swap2\n      dup3\n      add\n      swap2\n      jump(tag_246)\n    tag_247:\n      dup3\n      add\n      swap2\n      swap1\n      0x00\n      mstore\n      keccak256(0x00, 0x20)\n      swap1\n    tag_248:\n      dup2\n      sload\n      dup2\n      mstore\n      swap1\n      0x01\n      add\n      swap1\n      0x20\n      add\n      dup1\n      dup4\n      gt\n      tag_248\n      jumpi\n    tag_246:\n      pop\n      pop\n      swap2\n      pop\n      pop\n      swap1\n      dup2\n      mstore\n      0x20\n      add\n      mload(0x40)\n      dup1\n      swap2\n      sub\n      swap1\n      keccak256\n        /* \"EcoCapCoin.sol\":5263:5323  location storage receiver_loc = locations[receiver.location] */\n      swap1\n      pop\n        /* \"EcoCapCoin.sol\":5333:5360  location storage sender_loc */\n      0x00\n        /* \"EcoCapCoin.sol\":5363:5372  locations */\n      0x08\n        /* \"EcoCapCoin.sol\":5373:5379  sender */\n      dup4\n        /* \"EcoCapCoin.sol\":5373:5388  sender.location */\n      0x01\n      add\n        /* \"EcoCapCoin.sol\":5363:5389  locations[sender.location] */\n      mload(0x40)\n      dup1\n      dup3\n      dup1\n      sload\n      0x01\n      dup2\n      0x01\n      and\n      iszero\n      0x0100\n      mul\n      sub\n      and\n      0x02\n      swap1\n      div\n      dup1\n      iszero\n      tag_249\n      jumpi\n      dup1\n      0x1f\n      lt\n      tag_250\n      jumpi\n      0x0100\n      dup1\n      dup4\n      sload\n      div\n      mul\n      dup4\n      mstore\n      swap2\n      dup3\n      add\n      swap2\n      jump(tag_249)\n    tag_250:\n      dup3\n      add\n      swap2\n      swap1\n      0x00\n      mstore\n      keccak256(0x00, 0x20)\n      swap1\n    tag_251:\n      dup2\n      sload\n      dup2\n      mstore\n      swap1\n      0x01\n      add\n      swap1\n      0x20\n      add\n      dup1\n      dup4\n      gt\n      tag_251\n      jumpi\n    tag_249:\n      pop\n      pop\n      swap2\n      pop\n      pop\n      swap1\n      dup2\n      mstore\n      0x20\n      add\n      mload(0x40)\n      dup1\n      swap2\n      sub\n      swap1\n      keccak256\n        /* \"EcoCapCoin.sol\":5333:5389  location storage sender_loc = locations[sender.location] */\n      swap1\n      pop\n        /* \"EcoCapCoin.sol\":5444:5456  receiver_loc */\n      dup2\n        /* \"EcoCapCoin.sol\":5444:5465  receiver_loc.capacity */\n      0x00\n      add\n      sload\n        /* \"EcoCapCoin.sol\":5409:5440  receiver_loc.holding.add(value) */\n      tag_252\n        /* \"EcoCapCoin.sol\":5434:5439  value */\n      dup8\n        /* \"EcoCapCoin.sol\":5409:5421  receiver_loc */\n      dup5\n        /* \"EcoCapCoin.sol\":5409:5429  receiver_loc.holding */\n      0x01\n      add\n      sload\n        /* \"EcoCapCoin.sol\":5409:5433  receiver_loc.holding.add */\n      tag_152\n      swap1\n        /* \"EcoCapCoin.sol\":5409:5440  receiver_loc.holding.add(value) */\n      swap2\n      swap1\n      0xffffffff\n      and\n      jump\t// in\n    tag_252:\n        /* \"EcoCapCoin.sol\":5409:5465  receiver_loc.holding.add(value) <= receiver_loc.capacity */\n      gt\n      iszero\n        /* \"EcoCapCoin.sol\":5401:5466  require(receiver_loc.holding.add(value) <= receiver_loc.capacity) */\n      tag_253\n      jumpi\n      0x00\n      dup1\n      revert\n    tag_253:\n        /* \"EcoCapCoin.sol\":5551:5582  receiver_loc.holding.add(value) */\n      tag_254\n        /* \"EcoCapCoin.sol\":5576:5581  value */\n      dup7\n        /* \"EcoCapCoin.sol\":5551:5563  receiver_loc */\n      dup4\n        /* \"EcoCapCoin.sol\":5551:5571  receiver_loc.holding */\n      0x01\n      add\n      sload\n        /* \"EcoCapCoin.sol\":5551:5575  receiver_loc.holding.add */\n      tag_152\n      swap1\n        /* \"EcoCapCoin.sol\":5551:5582  receiver_loc.holding.add(value) */\n      swap2\n      swap1\n      0xffffffff\n      and\n      jump\t// in\n    tag_254:\n        /* \"EcoCapCoin.sol\":5528:5540  receiver_loc */\n      dup3\n        /* \"EcoCapCoin.sol\":5528:5548  receiver_loc.holding */\n      0x01\n      add\n        /* \"EcoCapCoin.sol\":5528:5582  receiver_loc.holding = receiver_loc.holding.add(value) */\n      dup2\n      swap1\n      sstore\n      pop\n        /* \"EcoCapCoin.sol\":5658:5687  sender_loc.holding.sub(value) */\n      tag_255\n        /* \"EcoCapCoin.sol\":5681:5686  value */\n      dup7\n        /* \"EcoCapCoin.sol\":5658:5668  sender_loc */\n      dup3\n        /* \"EcoCapCoin.sol\":5658:5676  sender_loc.holding */\n      0x01\n      add\n      sload\n        /* \"EcoCapCoin.sol\":5658:5680  sender_loc.holding.sub */\n      tag_166\n      swap1\n        /* \"EcoCapCoin.sol\":5658:5687  sender_loc.holding.sub(value) */\n      swap2\n      swap1\n      0xffffffff\n      and\n      jump\t// in\n    tag_255:\n        /* \"EcoCapCoin.sol\":5637:5647  sender_loc */\n      dup2\n        /* \"EcoCapCoin.sol\":5637:5655  sender_loc.holding */\n      0x01\n      add\n        /* \"EcoCapCoin.sol\":5637:5687  sender_loc.holding = sender_loc.holding.sub(value) */\n      dup2\n      swap1\n      sstore\n      pop\n        /* \"EcoCapCoin.sol\":5737:5769  _transfer(msg.sender, to, value) */\n      tag_256\n        /* \"EcoCapCoin.sol\":5747:5757  msg.sender */\n      caller\n        /* \"EcoCapCoin.sol\":5759:5761  to */\n      dup9\n        /* \"EcoCapCoin.sol\":5763:5768  value */\n      dup9\n        /* \"EcoCapCoin.sol\":5737:5746  _transfer */\n      tag_257\n        /* \"EcoCapCoin.sol\":5737:5769  _transfer(msg.sender, to, value) */\n      jump\t// in\n    tag_256:\n        /* \"EcoCapCoin.sol\":5808:5812  true */\n      0x01\n        /* \"EcoCapCoin.sol\":5801:5812  return true */\n      swap5\n      pop\n      pop\n      pop\n      pop\n      pop\n        /* \"EcoCapCoin.sol\":4938:5819  function transfer(address to, uint256 value) public returns(bool){... */\n      swap3\n      swap2\n      pop\n      pop\n      jump\t// out\n        /* \"EcoCapCoin.sol\":2657:2818  function registerSensor(address pol, address sens) public onlyOwner{... */\n    tag_125:\n        /* \"Ownable.sol\":863:872   */\n      tag_259\n        /* \"Ownable.sol\":863:870   */\n      tag_110\n        /* \"Ownable.sol\":863:872   */\n      jump\t// in\n    tag_259:\n        /* \"Ownable.sol\":855:909   */\n      tag_260\n      jumpi\n      mload(0x40)\n      0x08c379a000000000000000000000000000000000000000000000000000000000\n      dup2\n      mstore\n      0x04\n      add\n      dup1\n      dup1\n      0x20\n      add\n      dup3\n      dup2\n      sub\n      dup3\n      mstore\n      0x20\n      dup2\n      mstore\n      0x20\n      add\n      dup1\n      0x4f776e61626c653a2063616c6c6572206973206e6f7420746865206f776e6572\n      dup2\n      mstore\n      pop\n      0x20\n      add\n      swap2\n      pop\n      pop\n      mload(0x40)\n      dup1\n      swap2\n      sub\n      swap1\n      revert\n    tag_260:\n        /* \"EcoCapCoin.sol\":2769:2772  pol */\n      dup2\n        /* \"EcoCapCoin.sol\":2734:2741  sensors */\n      0x09\n        /* \"EcoCapCoin.sol\":2734:2747  sensors[sens] */\n      0x00\n        /* \"EcoCapCoin.sol\":2742:2746  sens */\n      dup4\n        /* \"EcoCapCoin.sol\":2734:2747  sensors[sens] */\n      0xffffffffffffffffffffffffffffffffffffffff\n      and\n      0xffffffffffffffffffffffffffffffffffffffff\n      and\n      dup2\n      mstore\n      0x20\n      add\n      swap1\n      dup2\n      mstore\n      0x20\n      add\n      0x00\n      keccak256\n        /* \"EcoCapCoin.sol\":2734:2766  sensors[sens].registeredPolluter */\n      0x00\n      add\n      0x01\n        /* \"EcoCapCoin.sol\":2734:2772  sensors[sens].registeredPolluter = pol */\n      0x0100\n      exp\n      dup2\n      sload\n      dup2\n      0xffffffffffffffffffffffffffffffffffffffff\n      mul\n      not\n      and\n      swap1\n      dup4\n      0xffffffffffffffffffffffffffffffffffffffff\n      and\n      mul\n      or\n      swap1\n      sstore\n      pop\n        /* \"EcoCapCoin.sol\":2807:2811  true */\n      0x01\n        /* \"EcoCapCoin.sol\":2782:2789  sensors */\n      0x09\n        /* \"EcoCapCoin.sol\":2782:2795  sensors[sens] */\n      0x00\n        /* \"EcoCapCoin.sol\":2790:2794  sens */\n      dup4\n        /* \"EcoCapCoin.sol\":2782:2795  sensors[sens] */\n      0xffffffffffffffffffffffffffffffffffffffff\n      and\n      0xffffffffffffffffffffffffffffffffffffffff\n      and\n      dup2\n      mstore\n      0x20\n      add\n      swap1\n      dup2\n      mstore\n      0x20\n      add\n      0x00\n      keccak256\n        /* \"EcoCapCoin.sol\":2782:2804  sensors[sens].isSensor */\n      0x00\n      add\n      0x00\n        /* \"EcoCapCoin.sol\":2782:2811  sensors[sens].isSensor = true */\n      0x0100\n      exp\n      dup2\n      sload\n      dup2\n      0xff\n      mul\n      not\n      and\n      swap1\n      dup4\n      iszero\n      iszero\n      mul\n      or\n      swap1\n      sstore\n      pop\n        /* \"EcoCapCoin.sol\":2657:2818  function registerSensor(address pol, address sens) public onlyOwner{... */\n      pop\n      pop\n      jump\t// out\n        /* \"EcoCapCoin.sol\":3363:3890  function getUserPreviousCyclePollution(address pol) public view returns (uint256) {... */\n    tag_128:\n        /* \"EcoCapCoin.sol\":3436:3443  uint256 */\n      0x00\n        /* \"EcoCapCoin.sol\":3455:3477  polluter memory person */\n      tag_263\n      tag_197\n      jump\t// in\n    tag_263:\n        /* \"EcoCapCoin.sol\":3480:3489  polluters */\n      0x07\n        /* \"EcoCapCoin.sol\":3480:3494  polluters[pol] */\n      0x00\n        /* \"EcoCapCoin.sol\":3490:3493  pol */\n      dup5\n        /* \"EcoCapCoin.sol\":3480:3494  polluters[pol] */\n      0xffffffffffffffffffffffffffffffffffffffff\n      and\n      0xffffffffffffffffffffffffffffffffffffffff\n      and\n      dup2\n      mstore\n      0x20\n      add\n      swap1\n      dup2\n      mstore\n      0x20\n      add\n      0x00\n      keccak256\n        /* \"EcoCapCoin.sol\":3455:3494  polluter memory person = polluters[pol] */\n      mload(0x40)\n      dup1\n      0xa0\n      add\n      0x40\n      mstore\n      swap1\n      dup2\n      0x00\n      dup3\n      add\n      0x00\n      swap1\n      sload\n      swap1\n      0x0100\n      exp\n      swap1\n      div\n      0xff\n      and\n      iszero\n      iszero\n      iszero\n      iszero\n      dup2\n      mstore\n      0x20\n      add\n      0x01\n      dup3\n      add\n      dup1\n      sload\n      0x01\n      dup2\n      0x01\n      and\n      iszero\n      0x0100\n      mul\n      sub\n      and\n      0x02\n      swap1\n      div\n      dup1\n      0x1f\n      add\n      0x20\n      dup1\n      swap2\n      div\n      mul\n      0x20\n      add\n      mload(0x40)\n      swap1\n      dup2\n      add\n      0x40\n      mstore\n      dup1\n      swap3\n      swap2\n      swap1\n      dup2\n      dup2\n      mstore\n      0x20\n      add\n      dup3\n      dup1\n      sload\n      0x01\n      dup2\n      0x01\n      and\n      iszero\n      0x0100\n      mul\n      sub\n      and\n      0x02\n      swap1\n      div\n      dup1\n      iszero\n      tag_264\n      jumpi\n      dup1\n      0x1f\n      lt\n      tag_265\n      jumpi\n      0x0100\n      dup1\n      dup4\n      sload\n      div\n      mul\n      dup4\n      mstore\n      swap2\n      0x20\n      add\n      swap2\n      jump(tag_264)\n    tag_265:\n      dup3\n      add\n      swap2\n      swap1\n      0x00\n      mstore\n      keccak256(0x00, 0x20)\n      swap1\n    tag_266:\n      dup2\n      sload\n      dup2\n      mstore\n      swap1\n      0x01\n      add\n      swap1\n      0x20\n      add\n      dup1\n      dup4\n      gt\n      tag_266\n      jumpi\n      dup3\n      swap1\n      sub\n      0x1f\n      and\n      dup3\n      add\n      swap2\n    tag_264:\n      pop\n      pop\n      pop\n      pop\n      pop\n      dup2\n      mstore\n      0x20\n      add\n      0x02\n      dup3\n      add\n      sload\n      dup2\n      mstore\n      0x20\n      add\n      0x03\n      dup3\n      add\n      sload\n      dup2\n      mstore\n      0x20\n      add\n      0x04\n      dup3\n      add\n      sload\n      dup2\n      mstore\n      pop\n      pop\n      swap1\n      pop\n        /* \"EcoCapCoin.sol\":3598:3603  cycle */\n      sload(0x0a)\n        /* \"EcoCapCoin.sol\":3568:3574  person */\n      dup2\n        /* \"EcoCapCoin.sol\":3568:3594  person.lastRegisteredCycle */\n      0x80\n      add\n      mload\n        /* \"EcoCapCoin.sol\":3568:3603  person.lastRegisteredCycle == cycle */\n      eq\n        /* \"EcoCapCoin.sol\":3565:3883  if(person.lastRegisteredCycle == cycle) return person.pollutedPreviousCycle;... */\n      iszero\n      tag_267\n      jumpi\n        /* \"EcoCapCoin.sol\":3612:3618  person */\n      dup1\n        /* \"EcoCapCoin.sol\":3612:3640  person.pollutedPreviousCycle */\n      0x60\n      add\n      mload\n        /* \"EcoCapCoin.sol\":3605:3640  return person.pollutedPreviousCycle */\n      swap2\n      pop\n      pop\n      jump(tag_262)\n        /* \"EcoCapCoin.sol\":3565:3883  if(person.lastRegisteredCycle == cycle) return person.pollutedPreviousCycle;... */\n    tag_267:\n        /* \"EcoCapCoin.sol\":3748:3760  cycle.sub(1) */\n      tag_269\n        /* \"EcoCapCoin.sol\":3758:3759  1 */\n      0x01\n        /* \"EcoCapCoin.sol\":3748:3753  cycle */\n      sload(0x0a)\n        /* \"EcoCapCoin.sol\":3748:3757  cycle.sub */\n      tag_166\n      swap1\n        /* \"EcoCapCoin.sol\":3748:3760  cycle.sub(1) */\n      swap2\n      swap1\n      0xffffffff\n      and\n      jump\t// in\n    tag_269:\n        /* \"EcoCapCoin.sol\":3718:3724  person */\n      dup2\n        /* \"EcoCapCoin.sol\":3718:3744  person.lastRegisteredCycle */\n      0x80\n      add\n      mload\n        /* \"EcoCapCoin.sol\":3718:3760  person.lastRegisteredCycle == cycle.sub(1) */\n      eq\n        /* \"EcoCapCoin.sol\":3715:3883  if(person.lastRegisteredCycle == cycle.sub(1)) return person.pollutedThisCycle;... */\n      iszero\n      tag_270\n      jumpi\n        /* \"EcoCapCoin.sol\":3769:3775  person */\n      dup1\n        /* \"EcoCapCoin.sol\":3769:3793  person.pollutedThisCycle */\n      0x40\n      add\n      mload\n        /* \"EcoCapCoin.sol\":3762:3793  return person.pollutedThisCycle */\n      swap2\n      pop\n      pop\n      jump(tag_262)\n        /* \"EcoCapCoin.sol\":3715:3883  if(person.lastRegisteredCycle == cycle.sub(1)) return person.pollutedThisCycle;... */\n    tag_270:\n        /* \"EcoCapCoin.sol\":3882:3883  0 */\n      0x00\n        /* \"EcoCapCoin.sol\":3875:3883  return 0 */\n      swap2\n      pop\n      pop\n        /* \"EcoCapCoin.sol\":3363:3890  function getUserPreviousCyclePollution(address pol) public view returns (uint256) {... */\n    tag_262:\n      swap2\n      swap1\n      pop\n      jump\t// out\n        /* \"ERC20.sol\":1653:1782   */\n    tag_131:\n        /* \"ERC20.sol\":1725:1732   */\n      0x00\n        /* \"ERC20.sol\":1751:1759   */\n      0x01\n        /* \"ERC20.sol\":1751:1766   */\n      0x00\n        /* \"ERC20.sol\":1760:1765   */\n      dup5\n        /* \"ERC20.sol\":1751:1766   */\n      0xffffffffffffffffffffffffffffffffffffffff\n      and\n      0xffffffffffffffffffffffffffffffffffffffff\n      and\n      dup2\n      mstore\n      0x20\n      add\n      swap1\n      dup2\n      mstore\n      0x20\n      add\n      0x00\n      keccak256\n        /* \"ERC20.sol\":1751:1775   */\n      0x00\n        /* \"ERC20.sol\":1767:1774   */\n      dup4\n        /* \"ERC20.sol\":1751:1775   */\n      0xffffffffffffffffffffffffffffffffffffffff\n      and\n      0xffffffffffffffffffffffffffffffffffffffff\n      and\n      dup2\n      mstore\n      0x20\n      add\n      swap1\n      dup2\n      mstore\n      0x20\n      add\n      0x00\n      keccak256\n      sload\n        /* \"ERC20.sol\":1744:1775   */\n      swap1\n      pop\n        /* \"ERC20.sol\":1653:1782   */\n      swap3\n      swap2\n      pop\n      pop\n      jump\t// out\n        /* \"EcoCapCoin.sol\":4025:4162  function getLocationOriginalCapacity(string memory loc) public view returns (uint256) {... */\n    tag_137:\n        /* \"EcoCapCoin.sol\":4102:4109  uint256 */\n      0x00\n        /* \"EcoCapCoin.sol\":4128:4137  locations */\n      0x08\n        /* \"EcoCapCoin.sol\":4138:4141  loc */\n      dup3\n        /* \"EcoCapCoin.sol\":4128:4142  locations[loc] */\n      mload(0x40)\n      dup1\n      dup3\n      dup1\n      mload\n      swap1\n      0x20\n      add\n      swap1\n      dup1\n      dup4\n      dup4\n        /* \"--CODEGEN--\":36:189   */\n    tag_274:\n        /* \"--CODEGEN--\":66:68   */\n      0x20\n        /* \"--CODEGEN--\":61:64   */\n      dup4\n        /* \"--CODEGEN--\":58:69   */\n      lt\n        /* \"--CODEGEN--\":36:189   */\n      tag_276\n      jumpi\n        /* \"--CODEGEN--\":182:185   */\n      dup1\n        /* \"--CODEGEN--\":176:186   */\n      mload\n        /* \"--CODEGEN--\":171:174   */\n      dup3\n        /* \"--CODEGEN--\":164:187   */\n      mstore\n        /* \"--CODEGEN--\":98:100   */\n      0x20\n        /* \"--CODEGEN--\":93:96   */\n      dup3\n        /* \"--CODEGEN--\":89:101   */\n      add\n        /* \"--CODEGEN--\":82:101   */\n      swap2\n      pop\n        /* \"--CODEGEN--\":123:125   */\n      0x20\n        /* \"--CODEGEN--\":118:121   */\n      dup2\n        /* \"--CODEGEN--\":114:126   */\n      add\n        /* \"--CODEGEN--\":107:126   */\n      swap1\n      pop\n        /* \"--CODEGEN--\":148:150   */\n      0x20\n        /* \"--CODEGEN--\":143:146   */\n      dup4\n        /* \"--CODEGEN--\":139:151   */\n      sub\n        /* \"--CODEGEN--\":132:151   */\n      swap3\n      pop\n        /* \"--CODEGEN--\":36:189   */\n      jump(tag_274)\n    tag_276:\n        /* \"--CODEGEN--\":274:275   */\n      0x01\n        /* \"--CODEGEN--\":267:270   */\n      dup4\n        /* \"--CODEGEN--\":263:265   */\n      0x20\n        /* \"--CODEGEN--\":259:271   */\n      sub\n        /* \"--CODEGEN--\":254:257   */\n      0x0100\n        /* \"--CODEGEN--\":250:272   */\n      exp\n        /* \"--CODEGEN--\":246:276   */\n      sub\n        /* \"--CODEGEN--\":315:319   */\n      dup1\n        /* \"--CODEGEN--\":311:320   */\n      not\n        /* \"--CODEGEN--\":305:308   */\n      dup3\n        /* \"--CODEGEN--\":299:309   */\n      mload\n        /* \"--CODEGEN--\":295:321   */\n      and\n        /* \"--CODEGEN--\":356:360   */\n      dup2\n        /* \"--CODEGEN--\":350:353   */\n      dup5\n        /* \"--CODEGEN--\":344:354   */\n      mload\n        /* \"--CODEGEN--\":340:361   */\n      and\n        /* \"--CODEGEN--\":389:396   */\n      dup1\n        /* \"--CODEGEN--\":380:387   */\n      dup3\n        /* \"--CODEGEN--\":377:397   */\n      or\n        /* \"--CODEGEN--\":372:375   */\n      dup6\n        /* \"--CODEGEN--\":365:398   */\n      mstore\n        /* \"--CODEGEN--\":3:402   */\n      pop\n      pop\n      pop\n        /* \"EcoCapCoin.sol\":4128:4142  locations[loc] */\n      pop\n      pop\n      pop\n      swap1\n      pop\n      add\n      swap2\n      pop\n      pop\n      swap1\n      dup2\n      mstore\n      0x20\n      add\n      mload(0x40)\n      dup1\n      swap2\n      sub\n      swap1\n      keccak256\n        /* \"EcoCapCoin.sol\":4128:4155  locations[loc].original_cap */\n      0x02\n      add\n      sload\n        /* \"EcoCapCoin.sol\":4121:4155  return locations[loc].original_cap */\n      swap1\n      pop\n        /* \"EcoCapCoin.sol\":4025:4162  function getLocationOriginalCapacity(string memory loc) public view returns (uint256) {... */\n      swap2\n      swap1\n      pop\n      jump\t// out\n        /* \"Ownable.sol\":1767:1874   */\n    tag_140:\n        /* \"Ownable.sol\":863:872   */\n      tag_278\n        /* \"Ownable.sol\":863:870   */\n      tag_110\n        /* \"Ownable.sol\":863:872   */\n      jump\t// in\n    tag_278:\n        /* \"Ownable.sol\":855:909   */\n      tag_279\n      jumpi\n      mload(0x40)\n      0x08c379a000000000000000000000000000000000000000000000000000000000\n      dup2\n      mstore\n      0x04\n      add\n      dup1\n      dup1\n      0x20\n      add\n      dup3\n      dup2\n      sub\n      dup3\n      mstore\n      0x20\n      dup2\n      mstore\n      0x20\n      add\n      dup1\n      0x4f776e61626c653a2063616c6c6572206973206e6f7420746865206f776e6572\n      dup2\n      mstore\n      pop\n      0x20\n      add\n      swap2\n      pop\n      pop\n      mload(0x40)\n      dup1\n      swap2\n      sub\n      swap1\n      revert\n    tag_279:\n        /* \"Ownable.sol\":1839:1867   */\n      tag_281\n        /* \"Ownable.sol\":1858:1866   */\n      dup2\n        /* \"Ownable.sol\":1839:1857   */\n      tag_282\n        /* \"Ownable.sol\":1839:1867   */\n      jump\t// in\n    tag_281:\n        /* \"Ownable.sol\":1767:1874   */\n      pop\n      jump\t// out\n        /* \"ERC20.sol\":6945:7271   */\n    tag_146:\n        /* \"ERC20.sol\":7054:7055   */\n      0x00\n        /* \"ERC20.sol\":7037:7056   */\n      0xffffffffffffffffffffffffffffffffffffffff\n      and\n        /* \"ERC20.sol\":7037:7042   */\n      dup4\n        /* \"ERC20.sol\":7037:7056   */\n      0xffffffffffffffffffffffffffffffffffffffff\n      and\n      eq\n      iszero\n        /* \"ERC20.sol\":7029:7097   */\n      tag_284\n      jumpi\n      mload(0x40)\n      0x08c379a000000000000000000000000000000000000000000000000000000000\n      dup2\n      mstore\n      0x04\n      add\n      dup1\n      dup1\n      0x20\n      add\n      dup3\n      dup2\n      sub\n      dup3\n      mstore\n      0x24\n      dup2\n      mstore\n      0x20\n      add\n      dup1\n      data_c953f4879035ed60e766b34720f656aab5c697b141d924c283124ecedb91c208\n      0x24\n      swap2\n      codecopy\n      0x40\n      add\n      swap2\n      pop\n      pop\n      mload(0x40)\n      dup1\n      swap2\n      sub\n      swap1\n      revert\n    tag_284:\n        /* \"ERC20.sol\":7134:7135   */\n      0x00\n        /* \"ERC20.sol\":7115:7136   */\n      0xffffffffffffffffffffffffffffffffffffffff\n      and\n        /* \"ERC20.sol\":7115:7122   */\n      dup3\n        /* \"ERC20.sol\":7115:7136   */\n      0xffffffffffffffffffffffffffffffffffffffff\n      and\n      eq\n      iszero\n        /* \"ERC20.sol\":7107:7175   */\n      tag_285\n      jumpi\n      mload(0x40)\n      0x08c379a000000000000000000000000000000000000000000000000000000000\n      dup2\n      mstore\n      0x04\n      add\n      dup1\n      dup1\n      0x20\n      add\n      dup3\n      dup2\n      sub\n      dup3\n      mstore\n      0x22\n      dup2\n      mstore\n      0x20\n      add\n      dup1\n      data_24883cc5fe64ace9d0df1893501ecb93c77180f0ff69cca79affb3c316dc8029\n      0x22\n      swap2\n      codecopy\n      0x40\n      add\n      swap2\n      pop\n      pop\n      mload(0x40)\n      dup1\n      swap2\n      sub\n      swap1\n      revert\n    tag_285:\n        /* \"ERC20.sol\":7213:7218   */\n      dup1\n        /* \"ERC20.sol\":7186:7194   */\n      0x01\n        /* \"ERC20.sol\":7186:7201   */\n      0x00\n        /* \"ERC20.sol\":7195:7200   */\n      dup6\n        /* \"ERC20.sol\":7186:7201   */\n      0xffffffffffffffffffffffffffffffffffffffff\n      and\n      0xffffffffffffffffffffffffffffffffffffffff\n      and\n      dup2\n      mstore\n      0x20\n      add\n      swap1\n      dup2\n      mstore\n      0x20\n      add\n      0x00\n      keccak256\n        /* \"ERC20.sol\":7186:7210   */\n      0x00\n        /* \"ERC20.sol\":7202:7209   */\n      dup5\n        /* \"ERC20.sol\":7186:7210   */\n      0xffffffffffffffffffffffffffffffffffffffff\n      and\n      0xffffffffffffffffffffffffffffffffffffffff\n      and\n      dup2\n      mstore\n      0x20\n      add\n      swap1\n      dup2\n      mstore\n      0x20\n      add\n      0x00\n      keccak256\n        /* \"ERC20.sol\":7186:7218   */\n      dup2\n      swap1\n      sstore\n      pop\n        /* \"ERC20.sol\":7249:7256   */\n      dup2\n        /* \"ERC20.sol\":7233:7264   */\n      0xffffffffffffffffffffffffffffffffffffffff\n      and\n        /* \"ERC20.sol\":7242:7247   */\n      dup4\n        /* \"ERC20.sol\":7233:7264   */\n      0xffffffffffffffffffffffffffffffffffffffff\n      and\n      0x8c5be1e5ebec7d5bd14f71427d1e84f3dd0314c0f7b2291e5b200ac8c7c3b925\n        /* \"ERC20.sol\":7258:7263   */\n      dup4\n        /* \"ERC20.sol\":7233:7264   */\n      mload(0x40)\n      dup1\n      dup3\n      dup2\n      mstore\n      0x20\n      add\n      swap2\n      pop\n      pop\n      mload(0x40)\n      dup1\n      swap2\n      sub\n      swap1\n      log3\n        /* \"ERC20.sol\":6945:7271   */\n      pop\n      pop\n      pop\n      jump\t// out\n        /* \"math/SafeMath.sol\":1541:1717   */\n    tag_152:\n        /* \"math/SafeMath.sol\":1599:1606   */\n      0x00\n        /* \"math/SafeMath.sol\":1618:1627   */\n      dup1\n        /* \"math/SafeMath.sol\":1634:1635   */\n      dup3\n        /* \"math/SafeMath.sol\":1630:1631   */\n      dup5\n        /* \"math/SafeMath.sol\":1630:1635   */\n      add\n        /* \"math/SafeMath.sol\":1618:1635   */\n      swap1\n      pop\n        /* \"math/SafeMath.sol\":1658:1659   */\n      dup4\n        /* \"math/SafeMath.sol\":1653:1654   */\n      dup2\n        /* \"math/SafeMath.sol\":1653:1659   */\n      lt\n      iszero\n        /* \"math/SafeMath.sol\":1645:1691   */\n      tag_287\n      jumpi\n      mload(0x40)\n      0x08c379a000000000000000000000000000000000000000000000000000000000\n      dup2\n      mstore\n      0x04\n      add\n      dup1\n      dup1\n      0x20\n      add\n      dup3\n      dup2\n      sub\n      dup3\n      mstore\n      0x1b\n      dup2\n      mstore\n      0x20\n      add\n      dup1\n      0x536166654d6174683a206164646974696f6e206f766572666c6f770000000000\n      dup2\n      mstore\n      pop\n      0x20\n      add\n      swap2\n      pop\n      pop\n      mload(0x40)\n      dup1\n      swap2\n      sub\n      swap1\n      revert\n    tag_287:\n        /* \"math/SafeMath.sol\":1709:1710   */\n      dup1\n        /* \"math/SafeMath.sol\":1702:1710   */\n      swap2\n      pop\n      pop\n        /* \"math/SafeMath.sol\":1541:1717   */\n      swap3\n      swap2\n      pop\n      pop\n      jump\t// out\n        /* \"math/SafeMath.sol\":1279:1458   */\n    tag_166:\n        /* \"math/SafeMath.sol\":1337:1344   */\n      0x00\n        /* \"math/SafeMath.sol\":1369:1370   */\n      dup3\n        /* \"math/SafeMath.sol\":1364:1365   */\n      dup3\n        /* \"math/SafeMath.sol\":1364:1370   */\n      gt\n      iszero\n        /* \"math/SafeMath.sol\":1356:1405   */\n      tag_289\n      jumpi\n      mload(0x40)\n      0x08c379a000000000000000000000000000000000000000000000000000000000\n      dup2\n      mstore\n      0x04\n      add\n      dup1\n      dup1\n      0x20\n      add\n      dup3\n      dup2\n      sub\n      dup3\n      mstore\n      0x1e\n      dup2\n      mstore\n      0x20\n      add\n      dup1\n      0x536166654d6174683a207375627472616374696f6e206f766572666c6f770000\n      dup2\n      mstore\n      pop\n      0x20\n      add\n      swap2\n      pop\n      pop\n      mload(0x40)\n      dup1\n      swap2\n      sub\n      swap1\n      revert\n    tag_289:\n        /* \"math/SafeMath.sol\":1415:1424   */\n      0x00\n        /* \"math/SafeMath.sol\":1431:1432   */\n      dup3\n        /* \"math/SafeMath.sol\":1427:1428   */\n      dup5\n        /* \"math/SafeMath.sol\":1427:1432   */\n      sub\n        /* \"math/SafeMath.sol\":1415:1432   */\n      swap1\n      pop\n        /* \"math/SafeMath.sol\":1450:1451   */\n      dup1\n        /* \"math/SafeMath.sol\":1443:1451   */\n      swap2\n      pop\n      pop\n        /* \"math/SafeMath.sol\":1279:1458   */\n      swap3\n      swap2\n      pop\n      pop\n      jump\t// out\n        /* \"ERC20.sol\":3331:3555   */\n    tag_168:\n        /* \"ERC20.sol\":3410:3414   */\n      0x00\n        /* \"ERC20.sol\":3426:3452   */\n      tag_291\n        /* \"ERC20.sol\":3436:3440   */\n      dup5\n        /* \"ERC20.sol\":3442:3444   */\n      dup5\n        /* \"ERC20.sol\":3446:3451   */\n      dup5\n        /* \"ERC20.sol\":3426:3435   */\n      tag_257\n        /* \"ERC20.sol\":3426:3452   */\n      jump\t// in\n    tag_291:\n        /* \"ERC20.sol\":3462:3527   */\n      tag_292\n        /* \"ERC20.sol\":3471:3475   */\n      dup5\n        /* \"ERC20.sol\":3477:3487   */\n      caller\n        /* \"ERC20.sol\":3489:3526   */\n      tag_293\n        /* \"ERC20.sol\":3520:3525   */\n      dup6\n        /* \"ERC20.sol\":3489:3497   */\n      0x01\n        /* \"ERC20.sol\":3489:3503   */\n      0x00\n        /* \"ERC20.sol\":3498:3502   */\n      dup11\n        /* \"ERC20.sol\":3489:3503   */\n      0xffffffffffffffffffffffffffffffffffffffff\n      and\n      0xffffffffffffffffffffffffffffffffffffffff\n      and\n      dup2\n      mstore\n      0x20\n      add\n      swap1\n      dup2\n      mstore\n      0x20\n      add\n      0x00\n      keccak256\n        /* \"ERC20.sol\":3489:3515   */\n      0x00\n        /* \"ERC20.sol\":3504:3514   */\n      caller\n        /* \"ERC20.sol\":3489:3515   */\n      0xffffffffffffffffffffffffffffffffffffffff\n      and\n      0xffffffffffffffffffffffffffffffffffffffff\n      and\n      dup2\n      mstore\n      0x20\n      add\n      swap1\n      dup2\n      mstore\n      0x20\n      add\n      0x00\n      keccak256\n      sload\n        /* \"ERC20.sol\":3489:3519   */\n      tag_166\n      swap1\n        /* \"ERC20.sol\":3489:3526   */\n      swap2\n      swap1\n      0xffffffff\n      and\n      jump\t// in\n    tag_293:\n        /* \"ERC20.sol\":3462:3470   */\n      tag_146\n        /* \"ERC20.sol\":3462:3527   */\n      jump\t// in\n    tag_292:\n        /* \"ERC20.sol\":3544:3548   */\n      0x01\n        /* \"ERC20.sol\":3537:3548   */\n      swap1\n      pop\n        /* \"ERC20.sol\":3331:3555   */\n      swap4\n      swap3\n      pop\n      pop\n      pop\n      jump\t// out\n        /* \"ERC20.sol\":6380:6680   */\n    tag_190:\n        /* \"ERC20.sol\":6473:6474   */\n      0x00\n        /* \"ERC20.sol\":6454:6475   */\n      0xffffffffffffffffffffffffffffffffffffffff\n      and\n        /* \"ERC20.sol\":6454:6461   */\n      dup3\n        /* \"ERC20.sol\":6454:6475   */\n      0xffffffffffffffffffffffffffffffffffffffff\n      and\n      eq\n      iszero\n        /* \"ERC20.sol\":6446:6513   */\n      tag_295\n      jumpi\n      mload(0x40)\n      0x08c379a000000000000000000000000000000000000000000000000000000000\n      dup2\n      mstore\n      0x04\n      add\n      dup1\n      dup1\n      0x20\n      add\n      dup3\n      dup2\n      sub\n      dup3\n      mstore\n      0x21\n      dup2\n      mstore\n      0x20\n      add\n      dup1\n      data_b16788493b576042bb52c50ed56189e0b250db113c7bfb1c3897d25cf9632d7f\n      0x21\n      swap2\n      codecopy\n      0x40\n      add\n      swap2\n      pop\n      pop\n      mload(0x40)\n      dup1\n      swap2\n      sub\n      swap1\n      revert\n    tag_295:\n        /* \"ERC20.sol\":6539:6562   */\n      tag_296\n        /* \"ERC20.sol\":6556:6561   */\n      dup2\n        /* \"ERC20.sol\":6539:6551   */\n      sload(0x02)\n        /* \"ERC20.sol\":6539:6555   */\n      tag_166\n      swap1\n        /* \"ERC20.sol\":6539:6562   */\n      swap2\n      swap1\n      0xffffffff\n      and\n      jump\t// in\n    tag_296:\n        /* \"ERC20.sol\":6524:6536   */\n      0x02\n        /* \"ERC20.sol\":6524:6562   */\n      dup2\n      swap1\n      sstore\n      pop\n        /* \"ERC20.sol\":6593:6622   */\n      tag_297\n        /* \"ERC20.sol\":6616:6621   */\n      dup2\n        /* \"ERC20.sol\":6593:6602   */\n      0x00\n        /* \"ERC20.sol\":6593:6611   */\n      dup1\n        /* \"ERC20.sol\":6603:6610   */\n      dup6\n        /* \"ERC20.sol\":6593:6611   */\n      0xffffffffffffffffffffffffffffffffffffffff\n      and\n      0xffffffffffffffffffffffffffffffffffffffff\n      and\n      dup2\n      mstore\n      0x20\n      add\n      swap1\n      dup2\n      mstore\n      0x20\n      add\n      0x00\n      keccak256\n      sload\n        /* \"ERC20.sol\":6593:6615   */\n      tag_166\n      swap1\n        /* \"ERC20.sol\":6593:6622   */\n      swap2\n      swap1\n      0xffffffff\n      and\n      jump\t// in\n    tag_297:\n        /* \"ERC20.sol\":6572:6581   */\n      0x00\n        /* \"ERC20.sol\":6572:6590   */\n      dup1\n        /* \"ERC20.sol\":6582:6589   */\n      dup5\n        /* \"ERC20.sol\":6572:6590   */\n      0xffffffffffffffffffffffffffffffffffffffff\n      and\n      0xffffffffffffffffffffffffffffffffffffffff\n      and\n      dup2\n      mstore\n      0x20\n      add\n      swap1\n      dup2\n      mstore\n      0x20\n      add\n      0x00\n      keccak256\n        /* \"ERC20.sol\":6572:6622   */\n      dup2\n      swap1\n      sstore\n      pop\n        /* \"ERC20.sol\":6663:6664   */\n      0x00\n        /* \"ERC20.sol\":6637:6673   */\n      0xffffffffffffffffffffffffffffffffffffffff\n      and\n        /* \"ERC20.sol\":6646:6653   */\n      dup3\n        /* \"ERC20.sol\":6637:6673   */\n      0xffffffffffffffffffffffffffffffffffffffff\n      and\n      0xddf252ad1be2c89b69c2b068fc378daa952ba7f163c4a11628f55a4df523b3ef\n        /* \"ERC20.sol\":6667:6672   */\n      dup4\n        /* \"ERC20.sol\":6637:6673   */\n      mload(0x40)\n      dup1\n      dup3\n      dup2\n      mstore\n      0x20\n      add\n      swap2\n      pop\n      pop\n      mload(0x40)\n      dup1\n      swap2\n      sub\n      swap1\n      log3\n        /* \"ERC20.sol\":6380:6680   */\n      pop\n      pop\n      jump\t// out\n        /* \"ERC20.sol\":7660:7839   */\n    tag_230:\n        /* \"ERC20.sol\":7730:7751   */\n      tag_299\n        /* \"ERC20.sol\":7736:7743   */\n      dup3\n        /* \"ERC20.sol\":7745:7750   */\n      dup3\n        /* \"ERC20.sol\":7730:7735   */\n      tag_190\n        /* \"ERC20.sol\":7730:7751   */\n      jump\t// in\n    tag_299:\n        /* \"ERC20.sol\":7761:7832   */\n      tag_300\n        /* \"ERC20.sol\":7770:7777   */\n      dup3\n        /* \"ERC20.sol\":7779:7789   */\n      caller\n        /* \"ERC20.sol\":7791:7831   */\n      tag_301\n        /* \"ERC20.sol\":7825:7830   */\n      dup5\n        /* \"ERC20.sol\":7791:7799   */\n      0x01\n        /* \"ERC20.sol\":7791:7808   */\n      0x00\n        /* \"ERC20.sol\":7800:7807   */\n      dup9\n        /* \"ERC20.sol\":7791:7808   */\n      0xffffffffffffffffffffffffffffffffffffffff\n      and\n      0xffffffffffffffffffffffffffffffffffffffff\n      and\n      dup2\n      mstore\n      0x20\n      add\n      swap1\n      dup2\n      mstore\n      0x20\n      add\n      0x00\n      keccak256\n        /* \"ERC20.sol\":7791:7820   */\n      0x00\n        /* \"ERC20.sol\":7809:7819   */\n      caller\n        /* \"ERC20.sol\":7791:7820   */\n      0xffffffffffffffffffffffffffffffffffffffff\n      and\n      0xffffffffffffffffffffffffffffffffffffffff\n      and\n      dup2\n      mstore\n      0x20\n      add\n      swap1\n      dup2\n      mstore\n      0x20\n      add\n      0x00\n      keccak256\n      sload\n        /* \"ERC20.sol\":7791:7824   */\n      tag_166\n      swap1\n        /* \"ERC20.sol\":7791:7831   */\n      swap2\n      swap1\n      0xffffffff\n      and\n      jump\t// in\n    tag_301:\n        /* \"ERC20.sol\":7761:7769   */\n      tag_146\n        /* \"ERC20.sol\":7761:7832   */\n      jump\t// in\n    tag_300:\n        /* \"ERC20.sol\":7660:7839   */\n      pop\n      pop\n      jump\t// out\n        /* \"ERC20.sol\":5218:5513   */\n    tag_257:\n        /* \"ERC20.sol\":5319:5320   */\n      0x00\n        /* \"ERC20.sol\":5305:5321   */\n      0xffffffffffffffffffffffffffffffffffffffff\n      and\n        /* \"ERC20.sol\":5305:5307   */\n      dup3\n        /* \"ERC20.sol\":5305:5321   */\n      0xffffffffffffffffffffffffffffffffffffffff\n      and\n      eq\n      iszero\n        /* \"ERC20.sol\":5297:5361   */\n      tag_303\n      jumpi\n      mload(0x40)\n      0x08c379a000000000000000000000000000000000000000000000000000000000\n      dup2\n      mstore\n      0x04\n      add\n      dup1\n      dup1\n      0x20\n      add\n      dup3\n      dup2\n      sub\n      dup3\n      mstore\n      0x23\n      dup2\n      mstore\n      0x20\n      add\n      dup1\n      data_0557e210f7a69a685100a7e4e3d0a7024c546085cee28910fd17d0b081d9516f\n      0x23\n      swap2\n      codecopy\n      0x40\n      add\n      swap2\n      pop\n      pop\n      mload(0x40)\n      dup1\n      swap2\n      sub\n      swap1\n      revert\n    tag_303:\n        /* \"ERC20.sol\":5390:5416   */\n      tag_304\n        /* \"ERC20.sol\":5410:5415   */\n      dup2\n        /* \"ERC20.sol\":5390:5399   */\n      0x00\n        /* \"ERC20.sol\":5390:5405   */\n      dup1\n        /* \"ERC20.sol\":5400:5404   */\n      dup7\n        /* \"ERC20.sol\":5390:5405   */\n      0xffffffffffffffffffffffffffffffffffffffff\n      and\n      0xffffffffffffffffffffffffffffffffffffffff\n      and\n      dup2\n      mstore\n      0x20\n      add\n      swap1\n      dup2\n      mstore\n      0x20\n      add\n      0x00\n      keccak256\n      sload\n        /* \"ERC20.sol\":5390:5409   */\n      tag_166\n      swap1\n        /* \"ERC20.sol\":5390:5416   */\n      swap2\n      swap1\n      0xffffffff\n      and\n      jump\t// in\n    tag_304:\n        /* \"ERC20.sol\":5372:5381   */\n      0x00\n        /* \"ERC20.sol\":5372:5387   */\n      dup1\n        /* \"ERC20.sol\":5382:5386   */\n      dup6\n        /* \"ERC20.sol\":5372:5387   */\n      0xffffffffffffffffffffffffffffffffffffffff\n      and\n      0xffffffffffffffffffffffffffffffffffffffff\n      and\n      dup2\n      mstore\n      0x20\n      add\n      swap1\n      dup2\n      mstore\n      0x20\n      add\n      0x00\n      keccak256\n        /* \"ERC20.sol\":5372:5416   */\n      dup2\n      swap1\n      sstore\n      pop\n        /* \"ERC20.sol\":5442:5466   */\n      tag_305\n        /* \"ERC20.sol\":5460:5465   */\n      dup2\n        /* \"ERC20.sol\":5442:5451   */\n      0x00\n        /* \"ERC20.sol\":5442:5455   */\n      dup1\n        /* \"ERC20.sol\":5452:5454   */\n      dup6\n        /* \"ERC20.sol\":5442:5455   */\n      0xffffffffffffffffffffffffffffffffffffffff\n      and\n      0xffffffffffffffffffffffffffffffffffffffff\n      and\n      dup2\n      mstore\n      0x20\n      add\n      swap1\n      dup2\n      mstore\n      0x20\n      add\n      0x00\n      keccak256\n      sload\n        /* \"ERC20.sol\":5442:5459   */\n      tag_152\n      swap1\n        /* \"ERC20.sol\":5442:5466   */\n      swap2\n      swap1\n      0xffffffff\n      and\n      jump\t// in\n    tag_305:\n        /* \"ERC20.sol\":5426:5435   */\n      0x00\n        /* \"ERC20.sol\":5426:5439   */\n      dup1\n        /* \"ERC20.sol\":5436:5438   */\n      dup5\n        /* \"ERC20.sol\":5426:5439   */\n      0xffffffffffffffffffffffffffffffffffffffff\n      and\n      0xffffffffffffffffffffffffffffffffffffffff\n      and\n      dup2\n      mstore\n      0x20\n      add\n      swap1\n      dup2\n      mstore\n      0x20\n      add\n      0x00\n      keccak256\n        /* \"ERC20.sol\":5426:5466   */\n      dup2\n      swap1\n      sstore\n      pop\n        /* \"ERC20.sol\":5496:5498   */\n      dup2\n        /* \"ERC20.sol\":5481:5506   */\n      0xffffffffffffffffffffffffffffffffffffffff\n      and\n        /* \"ERC20.sol\":5490:5494   */\n      dup4\n        /* \"ERC20.sol\":5481:5506   */\n      0xffffffffffffffffffffffffffffffffffffffff\n      and\n      0xddf252ad1be2c89b69c2b068fc378daa952ba7f163c4a11628f55a4df523b3ef\n        /* \"ERC20.sol\":5500:5505   */\n      dup4\n        /* \"ERC20.sol\":5481:5506   */\n      mload(0x40)\n      dup1\n      dup3\n      dup2\n      mstore\n      0x20\n      add\n      swap2\n      pop\n      pop\n      mload(0x40)\n      dup1\n      swap2\n      sub\n      swap1\n      log3\n        /* \"ERC20.sol\":5218:5513   */\n      pop\n      pop\n      pop\n      jump\t// out\n        /* \"Ownable.sol\":2018:2243   */\n    tag_282:\n        /* \"Ownable.sol\":2111:2112   */\n      0x00\n        /* \"Ownable.sol\":2091:2113   */\n      0xffffffffffffffffffffffffffffffffffffffff\n      and\n        /* \"Ownable.sol\":2091:2099   */\n      dup2\n        /* \"Ownable.sol\":2091:2113   */\n      0xffffffffffffffffffffffffffffffffffffffff\n      and\n      eq\n      iszero\n        /* \"Ownable.sol\":2083:2156   */\n      tag_307\n      jumpi\n      mload(0x40)\n      0x08c379a000000000000000000000000000000000000000000000000000000000\n      dup2\n      mstore\n      0x04\n      add\n      dup1\n      dup1\n      0x20\n      add\n      dup3\n      dup2\n      sub\n      dup3\n      mstore\n      0x26\n      dup2\n      mstore\n      0x20\n      add\n      dup1\n      data_245f15ff17f551913a7a18385165551503906a406f905ac1c2437281a7cd0cfe\n      0x26\n      swap2\n      codecopy\n      0x40\n      add\n      swap2\n      pop\n      pop\n      mload(0x40)\n      dup1\n      swap2\n      sub\n      swap1\n      revert\n    tag_307:\n        /* \"Ownable.sol\":2200:2208   */\n      dup1\n        /* \"Ownable.sol\":2171:2209   */\n      0xffffffffffffffffffffffffffffffffffffffff\n      and\n        /* \"Ownable.sol\":2192:2198   */\n      0x03\n      0x00\n      swap1\n      sload\n      swap1\n      0x0100\n      exp\n      swap1\n      div\n      0xffffffffffffffffffffffffffffffffffffffff\n      and\n        /* \"Ownable.sol\":2171:2209   */\n      0xffffffffffffffffffffffffffffffffffffffff\n      and\n      0x8be0079c531659141344cd1fd0a4f28419497f9722a3daafe3b4186f6b6457e0\n      mload(0x40)\n      mload(0x40)\n      dup1\n      swap2\n      sub\n      swap1\n      log3\n        /* \"Ownable.sol\":2228:2236   */\n      dup1\n        /* \"Ownable.sol\":2219:2225   */\n      0x03\n      0x00\n        /* \"Ownable.sol\":2219:2236   */\n      0x0100\n      exp\n      dup2\n      sload\n      dup2\n      0xffffffffffffffffffffffffffffffffffffffff\n      mul\n      not\n      and\n      swap1\n      dup4\n      0xffffffffffffffffffffffffffffffffffffffff\n      and\n      mul\n      or\n      swap1\n      sstore\n      pop\n        /* \"Ownable.sol\":2018:2243   */\n      pop\n      jump\t// out\n        /* \"EcoCapCoin.sol\":99:8393  contract EcoCapCoin is ERC20Burnable, Ownable{... */\n    tag_178:\n      dup3\n      dup1\n      sload\n      0x01\n      dup2\n      0x01\n      and\n      iszero\n      0x0100\n      mul\n      sub\n      and\n      0x02\n      swap1\n      div\n      swap1\n      0x00\n      mstore\n      keccak256(0x00, 0x20)\n      swap1\n      0x1f\n      add\n      0x20\n      swap1\n      div\n      dup2\n      add\n      swap3\n      dup3\n      0x1f\n      lt\n      tag_309\n      jumpi\n      dup1\n      mload\n      not(0xff)\n      and\n      dup4\n      dup1\n      add\n      or\n      dup6\n      sstore\n      jump(tag_308)\n    tag_309:\n      dup3\n      dup1\n      add\n      0x01\n      add\n      dup6\n      sstore\n      dup3\n      iszero\n      tag_308\n      jumpi\n      swap2\n      dup3\n      add\n    tag_310:\n      dup3\n      dup2\n      gt\n      iszero\n      tag_311\n      jumpi\n      dup3\n      mload\n      dup3\n      sstore\n      swap2\n      0x20\n      add\n      swap2\n      swap1\n      0x01\n      add\n      swap1\n      jump(tag_310)\n    tag_311:\n    tag_308:\n      pop\n      swap1\n      pop\n      tag_312\n      swap2\n      swap1\n      tag_313\n      jump\t// in\n    tag_312:\n      pop\n      swap1\n      jump\t// out\n    tag_197:\n      mload(0x40)\n      dup1\n      0xa0\n      add\n      0x40\n      mstore\n      dup1\n      iszero(iszero(0x00))\n      dup2\n      mstore\n      0x20\n      add\n      0x60\n      dup2\n      mstore\n      0x20\n      add\n      0x00\n      dup2\n      mstore\n      0x20\n      add\n      0x00\n      dup2\n      mstore\n      0x20\n      add\n      0x00\n      dup2\n      mstore\n      pop\n      swap1\n      jump\t// out\n    tag_313:\n      tag_314\n      swap2\n      swap1\n    tag_315:\n      dup1\n      dup3\n      gt\n      iszero\n      tag_316\n      jumpi\n      0x00\n      dup2\n      0x00\n      swap1\n      sstore\n      pop\n      0x01\n      add\n      jump(tag_315)\n    tag_316:\n      pop\n      swap1\n      jump\n    tag_314:\n      swap1\n      jump\t// out\n    stop\n    data_0557e210f7a69a685100a7e4e3d0a7024c546085cee28910fd17d0b081d9516f 45524332303a207472616e7366657220746f20746865207a65726f2061646472657373\n    data_245f15ff17f551913a7a18385165551503906a406f905ac1c2437281a7cd0cfe 4f776e61626c653a206e6577206f776e657220697320746865207a65726f2061646472657373\n    data_24883cc5fe64ace9d0df1893501ecb93c77180f0ff69cca79affb3c316dc8029 45524332303a20617070726f766520746f20746865207a65726f2061646472657373\n    data_b16788493b576042bb52c50ed56189e0b250db113c7bfb1c3897d25cf9632d7f 45524332303a206275726e2066726f6d20746865207a65726f2061646472657373\n    data_c953f4879035ed60e766b34720f656aab5c697b141d924c283124ecedb91c208 45524332303a20617070726f76652066726f6d20746865207a65726f2061646472657373\n\n    auxdata: 0xa165627a7a72305820cbbf85837bf71d91d4fab56c2c4251e86b9ec2eaa7b66f0a0352449923086fba0029\n}\n","bytecode":{"linkReferences":{},"object":"60806040523480156200001157600080fd5b5033600360006101000a81548173ffffffffffffffffffffffffffffffffffffffff021916908373ffffffffffffffffffffffffffffffffffffffff160217905550600360009054906101000a900473ffffffffffffffffffffffffffffffffffffffff1673ffffffffffffffffffffffffffffffffffffffff16600073ffffffffffffffffffffffffffffffffffffffff167f8be0079c531659141344cd1fd0a4f28419497f9722a3daafe3b4186f6b6457e060405160405180910390a36040518060400160405280600a81526020017f45636f436170436f696e00000000000000000000000000000000000000000000815250600490805190602001906200011d92919062000523565b506012600560006101000a81548160ff021916908360ff1602179055506040518060400160405280600381526020017f4543430000000000000000000000000000000000000000000000000000000000815250600690805190602001906200018792919062000523565b506000600560009054906101000a900460ff1660ff16600a0a633b9aca00029050620001ba3382620002d060201b60201c565b6000600760003373ffffffffffffffffffffffffffffffffffffffff1673ffffffffffffffffffffffffffffffffffffffff16815260200190815260200160002090506040518060400160405280601381526020017f474f5645524e414e4345204e4f4e2041524541000000000000000000000000008152508160010190805190602001906200024c92919062000523565b5060018160000160006101000a81548160ff0219169083151502179055506000600860405180807f474f5645524e414e4345204e4f4e204152454100000000000000000000000000815250601301905090815260200160405180910390209050828160000181905550828160010181905550828160020181905550505050620005d2565b600073ffffffffffffffffffffffffffffffffffffffff168273ffffffffffffffffffffffffffffffffffffffff16141562000374576040517f08c379a000000000000000000000000000000000000000000000000000000000815260040180806020018281038252601f8152602001807f45524332303a206d696e7420746f20746865207a65726f20616464726573730081525060200191505060405180910390fd5b62000390816002546200049a60201b620026db1790919060201c565b600281905550620003ee816000808573ffffffffffffffffffffffffffffffffffffffff1673ffffffffffffffffffffffffffffffffffffffff168152602001908152602001600020546200049a60201b620026db1790919060201c565b6000808473ffffffffffffffffffffffffffffffffffffffff1673ffffffffffffffffffffffffffffffffffffffff168152602001908152602001600020819055508173ffffffffffffffffffffffffffffffffffffffff16600073ffffffffffffffffffffffffffffffffffffffff167fddf252ad1be2c89b69c2b068fc378daa952ba7f163c4a11628f55a4df523b3ef836040518082815260200191505060405180910390a35050565b60008082840190508381101562000519576040517f08c379a000000000000000000000000000000000000000000000000000000000815260040180806020018281038252601b8152602001807f536166654d6174683a206164646974696f6e206f766572666c6f77000000000081525060200191505060405180910390fd5b8091505092915050565b828054600181600116156101000203166002900490600052602060002090601f016020900481019282601f106200056657805160ff191683800117855562000597565b8280016001018555821562000597579182015b828111156200059657825182559160200191906001019062000579565b5b509050620005a69190620005aa565b5090565b620005cf91905b80821115620005cb576000816000905550600101620005b1565b5090565b90565b612ff080620005e26000396000f3fe608060405234801561001057600080fd5b50600436106101c45760003560e01c806370a08231116100f9578063a457c2d711610097578063d277add811610071578063d277add814610b68578063dd62ed3e14610bc0578063e6bcff6614610c38578063f2fde38b14610d07576101c4565b8063a457c2d714610a38578063a9059cbb14610a9e578063cd3d3fa414610b04576101c4565b806387038ff7116100d357806387038ff71461087a5780638da5cb5b146109495780638f32d59b1461099357806395d89b41146109b5576101c4565b806370a08231146107ca578063715018a61461082257806379cc67901461082c576101c4565b806332434a2e116101665780634a3a9d25116101405780634a3a9d25146105e6578063551dc454146106a35780635f151bc5146106fb5780636b6923b8146107c0576101c4565b806332434a2e14610477578063395093511461055257806342966c68146105b8576101c4565b80631feab8ec116101a25780631feab8ec146102d057806323b872dd146102fe5780632af37d0114610384578063313ce56714610453576101c4565b806306fdde03146101c9578063095ea7b31461024c57806318160ddd146102b2575b600080fd5b6101d1610d4b565b6040518080602001828103825283818151815260200191508051906020019080838360005b838110156102115780820151818401526020810190506101f6565b50505050905090810190601f16801561023e5780820380516001836020036101000a031916815260200191505b509250505060405180910390f35b6102986004803603604081101561026257600080fd5b81019080803573ffffffffffffffffffffffffffffffffffffffff16906020019092919080359060200190929190505050610de9565b604051808215151515815260200191505060405180910390f35b6102ba610e00565b6040518082815260200191505060405180910390f35b6102fc600480360360208110156102e657600080fd5b8101908080359060200190929190505050610e0a565b005b61036a6004803603606081101561031457600080fd5b81019080803573ffffffffffffffffffffffffffffffffffffffff169060200190929190803573ffffffffffffffffffffffffffffffffffffffff16906020019092919080359060200190929190505050610f61565b604051808215151515815260200191505060405180910390f35b61043d6004803603602081101561039a57600080fd5b81019080803590602001906401000000008111156103b757600080fd5b8201836020820111156103c957600080fd5b803590602001918460018302840111640100000000831117156103eb57600080fd5b91908080601f016020809104026020016040519081016040528093929190818152602001838380828437600081840152601f19601f82011690508083019250505050505050919291929050505061118b565b6040518082815260200191505060405180910390f35b61045b611201565b604051808260ff1660ff16815260200191505060405180910390f35b6105506004803603604081101561048d57600080fd5b81019080803573ffffffffffffffffffffffffffffffffffffffff169060200190929190803590602001906401000000008111156104ca57600080fd5b8201836020820111156104dc57600080fd5b803590602001918460018302840111640100000000831117156104fe57600080fd5b91908080601f016020809104026020016040519081016040528093929190818152602001838380828437600081840152601f19601f820116905080830192505050505050509192919290505050611214565b005b61059e6004803603604081101561056857600080fd5b81019080803573ffffffffffffffffffffffffffffffffffffffff1690602001909291908035906020019092919050505061138c565b604051808215151515815260200191505060405180910390f35b6105e4600480360360208110156105ce57600080fd5b8101908080359060200190929190505050611431565b005b610628600480360360208110156105fc57600080fd5b81019080803573ffffffffffffffffffffffffffffffffffffffff169060200190929190505050611551565b6040518080602001828103825283818151815260200191508051906020019080838360005b8381101561066857808201518184015260208101905061064d565b50505050905090810190601f1680156106955780820380516001836020036101000a031916815260200191505b509250505060405180910390f35b6106e5600480360360208110156106b957600080fd5b81019080803573ffffffffffffffffffffffffffffffffffffffff169060200190929190505050611635565b6040518082815260200191505060405180910390f35b6107be6004803603604081101561071157600080fd5b810190808035906020019064010000000081111561072e57600080fd5b82018360208201111561074057600080fd5b8035906020019184600183028401116401000000008311171561076257600080fd5b91908080601f016020809104026020016040519081016040528093929190818152602001838380828437600081840152601f19601f82011690508083019250505050505050919291929080359060200190929190505050611790565b005b6107c86118f0565b005b61080c600480360360208110156107e057600080fd5b81019080803573ffffffffffffffffffffffffffffffffffffffff169060200190929190505050611978565b6040518082815260200191505060405180910390f35b61082a6119c0565b005b6108786004803603604081101561084257600080fd5b81019080803573ffffffffffffffffffffffffffffffffffffffff16906020019092919080359060200190929190505050611afb565b005b6109336004803603602081101561089057600080fd5b81019080803590602001906401000000008111156108ad57600080fd5b8201836020820111156108bf57600080fd5b803590602001918460018302840111640100000000831117156108e157600080fd5b91908080601f016020809104026020016040519081016040528093929190818152602001838380828437600081840152601f19601f820116905080830192505050505050509192919290505050611c1c565b6040518082815260200191505060405180910390f35b610951611c92565b604051808273ffffffffffffffffffffffffffffffffffffffff1673ffffffffffffffffffffffffffffffffffffffff16815260200191505060405180910390f35b61099b611cbc565b604051808215151515815260200191505060405180910390f35b6109bd611d14565b6040518080602001828103825283818151815260200191508051906020019080838360005b838110156109fd5780820151818401526020810190506109e2565b50505050905090810190601f168015610a2a5780820380516001836020036101000a031916815260200191505b509250505060405180910390f35b610a8460048036036040811015610a4e57600080fd5b81019080803573ffffffffffffffffffffffffffffffffffffffff16906020019092919080359060200190929190505050611db2565b604051808215151515815260200191505060405180910390f35b610aea60048036036040811015610ab457600080fd5b81019080803573ffffffffffffffffffffffffffffffffffffffff16906020019092919080359060200190929190505050611e57565b604051808215151515815260200191505060405180910390f35b610b6660048036036040811015610b1a57600080fd5b81019080803573ffffffffffffffffffffffffffffffffffffffff169060200190929190803573ffffffffffffffffffffffffffffffffffffffff169060200190929190505050612082565b005b610baa60048036036020811015610b7e57600080fd5b81019080803573ffffffffffffffffffffffffffffffffffffffff1690602001909291905050506121dc565b6040518082815260200191505060405180910390f35b610c2260048036036040811015610bd657600080fd5b81019080803573ffffffffffffffffffffffffffffffffffffffff169060200190929190803573ffffffffffffffffffffffffffffffffffffffff169060200190929190505050612361565b6040518082815260200191505060405180910390f35b610cf160048036036020811015610c4e57600080fd5b8101908080359060200190640100000000811115610c6b57600080fd5b820183602082011115610c7d57600080fd5b80359060200191846001830284011164010000000083111715610c9f57600080fd5b91908080601f016020809104026020016040519081016040528093929190818152602001838380828437600081840152601f19601f8201169050808301925050505050505091929192905050506123e8565b6040518082815260200191505060405180910390f35b610d4960048036036020811015610d1d57600080fd5b81019080803573ffffffffffffffffffffffffffffffffffffffff16906020019092919050505061245e565b005b60048054600181600116156101000203166002900480601f016020809104026020016040519081016040528092919081815260200182805460018160011615610100020316600290048015610de15780601f10610db657610100808354040283529160200191610de1565b820191906000526020600020905b815481529060010190602001808311610dc457829003601f168201915b505050505081565b6000610df63384846124e4565b6001905092915050565b6000600254905090565b600960003373ffffffffffffffffffffffffffffffffffffffff1673ffffffffffffffffffffffffffffffffffffffff16815260200190815260200160002060000160009054906101000a900460ff16610e6357600080fd5b6000600960003373ffffffffffffffffffffffffffffffffffffffff1673ffffffffffffffffffffffffffffffffffffffff16815260200190815260200160002060000160019054906101000a900473ffffffffffffffffffffffffffffffffffffffff1690506000600760008373ffffffffffffffffffffffffffffffffffffffff1673ffffffffffffffffffffffffffffffffffffffff1681526020019081526020016000209050600a54816004015414610f3d57600a54816004018190555080600201548160030181905550600081600201819055505b610f548382600201546126db90919063ffffffff16565b8160020181905550505050565b600080600760008573ffffffffffffffffffffffffffffffffffffffff1673ffffffffffffffffffffffffffffffffffffffff16815260200190815260200160002090506000600760003373ffffffffffffffffffffffffffffffffffffffff1673ffffffffffffffffffffffffffffffffffffffff16815260200190815260200160002090508160000160009054906101000a900460ff1661100357600080fd5b8060000160009054906101000a900460ff1661101e57600080fd5b600060088360010160405180828054600181600116156101000203166002900480156110815780601f1061105f576101008083540402835291820191611081565b820191906000526020600020905b81548152906001019060200180831161106d575b505091505090815260200160405180910390209050600060088360010160405180828054600181600116156101000203166002900480156110f95780601f106110d75761010080835404028352918201916110f9565b820191906000526020600020905b8154815290600101906020018083116110e5575b505091505090815260200160405180910390209050816000015461112a8784600101546126db90919063ffffffff16565b111561113557600080fd5b61114c8683600101546126db90919063ffffffff16565b826001018190555061116b86826001015461276390919063ffffffff16565b816001018190555061117e8888886127ec565b9450505050509392505050565b60006008826040518082805190602001908083835b602083106111c357805182526020820191506020810190506020830392506111a0565b6001836020036101000a0380198251168184511680821785525050505050509050019150509081526020016040518091039020600101549050919050565b600560009054906101000a900460ff1681565b61121c611cbc565b61128e576040517f08c379a00000000000000000000000000000000000000000000000000000000081526004018080602001828103825260208152602001807f4f776e61626c653a2063616c6c6572206973206e6f7420746865206f776e657281525060200191505060405180910390fd5b80600760008473ffffffffffffffffffffffffffffffffffffffff1673ffffffffffffffffffffffffffffffffffffffff16815260200190815260200160002060010190805190602001906112e4929190612e3e565b506001600760008473ffffffffffffffffffffffffffffffffffffffff1673ffffffffffffffffffffffffffffffffffffffff16815260200190815260200160002060000160006101000a81548160ff0219169083151502179055506000600760008473ffffffffffffffffffffffffffffffffffffffff1673ffffffffffffffffffffffffffffffffffffffff168152602001908152602001600020600201819055505050565b6000611427338461142285600160003373ffffffffffffffffffffffffffffffffffffffff1673ffffffffffffffffffffffffffffffffffffffff16815260200190815260200160002060008973ffffffffffffffffffffffffffffffffffffffff1673ffffffffffffffffffffffffffffffffffffffff168152602001908152602001600020546126db90919063ffffffff16565b6124e4565b6001905092915050565b6000600760003373ffffffffffffffffffffffffffffffffffffffff1673ffffffffffffffffffffffffffffffffffffffff16815260200190815260200160002090508060000160009054906101000a900460ff161561154357600060088260010160405180828054600181600116156101000203166002900480156114ee5780601f106114cc5761010080835404028352918201916114ee565b820191906000526020600020905b8154815290600101906020018083116114da575b50509150509081526020016040518091039020905061151a83826001015461276390919063ffffffff16565b816001018190555061153983826000015461276390919063ffffffff16565b8160000181905550505b61154d338361289d565b5050565b6060600760008373ffffffffffffffffffffffffffffffffffffffff1673ffffffffffffffffffffffffffffffffffffffff1681526020019081526020016000206001018054600181600116156101000203166002900480601f0160208091040260200160405190810160405280929190818152602001828054600181600116156101000203166002900480156116295780601f106115fe57610100808354040283529160200191611629565b820191906000526020600020905b81548152906001019060200180831161160c57829003601f168201915b50505050509050919050565b600080611640612ebe565b600760008573ffffffffffffffffffffffffffffffffffffffff1673ffffffffffffffffffffffffffffffffffffffff1681526020019081526020016000206040518060a00160405290816000820160009054906101000a900460ff16151515158152602001600182018054600181600116156101000203166002900480601f01602080910402602001604051908101604052809291908181526020018280546001816001161561010002031660029004801561173e5780601f106117135761010080835404028352916020019161173e565b820191906000526020600020905b81548152906001019060200180831161172157829003601f168201915b5050505050815260200160028201548152602001600382015481526020016004820154815250509050600a54816080015114156117815780604001519150611786565b600091505b8192505050919050565b611798611cbc565b61180a576040517f08c379a00000000000000000000000000000000000000000000000000000000081526004018080602001828103825260208152602001807f4f776e61626c653a2063616c6c6572206973206e6f7420746865206f776e657281525060200191505060405180910390fd5b806008836040518082805190602001908083835b60208310611841578051825260208201915060208101905060208303925061181e565b6001836020036101000a038019825116818451168082178552505050505050905001915050908152602001604051809103902060000181905550806008836040518082805190602001908083835b602083106118b2578051825260208201915060208101905060208303925061188f565b6001836020036101000a0380198251168184511680821785525050505050509050019150509081526020016040518091039020600201819055505050565b6118f8611cbc565b61196a576040517f08c379a00000000000000000000000000000000000000000000000000000000081526004018080602001828103825260208152602001807f4f776e61626c653a2063616c6c6572206973206e6f7420746865206f776e657281525060200191505060405180910390fd5b6001600a5401600a81905550565b60008060008373ffffffffffffffffffffffffffffffffffffffff1673ffffffffffffffffffffffffffffffffffffffff168152602001908152602001600020549050919050565b6119c8611cbc565b611a3a576040517f08c379a00000000000000000000000000000000000000000000000000000000081526004018080602001828103825260208152602001807f4f776e61626c653a2063616c6c6572206973206e6f7420746865206f776e657281525060200191505060405180910390fd5b600073ffffffffffffffffffffffffffffffffffffffff16600360009054906101000a900473ffffffffffffffffffffffffffffffffffffffff1673ffffffffffffffffffffffffffffffffffffffff167f8be0079c531659141344cd1fd0a4f28419497f9722a3daafe3b4186f6b6457e060405160405180910390a36000600360006101000a81548173ffffffffffffffffffffffffffffffffffffffff021916908373ffffffffffffffffffffffffffffffffffffffff160217905550565b6000600760008473ffffffffffffffffffffffffffffffffffffffff1673ffffffffffffffffffffffffffffffffffffffff16815260200190815260200160002090508060000160009054906101000a900460ff1615611c0d5760006008826001016040518082805460018160011615610100020316600290048015611bb85780601f10611b96576101008083540402835291820191611bb8565b820191906000526020600020905b815481529060010190602001808311611ba4575b505091505090815260200160405180910390209050611be483826001015461276390919063ffffffff16565b8160010181905550611c0383826000015461276390919063ffffffff16565b8160000181905550505b611c178383612a3b565b505050565b60006008826040518082805190602001908083835b60208310611c545780518252602082019150602081019050602083039250611c31565b6001836020036101000a0380198251168184511680821785525050505050509050019150509081526020016040518091039020600001549050919050565b6000600360009054906101000a900473ffffffffffffffffffffffffffffffffffffffff16905090565b6000600360009054906101000a900473ffffffffffffffffffffffffffffffffffffffff1673ffffffffffffffffffffffffffffffffffffffff163373ffffffffffffffffffffffffffffffffffffffff1614905090565b60068054600181600116156101000203166002900480601f016020809104026020016040519081016040528092919081815260200182805460018160011615610100020316600290048015611daa5780601f10611d7f57610100808354040283529160200191611daa565b820191906000526020600020905b815481529060010190602001808311611d8d57829003601f168201915b505050505081565b6000611e4d3384611e4885600160003373ffffffffffffffffffffffffffffffffffffffff1673ffffffffffffffffffffffffffffffffffffffff16815260200190815260200160002060008973ffffffffffffffffffffffffffffffffffffffff1673ffffffffffffffffffffffffffffffffffffffff1681526020019081526020016000205461276390919063ffffffff16565b6124e4565b6001905092915050565b600080600760008573ffffffffffffffffffffffffffffffffffffffff1673ffffffffffffffffffffffffffffffffffffffff16815260200190815260200160002090506000600760003373ffffffffffffffffffffffffffffffffffffffff1673ffffffffffffffffffffffffffffffffffffffff16815260200190815260200160002090508160000160009054906101000a900460ff16611ef957600080fd5b8060000160009054906101000a900460ff16611f1457600080fd5b60006008836001016040518082805460018160011615610100020316600290048015611f775780601f10611f55576101008083540402835291820191611f77565b820191906000526020600020905b815481529060010190602001808311611f63575b50509150509081526020016040518091039020905060006008836001016040518082805460018160011615610100020316600290048015611fef5780601f10611fcd576101008083540402835291820191611fef565b820191906000526020600020905b815481529060010190602001808311611fdb575b50509150509081526020016040518091039020905081600001546120208784600101546126db90919063ffffffff16565b111561202b57600080fd5b6120428683600101546126db90919063ffffffff16565b826001018190555061206186826001015461276390919063ffffffff16565b8160010181905550612074338888612ae2565b600194505050505092915050565b61208a611cbc565b6120fc576040517f08c379a00000000000000000000000000000000000000000000000000000000081526004018080602001828103825260208152602001807f4f776e61626c653a2063616c6c6572206973206e6f7420746865206f776e657281525060200191505060405180910390fd5b81600960008373ffffffffffffffffffffffffffffffffffffffff1673ffffffffffffffffffffffffffffffffffffffff16815260200190815260200160002060000160016101000a81548173ffffffffffffffffffffffffffffffffffffffff021916908373ffffffffffffffffffffffffffffffffffffffff1602179055506001600960008373ffffffffffffffffffffffffffffffffffffffff1673ffffffffffffffffffffffffffffffffffffffff16815260200190815260200160002060000160006101000a81548160ff0219169083151502179055505050565b60006121e6612ebe565b600760008473ffffffffffffffffffffffffffffffffffffffff1673ffffffffffffffffffffffffffffffffffffffff1681526020019081526020016000206040518060a00160405290816000820160009054906101000a900460ff16151515158152602001600182018054600181600116156101000203166002900480601f0160208091040260200160405190810160405280929190818152602001828054600181600116156101000203166002900480156122e45780601f106122b9576101008083540402835291602001916122e4565b820191906000526020600020905b8154815290600101906020018083116122c757829003601f168201915b5050505050815260200160028201548152602001600382015481526020016004820154815250509050600a548160800151141561232857806060015191505061235c565b61233e6001600a5461276390919063ffffffff16565b8160800151141561235657806040015191505061235c565b60009150505b919050565b6000600160008473ffffffffffffffffffffffffffffffffffffffff1673ffffffffffffffffffffffffffffffffffffffff16815260200190815260200160002060008373ffffffffffffffffffffffffffffffffffffffff1673ffffffffffffffffffffffffffffffffffffffff16815260200190815260200160002054905092915050565b60006008826040518082805190602001908083835b6020831061242057805182526020820191506020810190506020830392506123fd565b6001836020036101000a0380198251168184511680821785525050505050509050019150509081526020016040518091039020600201549050919050565b612466611cbc565b6124d8576040517f08c379a00000000000000000000000000000000000000000000000000000000081526004018080602001828103825260208152602001807f4f776e61626c653a2063616c6c6572206973206e6f7420746865206f776e657281525060200191505060405180910390fd5b6124e181612cf8565b50565b600073ffffffffffffffffffffffffffffffffffffffff168373ffffffffffffffffffffffffffffffffffffffff16141561256a576040517f08c379a0000000000000000000000000000000000000000000000000000000008152600401808060200182810382526024815260200180612fa16024913960400191505060405180910390fd5b600073ffffffffffffffffffffffffffffffffffffffff168273ffffffffffffffffffffffffffffffffffffffff1614156125f0576040517f08c379a0000000000000000000000000000000000000000000000000000000008152600401808060200182810382526022815260200180612f5e6022913960400191505060405180910390fd5b80600160008573ffffffffffffffffffffffffffffffffffffffff1673ffffffffffffffffffffffffffffffffffffffff16815260200190815260200160002060008473ffffffffffffffffffffffffffffffffffffffff1673ffffffffffffffffffffffffffffffffffffffff168152602001908152602001600020819055508173ffffffffffffffffffffffffffffffffffffffff168373ffffffffffffffffffffffffffffffffffffffff167f8c5be1e5ebec7d5bd14f71427d1e84f3dd0314c0f7b2291e5b200ac8c7c3b925836040518082815260200191505060405180910390a3505050565b600080828401905083811015612759576040517f08c379a000000000000000000000000000000000000000000000000000000000815260040180806020018281038252601b8152602001807f536166654d6174683a206164646974696f6e206f766572666c6f77000000000081525060200191505060405180910390fd5b8091505092915050565b6000828211156127db576040517f08c379a000000000000000000000000000000000000000000000000000000000815260040180806020018281038252601e8152602001807f536166654d6174683a207375627472616374696f6e206f766572666c6f77000081525060200191505060405180910390fd5b600082840390508091505092915050565b60006127f9848484612ae2565b612892843361288d85600160008a73ffffffffffffffffffffffffffffffffffffffff1673ffffffffffffffffffffffffffffffffffffffff16815260200190815260200160002060003373ffffffffffffffffffffffffffffffffffffffff1673ffffffffffffffffffffffffffffffffffffffff1681526020019081526020016000205461276390919063ffffffff16565b6124e4565b600190509392505050565b600073ffffffffffffffffffffffffffffffffffffffff168273ffffffffffffffffffffffffffffffffffffffff161415612923576040517f08c379a0000000000000000000000000000000000000000000000000000000008152600401808060200182810382526021815260200180612f806021913960400191505060405180910390fd5b6129388160025461276390919063ffffffff16565b60028190555061298f816000808573ffffffffffffffffffffffffffffffffffffffff1673ffffffffffffffffffffffffffffffffffffffff1681526020019081526020016000205461276390919063ffffffff16565b6000808473ffffffffffffffffffffffffffffffffffffffff1673ffffffffffffffffffffffffffffffffffffffff16815260200190815260200160002081905550600073ffffffffffffffffffffffffffffffffffffffff168273ffffffffffffffffffffffffffffffffffffffff167fddf252ad1be2c89b69c2b068fc378daa952ba7f163c4a11628f55a4df523b3ef836040518082815260200191505060405180910390a35050565b612a45828261289d565b612ade8233612ad984600160008873ffffffffffffffffffffffffffffffffffffffff1673ffffffffffffffffffffffffffffffffffffffff16815260200190815260200160002060003373ffffffffffffffffffffffffffffffffffffffff1673ffffffffffffffffffffffffffffffffffffffff1681526020019081526020016000205461276390919063ffffffff16565b6124e4565b5050565b600073ffffffffffffffffffffffffffffffffffffffff168273ffffffffffffffffffffffffffffffffffffffff161415612b68576040517f08c379a0000000000000000000000000000000000000000000000000000000008152600401808060200182810382526023815260200180612f156023913960400191505060405180910390fd5b612bb9816000808673ffffffffffffffffffffffffffffffffffffffff1673ffffffffffffffffffffffffffffffffffffffff1681526020019081526020016000205461276390919063ffffffff16565b6000808573ffffffffffffffffffffffffffffffffffffffff1673ffffffffffffffffffffffffffffffffffffffff16815260200190815260200160002081905550612c4c816000808573ffffffffffffffffffffffffffffffffffffffff1673ffffffffffffffffffffffffffffffffffffffff168152602001908152602001600020546126db90919063ffffffff16565b6000808473ffffffffffffffffffffffffffffffffffffffff1673ffffffffffffffffffffffffffffffffffffffff168152602001908152602001600020819055508173ffffffffffffffffffffffffffffffffffffffff168373ffffffffffffffffffffffffffffffffffffffff167fddf252ad1be2c89b69c2b068fc378daa952ba7f163c4a11628f55a4df523b3ef836040518082815260200191505060405180910390a3505050565b600073ffffffffffffffffffffffffffffffffffffffff168173ffffffffffffffffffffffffffffffffffffffff161415612d7e576040517f08c379a0000000000000000000000000000000000000000000000000000000008152600401808060200182810382526026815260200180612f386026913960400191505060405180910390fd5b8073ffffffffffffffffffffffffffffffffffffffff16600360009054906101000a900473ffffffffffffffffffffffffffffffffffffffff1673ffffffffffffffffffffffffffffffffffffffff167f8be0079c531659141344cd1fd0a4f28419497f9722a3daafe3b4186f6b6457e060405160405180910390a380600360006101000a81548173ffffffffffffffffffffffffffffffffffffffff021916908373ffffffffffffffffffffffffffffffffffffffff16021790555050565b828054600181600116156101000203166002900490600052602060002090601f016020900481019282601f10612e7f57805160ff1916838001178555612ead565b82800160010185558215612ead579182015b82811115612eac578251825591602001919060010190612e91565b5b509050612eba9190612eef565b5090565b6040518060a00160405280600015158152602001606081526020016000815260200160008152602001600081525090565b612f1191905b80821115612f0d576000816000905550600101612ef5565b5090565b9056fe45524332303a207472616e7366657220746f20746865207a65726f20616464726573734f776e61626c653a206e6577206f776e657220697320746865207a65726f206164647265737345524332303a20617070726f766520746f20746865207a65726f206164647265737345524332303a206275726e2066726f6d20746865207a65726f206164647265737345524332303a20617070726f76652066726f6d20746865207a65726f2061646472657373a165627a7a72305820cbbf85837bf71d91d4fab56c2c4251e86b9ec2eaa7b66f0a0352449923086fba0029","opcodes":"PUSH1 0x80 PUSH1 0x40 MSTORE CALLVALUE DUP1 ISZERO PUSH3 0x11 JUMPI PUSH1 0x0 DUP1 REVERT JUMPDEST POP CALLER PUSH1 0x3 PUSH1 0x0 PUSH2 0x100 EXP DUP2 SLOAD DUP2 PUSH20 0xFFFFFFFFFFFFFFFFFFFFFFFFFFFFFFFFFFFFFFFF MUL NOT AND SWAP1 DUP4 PUSH20 0xFFFFFFFFFFFFFFFFFFFFFFFFFFFFFFFFFFFFFFFF AND MUL OR SWAP1 SSTORE POP PUSH1 0x3 PUSH1 0x0 SWAP1 SLOAD SWAP1 PUSH2 0x100 EXP SWAP1 DIV PUSH20 0xFFFFFFFFFFFFFFFFFFFFFFFFFFFFFFFFFFFFFFFF AND PUSH20 0xFFFFFFFFFFFFFFFFFFFFFFFFFFFFFFFFFFFFFFFF AND PUSH1 0x0 PUSH20 0xFFFFFFFFFFFFFFFFFFFFFFFFFFFFFFFFFFFFFFFF AND PUSH32 0x8BE0079C531659141344CD1FD0A4F28419497F9722A3DAAFE3B4186F6B6457E0 PUSH1 0x40 MLOAD PUSH1 0x40 MLOAD DUP1 SWAP2 SUB SWAP1 LOG3 PUSH1 0x40 MLOAD DUP1 PUSH1 0x40 ADD PUSH1 0x40 MSTORE DUP1 PUSH1 0xA DUP2 MSTORE PUSH1 0x20 ADD PUSH32 0x45636F436170436F696E00000000000000000000000000000000000000000000 DUP2 MSTORE POP PUSH1 0x4 SWAP1 DUP1 MLOAD SWAP1 PUSH1 0x20 ADD SWAP1 PUSH3 0x11D SWAP3 SWAP2 SWAP1 PUSH3 0x523 JUMP JUMPDEST POP PUSH1 0x12 PUSH1 0x5 PUSH1 0x0 PUSH2 0x100 EXP DUP2 SLOAD DUP2 PUSH1 0xFF MUL NOT AND SWAP1 DUP4 PUSH1 0xFF AND MUL OR SWAP1 SSTORE POP PUSH1 0x40 MLOAD DUP1 PUSH1 0x40 ADD PUSH1 0x40 MSTORE DUP1 PUSH1 0x3 DUP2 MSTORE PUSH1 0x20 ADD PUSH32 0x4543430000000000000000000000000000000000000000000000000000000000 DUP2 MSTORE POP PUSH1 0x6 SWAP1 DUP1 MLOAD SWAP1 PUSH1 0x20 ADD SWAP1 PUSH3 0x187 SWAP3 SWAP2 SWAP1 PUSH3 0x523 JUMP JUMPDEST POP PUSH1 0x0 PUSH1 0x5 PUSH1 0x0 SWAP1 SLOAD SWAP1 PUSH2 0x100 EXP SWAP1 DIV PUSH1 0xFF AND PUSH1 0xFF AND PUSH1 0xA EXP PUSH4 0x3B9ACA00 MUL SWAP1 POP PUSH3 0x1BA CALLER DUP3 PUSH3 0x2D0 PUSH1 0x20 SHL PUSH1 0x20 SHR JUMP JUMPDEST PUSH1 0x0 PUSH1 0x7 PUSH1 0x0 CALLER PUSH20 0xFFFFFFFFFFFFFFFFFFFFFFFFFFFFFFFFFFFFFFFF AND PUSH20 0xFFFFFFFFFFFFFFFFFFFFFFFFFFFFFFFFFFFFFFFF AND DUP2 MSTORE PUSH1 0x20 ADD SWAP1 DUP2 MSTORE PUSH1 0x20 ADD PUSH1 0x0 KECCAK256 SWAP1 POP PUSH1 0x40 MLOAD DUP1 PUSH1 0x40 ADD PUSH1 0x40 MSTORE DUP1 PUSH1 0x13 DUP2 MSTORE PUSH1 0x20 ADD PUSH32 0x474F5645524E414E4345204E4F4E204152454100000000000000000000000000 DUP2 MSTORE POP DUP2 PUSH1 0x1 ADD SWAP1 DUP1 MLOAD SWAP1 PUSH1 0x20 ADD SWAP1 PUSH3 0x24C SWAP3 SWAP2 SWAP1 PUSH3 0x523 JUMP JUMPDEST POP PUSH1 0x1 DUP2 PUSH1 0x0 ADD PUSH1 0x0 PUSH2 0x100 EXP DUP2 SLOAD DUP2 PUSH1 0xFF MUL NOT AND SWAP1 DUP4 ISZERO ISZERO MUL OR SWAP1 SSTORE POP PUSH1 0x0 PUSH1 0x8 PUSH1 0x40 MLOAD DUP1 DUP1 PUSH32 0x474F5645524E414E4345204E4F4E204152454100000000000000000000000000 DUP2 MSTORE POP PUSH1 0x13 ADD SWAP1 POP SWAP1 DUP2 MSTORE PUSH1 0x20 ADD PUSH1 0x40 MLOAD DUP1 SWAP2 SUB SWAP1 KECCAK256 SWAP1 POP DUP3 DUP2 PUSH1 0x0 ADD DUP2 SWAP1 SSTORE POP DUP3 DUP2 PUSH1 0x1 ADD DUP2 SWAP1 SSTORE POP DUP3 DUP2 PUSH1 0x2 ADD DUP2 SWAP1 SSTORE POP POP POP POP PUSH3 0x5D2 JUMP JUMPDEST PUSH1 0x0 PUSH20 0xFFFFFFFFFFFFFFFFFFFFFFFFFFFFFFFFFFFFFFFF AND DUP3 PUSH20 0xFFFFFFFFFFFFFFFFFFFFFFFFFFFFFFFFFFFFFFFF AND EQ ISZERO PUSH3 0x374 JUMPI PUSH1 0x40 MLOAD PUSH32 0x8C379A000000000000000000000000000000000000000000000000000000000 DUP2 MSTORE PUSH1 0x4 ADD DUP1 DUP1 PUSH1 0x20 ADD DUP3 DUP2 SUB DUP3 MSTORE PUSH1 0x1F DUP2 MSTORE PUSH1 0x20 ADD DUP1 PUSH32 0x45524332303A206D696E7420746F20746865207A65726F206164647265737300 DUP2 MSTORE POP PUSH1 0x20 ADD SWAP2 POP POP PUSH1 0x40 MLOAD DUP1 SWAP2 SUB SWAP1 REVERT JUMPDEST PUSH3 0x390 DUP2 PUSH1 0x2 SLOAD PUSH3 0x49A PUSH1 0x20 SHL PUSH3 0x26DB OR SWAP1 SWAP2 SWAP1 PUSH1 0x20 SHR JUMP JUMPDEST PUSH1 0x2 DUP2 SWAP1 SSTORE POP PUSH3 0x3EE DUP2 PUSH1 0x0 DUP1 DUP6 PUSH20 0xFFFFFFFFFFFFFFFFFFFFFFFFFFFFFFFFFFFFFFFF AND PUSH20 0xFFFFFFFFFFFFFFFFFFFFFFFFFFFFFFFFFFFFFFFF AND DUP2 MSTORE PUSH1 0x20 ADD SWAP1 DUP2 MSTORE PUSH1 0x20 ADD PUSH1 0x0 KECCAK256 SLOAD PUSH3 0x49A PUSH1 0x20 SHL PUSH3 0x26DB OR SWAP1 SWAP2 SWAP1 PUSH1 0x20 SHR JUMP JUMPDEST PUSH1 0x0 DUP1 DUP5 PUSH20 0xFFFFFFFFFFFFFFFFFFFFFFFFFFFFFFFFFFFFFFFF AND PUSH20 0xFFFFFFFFFFFFFFFFFFFFFFFFFFFFFFFFFFFFFFFF AND DUP2 MSTORE PUSH1 0x20 ADD SWAP1 DUP2 MSTORE PUSH1 0x20 ADD PUSH1 0x0 KECCAK256 DUP2 SWAP1 SSTORE POP DUP2 PUSH20 0xFFFFFFFFFFFFFFFFFFFFFFFFFFFFFFFFFFFFFFFF AND PUSH1 0x0 PUSH20 0xFFFFFFFFFFFFFFFFFFFFFFFFFFFFFFFFFFFFFFFF AND PUSH32 0xDDF252AD1BE2C89B69C2B068FC378DAA952BA7F163C4A11628F55A4DF523B3EF DUP4 PUSH1 0x40 MLOAD DUP1 DUP3 DUP2 MSTORE PUSH1 0x20 ADD SWAP2 POP POP PUSH1 0x40 MLOAD DUP1 SWAP2 SUB SWAP1 LOG3 POP POP JUMP JUMPDEST PUSH1 0x0 DUP1 DUP3 DUP5 ADD SWAP1 POP DUP4 DUP2 LT ISZERO PUSH3 0x519 JUMPI PUSH1 0x40 MLOAD PUSH32 0x8C379A000000000000000000000000000000000000000000000000000000000 DUP2 MSTORE PUSH1 0x4 ADD DUP1 DUP1 PUSH1 0x20 ADD DUP3 DUP2 SUB DUP3 MSTORE PUSH1 0x1B DUP2 MSTORE PUSH1 0x20 ADD DUP1 PUSH32 0x536166654D6174683A206164646974696F6E206F766572666C6F770000000000 DUP2 MSTORE POP PUSH1 0x20 ADD SWAP2 POP POP PUSH1 0x40 MLOAD DUP1 SWAP2 SUB SWAP1 REVERT JUMPDEST DUP1 SWAP2 POP POP SWAP3 SWAP2 POP POP JUMP JUMPDEST DUP3 DUP1 SLOAD PUSH1 0x1 DUP2 PUSH1 0x1 AND ISZERO PUSH2 0x100 MUL SUB AND PUSH1 0x2 SWAP1 DIV SWAP1 PUSH1 0x0 MSTORE PUSH1 0x20 PUSH1 0x0 KECCAK256 SWAP1 PUSH1 0x1F ADD PUSH1 0x20 SWAP1 DIV DUP2 ADD SWAP3 DUP3 PUSH1 0x1F LT PUSH3 0x566 JUMPI DUP1 MLOAD PUSH1 0xFF NOT AND DUP4 DUP1 ADD OR DUP6 SSTORE PUSH3 0x597 JUMP JUMPDEST DUP3 DUP1 ADD PUSH1 0x1 ADD DUP6 SSTORE DUP3 ISZERO PUSH3 0x597 JUMPI SWAP2 DUP3 ADD JUMPDEST DUP3 DUP2 GT ISZERO PUSH3 0x596 JUMPI DUP3 MLOAD DUP3 SSTORE SWAP2 PUSH1 0x20 ADD SWAP2 SWAP1 PUSH1 0x1 ADD SWAP1 PUSH3 0x579 JUMP JUMPDEST JUMPDEST POP SWAP1 POP PUSH3 0x5A6 SWAP2 SWAP1 PUSH3 0x5AA JUMP JUMPDEST POP SWAP1 JUMP JUMPDEST PUSH3 0x5CF SWAP2 SWAP1 JUMPDEST DUP1 DUP3 GT ISZERO PUSH3 0x5CB JUMPI PUSH1 0x0 DUP2 PUSH1 0x0 SWAP1 SSTORE POP PUSH1 0x1 ADD PUSH3 0x5B1 JUMP JUMPDEST POP SWAP1 JUMP JUMPDEST SWAP1 JUMP JUMPDEST PUSH2 0x2FF0 DUP1 PUSH3 0x5E2 PUSH1 0x0 CODECOPY PUSH1 0x0 RETURN INVALID PUSH1 0x80 PUSH1 0x40 MSTORE CALLVALUE DUP1 ISZERO PUSH2 0x10 JUMPI PUSH1 0x0 DUP1 REVERT JUMPDEST POP PUSH1 0x4 CALLDATASIZE LT PUSH2 0x1C4 JUMPI PUSH1 0x0 CALLDATALOAD PUSH1 0xE0 SHR DUP1 PUSH4 0x70A08231 GT PUSH2 0xF9 JUMPI DUP1 PUSH4 0xA457C2D7 GT PUSH2 0x97 JUMPI DUP1 PUSH4 0xD277ADD8 GT PUSH2 0x71 JUMPI DUP1 PUSH4 0xD277ADD8 EQ PUSH2 0xB68 JUMPI DUP1 PUSH4 0xDD62ED3E EQ PUSH2 0xBC0 JUMPI DUP1 PUSH4 0xE6BCFF66 EQ PUSH2 0xC38 JUMPI DUP1 PUSH4 0xF2FDE38B EQ PUSH2 0xD07 JUMPI PUSH2 0x1C4 JUMP JUMPDEST DUP1 PUSH4 0xA457C2D7 EQ PUSH2 0xA38 JUMPI DUP1 PUSH4 0xA9059CBB EQ PUSH2 0xA9E JUMPI DUP1 PUSH4 0xCD3D3FA4 EQ PUSH2 0xB04 JUMPI PUSH2 0x1C4 JUMP JUMPDEST DUP1 PUSH4 0x87038FF7 GT PUSH2 0xD3 JUMPI DUP1 PUSH4 0x87038FF7 EQ PUSH2 0x87A JUMPI DUP1 PUSH4 0x8DA5CB5B EQ PUSH2 0x949 JUMPI DUP1 PUSH4 0x8F32D59B EQ PUSH2 0x993 JUMPI DUP1 PUSH4 0x95D89B41 EQ PUSH2 0x9B5 JUMPI PUSH2 0x1C4 JUMP JUMPDEST DUP1 PUSH4 0x70A08231 EQ PUSH2 0x7CA JUMPI DUP1 PUSH4 0x715018A6 EQ PUSH2 0x822 JUMPI DUP1 PUSH4 0x79CC6790 EQ PUSH2 0x82C JUMPI PUSH2 0x1C4 JUMP JUMPDEST DUP1 PUSH4 0x32434A2E GT PUSH2 0x166 JUMPI DUP1 PUSH4 0x4A3A9D25 GT PUSH2 0x140 JUMPI DUP1 PUSH4 0x4A3A9D25 EQ PUSH2 0x5E6 JUMPI DUP1 PUSH4 0x551DC454 EQ PUSH2 0x6A3 JUMPI DUP1 PUSH4 0x5F151BC5 EQ PUSH2 0x6FB JUMPI DUP1 PUSH4 0x6B6923B8 EQ PUSH2 0x7C0 JUMPI PUSH2 0x1C4 JUMP JUMPDEST DUP1 PUSH4 0x32434A2E EQ PUSH2 0x477 JUMPI DUP1 PUSH4 0x39509351 EQ PUSH2 0x552 JUMPI DUP1 PUSH4 0x42966C68 EQ PUSH2 0x5B8 JUMPI PUSH2 0x1C4 JUMP JUMPDEST DUP1 PUSH4 0x1FEAB8EC GT PUSH2 0x1A2 JUMPI DUP1 PUSH4 0x1FEAB8EC EQ PUSH2 0x2D0 JUMPI DUP1 PUSH4 0x23B872DD EQ PUSH2 0x2FE JUMPI DUP1 PUSH4 0x2AF37D01 EQ PUSH2 0x384 JUMPI DUP1 PUSH4 0x313CE567 EQ PUSH2 0x453 JUMPI PUSH2 0x1C4 JUMP JUMPDEST DUP1 PUSH4 0x6FDDE03 EQ PUSH2 0x1C9 JUMPI DUP1 PUSH4 0x95EA7B3 EQ PUSH2 0x24C JUMPI DUP1 PUSH4 0x18160DDD EQ PUSH2 0x2B2 JUMPI JUMPDEST PUSH1 0x0 DUP1 REVERT JUMPDEST PUSH2 0x1D1 PUSH2 0xD4B JUMP JUMPDEST PUSH1 0x40 MLOAD DUP1 DUP1 PUSH1 0x20 ADD DUP3 DUP2 SUB DUP3 MSTORE DUP4 DUP2 DUP2 MLOAD DUP2 MSTORE PUSH1 0x20 ADD SWAP2 POP DUP1 MLOAD SWAP1 PUSH1 0x20 ADD SWAP1 DUP1 DUP4 DUP4 PUSH1 0x0 JUMPDEST DUP4 DUP2 LT ISZERO PUSH2 0x211 JUMPI DUP1 DUP3 ADD MLOAD DUP2 DUP5 ADD MSTORE PUSH1 0x20 DUP2 ADD SWAP1 POP PUSH2 0x1F6 JUMP JUMPDEST POP POP POP POP SWAP1 POP SWAP1 DUP2 ADD SWAP1 PUSH1 0x1F AND DUP1 ISZERO PUSH2 0x23E JUMPI DUP1 DUP3 SUB DUP1 MLOAD PUSH1 0x1 DUP4 PUSH1 0x20 SUB PUSH2 0x100 EXP SUB NOT AND DUP2 MSTORE PUSH1 0x20 ADD SWAP2 POP JUMPDEST POP SWAP3 POP POP POP PUSH1 0x40 MLOAD DUP1 SWAP2 SUB SWAP1 RETURN JUMPDEST PUSH2 0x298 PUSH1 0x4 DUP1 CALLDATASIZE SUB PUSH1 0x40 DUP2 LT ISZERO PUSH2 0x262 JUMPI PUSH1 0x0 DUP1 REVERT JUMPDEST DUP2 ADD SWAP1 DUP1 DUP1 CALLDATALOAD PUSH20 0xFFFFFFFFFFFFFFFFFFFFFFFFFFFFFFFFFFFFFFFF AND SWAP1 PUSH1 0x20 ADD SWAP1 SWAP3 SWAP2 SWAP1 DUP1 CALLDATALOAD SWAP1 PUSH1 0x20 ADD SWAP1 SWAP3 SWAP2 SWAP1 POP POP POP PUSH2 0xDE9 JUMP JUMPDEST PUSH1 0x40 MLOAD DUP1 DUP3 ISZERO ISZERO ISZERO ISZERO DUP2 MSTORE PUSH1 0x20 ADD SWAP2 POP POP PUSH1 0x40 MLOAD DUP1 SWAP2 SUB SWAP1 RETURN JUMPDEST PUSH2 0x2BA PUSH2 0xE00 JUMP JUMPDEST PUSH1 0x40 MLOAD DUP1 DUP3 DUP2 MSTORE PUSH1 0x20 ADD SWAP2 POP POP PUSH1 0x40 MLOAD DUP1 SWAP2 SUB SWAP1 RETURN JUMPDEST PUSH2 0x2FC PUSH1 0x4 DUP1 CALLDATASIZE SUB PUSH1 0x20 DUP2 LT ISZERO PUSH2 0x2E6 JUMPI PUSH1 0x0 DUP1 REVERT JUMPDEST DUP2 ADD SWAP1 DUP1 DUP1 CALLDATALOAD SWAP1 PUSH1 0x20 ADD SWAP1 SWAP3 SWAP2 SWAP1 POP POP POP PUSH2 0xE0A JUMP JUMPDEST STOP JUMPDEST PUSH2 0x36A PUSH1 0x4 DUP1 CALLDATASIZE SUB PUSH1 0x60 DUP2 LT ISZERO PUSH2 0x314 JUMPI PUSH1 0x0 DUP1 REVERT JUMPDEST DUP2 ADD SWAP1 DUP1 DUP1 CALLDATALOAD PUSH20 0xFFFFFFFFFFFFFFFFFFFFFFFFFFFFFFFFFFFFFFFF AND SWAP1 PUSH1 0x20 ADD SWAP1 SWAP3 SWAP2 SWAP1 DUP1 CALLDATALOAD PUSH20 0xFFFFFFFFFFFFFFFFFFFFFFFFFFFFFFFFFFFFFFFF AND SWAP1 PUSH1 0x20 ADD SWAP1 SWAP3 SWAP2 SWAP1 DUP1 CALLDATALOAD SWAP1 PUSH1 0x20 ADD SWAP1 SWAP3 SWAP2 SWAP1 POP POP POP PUSH2 0xF61 JUMP JUMPDEST PUSH1 0x40 MLOAD DUP1 DUP3 ISZERO ISZERO ISZERO ISZERO DUP2 MSTORE PUSH1 0x20 ADD SWAP2 POP POP PUSH1 0x40 MLOAD DUP1 SWAP2 SUB SWAP1 RETURN JUMPDEST PUSH2 0x43D PUSH1 0x4 DUP1 CALLDATASIZE SUB PUSH1 0x20 DUP2 LT ISZERO PUSH2 0x39A JUMPI PUSH1 0x0 DUP1 REVERT JUMPDEST DUP2 ADD SWAP1 DUP1 DUP1 CALLDATALOAD SWAP1 PUSH1 0x20 ADD SWAP1 PUSH5 0x100000000 DUP2 GT ISZERO PUSH2 0x3B7 JUMPI PUSH1 0x0 DUP1 REVERT JUMPDEST DUP3 ADD DUP4 PUSH1 0x20 DUP3 ADD GT ISZERO PUSH2 0x3C9 JUMPI PUSH1 0x0 DUP1 REVERT JUMPDEST DUP1 CALLDATALOAD SWAP1 PUSH1 0x20 ADD SWAP2 DUP5 PUSH1 0x1 DUP4 MUL DUP5 ADD GT PUSH5 0x100000000 DUP4 GT OR ISZERO PUSH2 0x3EB JUMPI PUSH1 0x0 DUP1 REVERT JUMPDEST SWAP2 SWAP1 DUP1 DUP1 PUSH1 0x1F ADD PUSH1 0x20 DUP1 SWAP2 DIV MUL PUSH1 0x20 ADD PUSH1 0x40 MLOAD SWAP1 DUP2 ADD PUSH1 0x40 MSTORE DUP1 SWAP4 SWAP3 SWAP2 SWAP1 DUP2 DUP2 MSTORE PUSH1 0x20 ADD DUP4 DUP4 DUP1 DUP3 DUP5 CALLDATACOPY PUSH1 0x0 DUP2 DUP5 ADD MSTORE PUSH1 0x1F NOT PUSH1 0x1F DUP3 ADD AND SWAP1 POP DUP1 DUP4 ADD SWAP3 POP POP POP POP POP POP POP SWAP2 SWAP3 SWAP2 SWAP3 SWAP1 POP POP POP PUSH2 0x118B JUMP JUMPDEST PUSH1 0x40 MLOAD DUP1 DUP3 DUP2 MSTORE PUSH1 0x20 ADD SWAP2 POP POP PUSH1 0x40 MLOAD DUP1 SWAP2 SUB SWAP1 RETURN JUMPDEST PUSH2 0x45B PUSH2 0x1201 JUMP JUMPDEST PUSH1 0x40 MLOAD DUP1 DUP3 PUSH1 0xFF AND PUSH1 0xFF AND DUP2 MSTORE PUSH1 0x20 ADD SWAP2 POP POP PUSH1 0x40 MLOAD DUP1 SWAP2 SUB SWAP1 RETURN JUMPDEST PUSH2 0x550 PUSH1 0x4 DUP1 CALLDATASIZE SUB PUSH1 0x40 DUP2 LT ISZERO PUSH2 0x48D JUMPI PUSH1 0x0 DUP1 REVERT JUMPDEST DUP2 ADD SWAP1 DUP1 DUP1 CALLDATALOAD PUSH20 0xFFFFFFFFFFFFFFFFFFFFFFFFFFFFFFFFFFFFFFFF AND SWAP1 PUSH1 0x20 ADD SWAP1 SWAP3 SWAP2 SWAP1 DUP1 CALLDATALOAD SWAP1 PUSH1 0x20 ADD SWAP1 PUSH5 0x100000000 DUP2 GT ISZERO PUSH2 0x4CA JUMPI PUSH1 0x0 DUP1 REVERT JUMPDEST DUP3 ADD DUP4 PUSH1 0x20 DUP3 ADD GT ISZERO PUSH2 0x4DC JUMPI PUSH1 0x0 DUP1 REVERT JUMPDEST DUP1 CALLDATALOAD SWAP1 PUSH1 0x20 ADD SWAP2 DUP5 PUSH1 0x1 DUP4 MUL DUP5 ADD GT PUSH5 0x100000000 DUP4 GT OR ISZERO PUSH2 0x4FE JUMPI PUSH1 0x0 DUP1 REVERT JUMPDEST SWAP2 SWAP1 DUP1 DUP1 PUSH1 0x1F ADD PUSH1 0x20 DUP1 SWAP2 DIV MUL PUSH1 0x20 ADD PUSH1 0x40 MLOAD SWAP1 DUP2 ADD PUSH1 0x40 MSTORE DUP1 SWAP4 SWAP3 SWAP2 SWAP1 DUP2 DUP2 MSTORE PUSH1 0x20 ADD DUP4 DUP4 DUP1 DUP3 DUP5 CALLDATACOPY PUSH1 0x0 DUP2 DUP5 ADD MSTORE PUSH1 0x1F NOT PUSH1 0x1F DUP3 ADD AND SWAP1 POP DUP1 DUP4 ADD SWAP3 POP POP POP POP POP POP POP SWAP2 SWAP3 SWAP2 SWAP3 SWAP1 POP POP POP PUSH2 0x1214 JUMP JUMPDEST STOP JUMPDEST PUSH2 0x59E PUSH1 0x4 DUP1 CALLDATASIZE SUB PUSH1 0x40 DUP2 LT ISZERO PUSH2 0x568 JUMPI PUSH1 0x0 DUP1 REVERT JUMPDEST DUP2 ADD SWAP1 DUP1 DUP1 CALLDATALOAD PUSH20 0xFFFFFFFFFFFFFFFFFFFFFFFFFFFFFFFFFFFFFFFF AND SWAP1 PUSH1 0x20 ADD SWAP1 SWAP3 SWAP2 SWAP1 DUP1 CALLDATALOAD SWAP1 PUSH1 0x20 ADD SWAP1 SWAP3 SWAP2 SWAP1 POP POP POP PUSH2 0x138C JUMP JUMPDEST PUSH1 0x40 MLOAD DUP1 DUP3 ISZERO ISZERO ISZERO ISZERO DUP2 MSTORE PUSH1 0x20 ADD SWAP2 POP POP PUSH1 0x40 MLOAD DUP1 SWAP2 SUB SWAP1 RETURN JUMPDEST PUSH2 0x5E4 PUSH1 0x4 DUP1 CALLDATASIZE SUB PUSH1 0x20 DUP2 LT ISZERO PUSH2 0x5CE JUMPI PUSH1 0x0 DUP1 REVERT JUMPDEST DUP2 ADD SWAP1 DUP1 DUP1 CALLDATALOAD SWAP1 PUSH1 0x20 ADD SWAP1 SWAP3 SWAP2 SWAP1 POP POP POP PUSH2 0x1431 JUMP JUMPDEST STOP JUMPDEST PUSH2 0x628 PUSH1 0x4 DUP1 CALLDATASIZE SUB PUSH1 0x20 DUP2 LT ISZERO PUSH2 0x5FC JUMPI PUSH1 0x0 DUP1 REVERT JUMPDEST DUP2 ADD SWAP1 DUP1 DUP1 CALLDATALOAD PUSH20 0xFFFFFFFFFFFFFFFFFFFFFFFFFFFFFFFFFFFFFFFF AND SWAP1 PUSH1 0x20 ADD SWAP1 SWAP3 SWAP2 SWAP1 POP POP POP PUSH2 0x1551 JUMP JUMPDEST PUSH1 0x40 MLOAD DUP1 DUP1 PUSH1 0x20 ADD DUP3 DUP2 SUB DUP3 MSTORE DUP4 DUP2 DUP2 MLOAD DUP2 MSTORE PUSH1 0x20 ADD SWAP2 POP DUP1 MLOAD SWAP1 PUSH1 0x20 ADD SWAP1 DUP1 DUP4 DUP4 PUSH1 0x0 JUMPDEST DUP4 DUP2 LT ISZERO PUSH2 0x668 JUMPI DUP1 DUP3 ADD MLOAD DUP2 DUP5 ADD MSTORE PUSH1 0x20 DUP2 ADD SWAP1 POP PUSH2 0x64D JUMP JUMPDEST POP POP POP POP SWAP1 POP SWAP1 DUP2 ADD SWAP1 PUSH1 0x1F AND DUP1 ISZERO PUSH2 0x695 JUMPI DUP1 DUP3 SUB DUP1 MLOAD PUSH1 0x1 DUP4 PUSH1 0x20 SUB PUSH2 0x100 EXP SUB NOT AND DUP2 MSTORE PUSH1 0x20 ADD SWAP2 POP JUMPDEST POP SWAP3 POP POP POP PUSH1 0x40 MLOAD DUP1 SWAP2 SUB SWAP1 RETURN JUMPDEST PUSH2 0x6E5 PUSH1 0x4 DUP1 CALLDATASIZE SUB PUSH1 0x20 DUP2 LT ISZERO PUSH2 0x6B9 JUMPI PUSH1 0x0 DUP1 REVERT JUMPDEST DUP2 ADD SWAP1 DUP1 DUP1 CALLDATALOAD PUSH20 0xFFFFFFFFFFFFFFFFFFFFFFFFFFFFFFFFFFFFFFFF AND SWAP1 PUSH1 0x20 ADD SWAP1 SWAP3 SWAP2 SWAP1 POP POP POP PUSH2 0x1635 JUMP JUMPDEST PUSH1 0x40 MLOAD DUP1 DUP3 DUP2 MSTORE PUSH1 0x20 ADD SWAP2 POP POP PUSH1 0x40 MLOAD DUP1 SWAP2 SUB SWAP1 RETURN JUMPDEST PUSH2 0x7BE PUSH1 0x4 DUP1 CALLDATASIZE SUB PUSH1 0x40 DUP2 LT ISZERO PUSH2 0x711 JUMPI PUSH1 0x0 DUP1 REVERT JUMPDEST DUP2 ADD SWAP1 DUP1 DUP1 CALLDATALOAD SWAP1 PUSH1 0x20 ADD SWAP1 PUSH5 0x100000000 DUP2 GT ISZERO PUSH2 0x72E JUMPI PUSH1 0x0 DUP1 REVERT JUMPDEST DUP3 ADD DUP4 PUSH1 0x20 DUP3 ADD GT ISZERO PUSH2 0x740 JUMPI PUSH1 0x0 DUP1 REVERT JUMPDEST DUP1 CALLDATALOAD SWAP1 PUSH1 0x20 ADD SWAP2 DUP5 PUSH1 0x1 DUP4 MUL DUP5 ADD GT PUSH5 0x100000000 DUP4 GT OR ISZERO PUSH2 0x762 JUMPI PUSH1 0x0 DUP1 REVERT JUMPDEST SWAP2 SWAP1 DUP1 DUP1 PUSH1 0x1F ADD PUSH1 0x20 DUP1 SWAP2 DIV MUL PUSH1 0x20 ADD PUSH1 0x40 MLOAD SWAP1 DUP2 ADD PUSH1 0x40 MSTORE DUP1 SWAP4 SWAP3 SWAP2 SWAP1 DUP2 DUP2 MSTORE PUSH1 0x20 ADD DUP4 DUP4 DUP1 DUP3 DUP5 CALLDATACOPY PUSH1 0x0 DUP2 DUP5 ADD MSTORE PUSH1 0x1F NOT PUSH1 0x1F DUP3 ADD AND SWAP1 POP DUP1 DUP4 ADD SWAP3 POP POP POP POP POP POP POP SWAP2 SWAP3 SWAP2 SWAP3 SWAP1 DUP1 CALLDATALOAD SWAP1 PUSH1 0x20 ADD SWAP1 SWAP3 SWAP2 SWAP1 POP POP POP PUSH2 0x1790 JUMP JUMPDEST STOP JUMPDEST PUSH2 0x7C8 PUSH2 0x18F0 JUMP JUMPDEST STOP JUMPDEST PUSH2 0x80C PUSH1 0x4 DUP1 CALLDATASIZE SUB PUSH1 0x20 DUP2 LT ISZERO PUSH2 0x7E0 JUMPI PUSH1 0x0 DUP1 REVERT JUMPDEST DUP2 ADD SWAP1 DUP1 DUP1 CALLDATALOAD PUSH20 0xFFFFFFFFFFFFFFFFFFFFFFFFFFFFFFFFFFFFFFFF AND SWAP1 PUSH1 0x20 ADD SWAP1 SWAP3 SWAP2 SWAP1 POP POP POP PUSH2 0x1978 JUMP JUMPDEST PUSH1 0x40 MLOAD DUP1 DUP3 DUP2 MSTORE PUSH1 0x20 ADD SWAP2 POP POP PUSH1 0x40 MLOAD DUP1 SWAP2 SUB SWAP1 RETURN JUMPDEST PUSH2 0x82A PUSH2 0x19C0 JUMP JUMPDEST STOP JUMPDEST PUSH2 0x878 PUSH1 0x4 DUP1 CALLDATASIZE SUB PUSH1 0x40 DUP2 LT ISZERO PUSH2 0x842 JUMPI PUSH1 0x0 DUP1 REVERT JUMPDEST DUP2 ADD SWAP1 DUP1 DUP1 CALLDATALOAD PUSH20 0xFFFFFFFFFFFFFFFFFFFFFFFFFFFFFFFFFFFFFFFF AND SWAP1 PUSH1 0x20 ADD SWAP1 SWAP3 SWAP2 SWAP1 DUP1 CALLDATALOAD SWAP1 PUSH1 0x20 ADD SWAP1 SWAP3 SWAP2 SWAP1 POP POP POP PUSH2 0x1AFB JUMP JUMPDEST STOP JUMPDEST PUSH2 0x933 PUSH1 0x4 DUP1 CALLDATASIZE SUB PUSH1 0x20 DUP2 LT ISZERO PUSH2 0x890 JUMPI PUSH1 0x0 DUP1 REVERT JUMPDEST DUP2 ADD SWAP1 DUP1 DUP1 CALLDATALOAD SWAP1 PUSH1 0x20 ADD SWAP1 PUSH5 0x100000000 DUP2 GT ISZERO PUSH2 0x8AD JUMPI PUSH1 0x0 DUP1 REVERT JUMPDEST DUP3 ADD DUP4 PUSH1 0x20 DUP3 ADD GT ISZERO PUSH2 0x8BF JUMPI PUSH1 0x0 DUP1 REVERT JUMPDEST DUP1 CALLDATALOAD SWAP1 PUSH1 0x20 ADD SWAP2 DUP5 PUSH1 0x1 DUP4 MUL DUP5 ADD GT PUSH5 0x100000000 DUP4 GT OR ISZERO PUSH2 0x8E1 JUMPI PUSH1 0x0 DUP1 REVERT JUMPDEST SWAP2 SWAP1 DUP1 DUP1 PUSH1 0x1F ADD PUSH1 0x20 DUP1 SWAP2 DIV MUL PUSH1 0x20 ADD PUSH1 0x40 MLOAD SWAP1 DUP2 ADD PUSH1 0x40 MSTORE DUP1 SWAP4 SWAP3 SWAP2 SWAP1 DUP2 DUP2 MSTORE PUSH1 0x20 ADD DUP4 DUP4 DUP1 DUP3 DUP5 CALLDATACOPY PUSH1 0x0 DUP2 DUP5 ADD MSTORE PUSH1 0x1F NOT PUSH1 0x1F DUP3 ADD AND SWAP1 POP DUP1 DUP4 ADD SWAP3 POP POP POP POP POP POP POP SWAP2 SWAP3 SWAP2 SWAP3 SWAP1 POP POP POP PUSH2 0x1C1C JUMP JUMPDEST PUSH1 0x40 MLOAD DUP1 DUP3 DUP2 MSTORE PUSH1 0x20 ADD SWAP2 POP POP PUSH1 0x40 MLOAD DUP1 SWAP2 SUB SWAP1 RETURN JUMPDEST PUSH2 0x951 PUSH2 0x1C92 JUMP JUMPDEST PUSH1 0x40 MLOAD DUP1 DUP3 PUSH20 0xFFFFFFFFFFFFFFFFFFFFFFFFFFFFFFFFFFFFFFFF AND PUSH20 0xFFFFFFFFFFFFFFFFFFFFFFFFFFFFFFFFFFFFFFFF AND DUP2 MSTORE PUSH1 0x20 ADD SWAP2 POP POP PUSH1 0x40 MLOAD DUP1 SWAP2 SUB SWAP1 RETURN JUMPDEST PUSH2 0x99B PUSH2 0x1CBC JUMP JUMPDEST PUSH1 0x40 MLOAD DUP1 DUP3 ISZERO ISZERO ISZERO ISZERO DUP2 MSTORE PUSH1 0x20 ADD SWAP2 POP POP PUSH1 0x40 MLOAD DUP1 SWAP2 SUB SWAP1 RETURN JUMPDEST PUSH2 0x9BD PUSH2 0x1D14 JUMP JUMPDEST PUSH1 0x40 MLOAD DUP1 DUP1 PUSH1 0x20 ADD DUP3 DUP2 SUB DUP3 MSTORE DUP4 DUP2 DUP2 MLOAD DUP2 MSTORE PUSH1 0x20 ADD SWAP2 POP DUP1 MLOAD SWAP1 PUSH1 0x20 ADD SWAP1 DUP1 DUP4 DUP4 PUSH1 0x0 JUMPDEST DUP4 DUP2 LT ISZERO PUSH2 0x9FD JUMPI DUP1 DUP3 ADD MLOAD DUP2 DUP5 ADD MSTORE PUSH1 0x20 DUP2 ADD SWAP1 POP PUSH2 0x9E2 JUMP JUMPDEST POP POP POP POP SWAP1 POP SWAP1 DUP2 ADD SWAP1 PUSH1 0x1F AND DUP1 ISZERO PUSH2 0xA2A JUMPI DUP1 DUP3 SUB DUP1 MLOAD PUSH1 0x1 DUP4 PUSH1 0x20 SUB PUSH2 0x100 EXP SUB NOT AND DUP2 MSTORE PUSH1 0x20 ADD SWAP2 POP JUMPDEST POP SWAP3 POP POP POP PUSH1 0x40 MLOAD DUP1 SWAP2 SUB SWAP1 RETURN JUMPDEST PUSH2 0xA84 PUSH1 0x4 DUP1 CALLDATASIZE SUB PUSH1 0x40 DUP2 LT ISZERO PUSH2 0xA4E JUMPI PUSH1 0x0 DUP1 REVERT JUMPDEST DUP2 ADD SWAP1 DUP1 DUP1 CALLDATALOAD PUSH20 0xFFFFFFFFFFFFFFFFFFFFFFFFFFFFFFFFFFFFFFFF AND SWAP1 PUSH1 0x20 ADD SWAP1 SWAP3 SWAP2 SWAP1 DUP1 CALLDATALOAD SWAP1 PUSH1 0x20 ADD SWAP1 SWAP3 SWAP2 SWAP1 POP POP POP PUSH2 0x1DB2 JUMP JUMPDEST PUSH1 0x40 MLOAD DUP1 DUP3 ISZERO ISZERO ISZERO ISZERO DUP2 MSTORE PUSH1 0x20 ADD SWAP2 POP POP PUSH1 0x40 MLOAD DUP1 SWAP2 SUB SWAP1 RETURN JUMPDEST PUSH2 0xAEA PUSH1 0x4 DUP1 CALLDATASIZE SUB PUSH1 0x40 DUP2 LT ISZERO PUSH2 0xAB4 JUMPI PUSH1 0x0 DUP1 REVERT JUMPDEST DUP2 ADD SWAP1 DUP1 DUP1 CALLDATALOAD PUSH20 0xFFFFFFFFFFFFFFFFFFFFFFFFFFFFFFFFFFFFFFFF AND SWAP1 PUSH1 0x20 ADD SWAP1 SWAP3 SWAP2 SWAP1 DUP1 CALLDATALOAD SWAP1 PUSH1 0x20 ADD SWAP1 SWAP3 SWAP2 SWAP1 POP POP POP PUSH2 0x1E57 JUMP JUMPDEST PUSH1 0x40 MLOAD DUP1 DUP3 ISZERO ISZERO ISZERO ISZERO DUP2 MSTORE PUSH1 0x20 ADD SWAP2 POP POP PUSH1 0x40 MLOAD DUP1 SWAP2 SUB SWAP1 RETURN JUMPDEST PUSH2 0xB66 PUSH1 0x4 DUP1 CALLDATASIZE SUB PUSH1 0x40 DUP2 LT ISZERO PUSH2 0xB1A JUMPI PUSH1 0x0 DUP1 REVERT JUMPDEST DUP2 ADD SWAP1 DUP1 DUP1 CALLDATALOAD PUSH20 0xFFFFFFFFFFFFFFFFFFFFFFFFFFFFFFFFFFFFFFFF AND SWAP1 PUSH1 0x20 ADD SWAP1 SWAP3 SWAP2 SWAP1 DUP1 CALLDATALOAD PUSH20 0xFFFFFFFFFFFFFFFFFFFFFFFFFFFFFFFFFFFFFFFF AND SWAP1 PUSH1 0x20 ADD SWAP1 SWAP3 SWAP2 SWAP1 POP POP POP PUSH2 0x2082 JUMP JUMPDEST STOP JUMPDEST PUSH2 0xBAA PUSH1 0x4 DUP1 CALLDATASIZE SUB PUSH1 0x20 DUP2 LT ISZERO PUSH2 0xB7E JUMPI PUSH1 0x0 DUP1 REVERT JUMPDEST DUP2 ADD SWAP1 DUP1 DUP1 CALLDATALOAD PUSH20 0xFFFFFFFFFFFFFFFFFFFFFFFFFFFFFFFFFFFFFFFF AND SWAP1 PUSH1 0x20 ADD SWAP1 SWAP3 SWAP2 SWAP1 POP POP POP PUSH2 0x21DC JUMP JUMPDEST PUSH1 0x40 MLOAD DUP1 DUP3 DUP2 MSTORE PUSH1 0x20 ADD SWAP2 POP POP PUSH1 0x40 MLOAD DUP1 SWAP2 SUB SWAP1 RETURN JUMPDEST PUSH2 0xC22 PUSH1 0x4 DUP1 CALLDATASIZE SUB PUSH1 0x40 DUP2 LT ISZERO PUSH2 0xBD6 JUMPI PUSH1 0x0 DUP1 REVERT JUMPDEST DUP2 ADD SWAP1 DUP1 DUP1 CALLDATALOAD PUSH20 0xFFFFFFFFFFFFFFFFFFFFFFFFFFFFFFFFFFFFFFFF AND SWAP1 PUSH1 0x20 ADD SWAP1 SWAP3 SWAP2 SWAP1 DUP1 CALLDATALOAD PUSH20 0xFFFFFFFFFFFFFFFFFFFFFFFFFFFFFFFFFFFFFFFF AND SWAP1 PUSH1 0x20 ADD SWAP1 SWAP3 SWAP2 SWAP1 POP POP POP PUSH2 0x2361 JUMP JUMPDEST PUSH1 0x40 MLOAD DUP1 DUP3 DUP2 MSTORE PUSH1 0x20 ADD SWAP2 POP POP PUSH1 0x40 MLOAD DUP1 SWAP2 SUB SWAP1 RETURN JUMPDEST PUSH2 0xCF1 PUSH1 0x4 DUP1 CALLDATASIZE SUB PUSH1 0x20 DUP2 LT ISZERO PUSH2 0xC4E JUMPI PUSH1 0x0 DUP1 REVERT JUMPDEST DUP2 ADD SWAP1 DUP1 DUP1 CALLDATALOAD SWAP1 PUSH1 0x20 ADD SWAP1 PUSH5 0x100000000 DUP2 GT ISZERO PUSH2 0xC6B JUMPI PUSH1 0x0 DUP1 REVERT JUMPDEST DUP3 ADD DUP4 PUSH1 0x20 DUP3 ADD GT ISZERO PUSH2 0xC7D JUMPI PUSH1 0x0 DUP1 REVERT JUMPDEST DUP1 CALLDATALOAD SWAP1 PUSH1 0x20 ADD SWAP2 DUP5 PUSH1 0x1 DUP4 MUL DUP5 ADD GT PUSH5 0x100000000 DUP4 GT OR ISZERO PUSH2 0xC9F JUMPI PUSH1 0x0 DUP1 REVERT JUMPDEST SWAP2 SWAP1 DUP1 DUP1 PUSH1 0x1F ADD PUSH1 0x20 DUP1 SWAP2 DIV MUL PUSH1 0x20 ADD PUSH1 0x40 MLOAD SWAP1 DUP2 ADD PUSH1 0x40 MSTORE DUP1 SWAP4 SWAP3 SWAP2 SWAP1 DUP2 DUP2 MSTORE PUSH1 0x20 ADD DUP4 DUP4 DUP1 DUP3 DUP5 CALLDATACOPY PUSH1 0x0 DUP2 DUP5 ADD MSTORE PUSH1 0x1F NOT PUSH1 0x1F DUP3 ADD AND SWAP1 POP DUP1 DUP4 ADD SWAP3 POP POP POP POP POP POP POP SWAP2 SWAP3 SWAP2 SWAP3 SWAP1 POP POP POP PUSH2 0x23E8 JUMP JUMPDEST PUSH1 0x40 MLOAD DUP1 DUP3 DUP2 MSTORE PUSH1 0x20 ADD SWAP2 POP POP PUSH1 0x40 MLOAD DUP1 SWAP2 SUB SWAP1 RETURN JUMPDEST PUSH2 0xD49 PUSH1 0x4 DUP1 CALLDATASIZE SUB PUSH1 0x20 DUP2 LT ISZERO PUSH2 0xD1D JUMPI PUSH1 0x0 DUP1 REVERT JUMPDEST DUP2 ADD SWAP1 DUP1 DUP1 CALLDATALOAD PUSH20 0xFFFFFFFFFFFFFFFFFFFFFFFFFFFFFFFFFFFFFFFF AND SWAP1 PUSH1 0x20 ADD SWAP1 SWAP3 SWAP2 SWAP1 POP POP POP PUSH2 0x245E JUMP JUMPDEST STOP JUMPDEST PUSH1 0x4 DUP1 SLOAD PUSH1 0x1 DUP2 PUSH1 0x1 AND ISZERO PUSH2 0x100 MUL SUB AND PUSH1 0x2 SWAP1 DIV DUP1 PUSH1 0x1F ADD PUSH1 0x20 DUP1 SWAP2 DIV MUL PUSH1 0x20 ADD PUSH1 0x40 MLOAD SWAP1 DUP2 ADD PUSH1 0x40 MSTORE DUP1 SWAP3 SWAP2 SWAP1 DUP2 DUP2 MSTORE PUSH1 0x20 ADD DUP3 DUP1 SLOAD PUSH1 0x1 DUP2 PUSH1 0x1 AND ISZERO PUSH2 0x100 MUL SUB AND PUSH1 0x2 SWAP1 DIV DUP1 ISZERO PUSH2 0xDE1 JUMPI DUP1 PUSH1 0x1F LT PUSH2 0xDB6 JUMPI PUSH2 0x100 DUP1 DUP4 SLOAD DIV MUL DUP4 MSTORE SWAP2 PUSH1 0x20 ADD SWAP2 PUSH2 0xDE1 JUMP JUMPDEST DUP3 ADD SWAP2 SWAP1 PUSH1 0x0 MSTORE PUSH1 0x20 PUSH1 0x0 KECCAK256 SWAP1 JUMPDEST DUP2 SLOAD DUP2 MSTORE SWAP1 PUSH1 0x1 ADD SWAP1 PUSH1 0x20 ADD DUP1 DUP4 GT PUSH2 0xDC4 JUMPI DUP3 SWAP1 SUB PUSH1 0x1F AND DUP3 ADD SWAP2 JUMPDEST POP POP POP POP POP DUP2 JUMP JUMPDEST PUSH1 0x0 PUSH2 0xDF6 CALLER DUP5 DUP5 PUSH2 0x24E4 JUMP JUMPDEST PUSH1 0x1 SWAP1 POP SWAP3 SWAP2 POP POP JUMP JUMPDEST PUSH1 0x0 PUSH1 0x2 SLOAD SWAP1 POP SWAP1 JUMP JUMPDEST PUSH1 0x9 PUSH1 0x0 CALLER PUSH20 0xFFFFFFFFFFFFFFFFFFFFFFFFFFFFFFFFFFFFFFFF AND PUSH20 0xFFFFFFFFFFFFFFFFFFFFFFFFFFFFFFFFFFFFFFFF AND DUP2 MSTORE PUSH1 0x20 ADD SWAP1 DUP2 MSTORE PUSH1 0x20 ADD PUSH1 0x0 KECCAK256 PUSH1 0x0 ADD PUSH1 0x0 SWAP1 SLOAD SWAP1 PUSH2 0x100 EXP SWAP1 DIV PUSH1 0xFF AND PUSH2 0xE63 JUMPI PUSH1 0x0 DUP1 REVERT JUMPDEST PUSH1 0x0 PUSH1 0x9 PUSH1 0x0 CALLER PUSH20 0xFFFFFFFFFFFFFFFFFFFFFFFFFFFFFFFFFFFFFFFF AND PUSH20 0xFFFFFFFFFFFFFFFFFFFFFFFFFFFFFFFFFFFFFFFF AND DUP2 MSTORE PUSH1 0x20 ADD SWAP1 DUP2 MSTORE PUSH1 0x20 ADD PUSH1 0x0 KECCAK256 PUSH1 0x0 ADD PUSH1 0x1 SWAP1 SLOAD SWAP1 PUSH2 0x100 EXP SWAP1 DIV PUSH20 0xFFFFFFFFFFFFFFFFFFFFFFFFFFFFFFFFFFFFFFFF AND SWAP1 POP PUSH1 0x0 PUSH1 0x7 PUSH1 0x0 DUP4 PUSH20 0xFFFFFFFFFFFFFFFFFFFFFFFFFFFFFFFFFFFFFFFF AND PUSH20 0xFFFFFFFFFFFFFFFFFFFFFFFFFFFFFFFFFFFFFFFF AND DUP2 MSTORE PUSH1 0x20 ADD SWAP1 DUP2 MSTORE PUSH1 0x20 ADD PUSH1 0x0 KECCAK256 SWAP1 POP PUSH1 0xA SLOAD DUP2 PUSH1 0x4 ADD SLOAD EQ PUSH2 0xF3D JUMPI PUSH1 0xA SLOAD DUP2 PUSH1 0x4 ADD DUP2 SWAP1 SSTORE POP DUP1 PUSH1 0x2 ADD SLOAD DUP2 PUSH1 0x3 ADD DUP2 SWAP1 SSTORE POP PUSH1 0x0 DUP2 PUSH1 0x2 ADD DUP2 SWAP1 SSTORE POP JUMPDEST PUSH2 0xF54 DUP4 DUP3 PUSH1 0x2 ADD SLOAD PUSH2 0x26DB SWAP1 SWAP2 SWAP1 PUSH4 0xFFFFFFFF AND JUMP JUMPDEST DUP2 PUSH1 0x2 ADD DUP2 SWAP1 SSTORE POP POP POP POP JUMP JUMPDEST PUSH1 0x0 DUP1 PUSH1 0x7 PUSH1 0x0 DUP6 PUSH20 0xFFFFFFFFFFFFFFFFFFFFFFFFFFFFFFFFFFFFFFFF AND PUSH20 0xFFFFFFFFFFFFFFFFFFFFFFFFFFFFFFFFFFFFFFFF AND DUP2 MSTORE PUSH1 0x20 ADD SWAP1 DUP2 MSTORE PUSH1 0x20 ADD PUSH1 0x0 KECCAK256 SWAP1 POP PUSH1 0x0 PUSH1 0x7 PUSH1 0x0 CALLER PUSH20 0xFFFFFFFFFFFFFFFFFFFFFFFFFFFFFFFFFFFFFFFF AND PUSH20 0xFFFFFFFFFFFFFFFFFFFFFFFFFFFFFFFFFFFFFFFF AND DUP2 MSTORE PUSH1 0x20 ADD SWAP1 DUP2 MSTORE PUSH1 0x20 ADD PUSH1 0x0 KECCAK256 SWAP1 POP DUP2 PUSH1 0x0 ADD PUSH1 0x0 SWAP1 SLOAD SWAP1 PUSH2 0x100 EXP SWAP1 DIV PUSH1 0xFF AND PUSH2 0x1003 JUMPI PUSH1 0x0 DUP1 REVERT JUMPDEST DUP1 PUSH1 0x0 ADD PUSH1 0x0 SWAP1 SLOAD SWAP1 PUSH2 0x100 EXP SWAP1 DIV PUSH1 0xFF AND PUSH2 0x101E JUMPI PUSH1 0x0 DUP1 REVERT JUMPDEST PUSH1 0x0 PUSH1 0x8 DUP4 PUSH1 0x1 ADD PUSH1 0x40 MLOAD DUP1 DUP3 DUP1 SLOAD PUSH1 0x1 DUP2 PUSH1 0x1 AND ISZERO PUSH2 0x100 MUL SUB AND PUSH1 0x2 SWAP1 DIV DUP1 ISZERO PUSH2 0x1081 JUMPI DUP1 PUSH1 0x1F LT PUSH2 0x105F JUMPI PUSH2 0x100 DUP1 DUP4 SLOAD DIV MUL DUP4 MSTORE SWAP2 DUP3 ADD SWAP2 PUSH2 0x1081 JUMP JUMPDEST DUP3 ADD SWAP2 SWAP1 PUSH1 0x0 MSTORE PUSH1 0x20 PUSH1 0x0 KECCAK256 SWAP1 JUMPDEST DUP2 SLOAD DUP2 MSTORE SWAP1 PUSH1 0x1 ADD SWAP1 PUSH1 0x20 ADD DUP1 DUP4 GT PUSH2 0x106D JUMPI JUMPDEST POP POP SWAP2 POP POP SWAP1 DUP2 MSTORE PUSH1 0x20 ADD PUSH1 0x40 MLOAD DUP1 SWAP2 SUB SWAP1 KECCAK256 SWAP1 POP PUSH1 0x0 PUSH1 0x8 DUP4 PUSH1 0x1 ADD PUSH1 0x40 MLOAD DUP1 DUP3 DUP1 SLOAD PUSH1 0x1 DUP2 PUSH1 0x1 AND ISZERO PUSH2 0x100 MUL SUB AND PUSH1 0x2 SWAP1 DIV DUP1 ISZERO PUSH2 0x10F9 JUMPI DUP1 PUSH1 0x1F LT PUSH2 0x10D7 JUMPI PUSH2 0x100 DUP1 DUP4 SLOAD DIV MUL DUP4 MSTORE SWAP2 DUP3 ADD SWAP2 PUSH2 0x10F9 JUMP JUMPDEST DUP3 ADD SWAP2 SWAP1 PUSH1 0x0 MSTORE PUSH1 0x20 PUSH1 0x0 KECCAK256 SWAP1 JUMPDEST DUP2 SLOAD DUP2 MSTORE SWAP1 PUSH1 0x1 ADD SWAP1 PUSH1 0x20 ADD DUP1 DUP4 GT PUSH2 0x10E5 JUMPI JUMPDEST POP POP SWAP2 POP POP SWAP1 DUP2 MSTORE PUSH1 0x20 ADD PUSH1 0x40 MLOAD DUP1 SWAP2 SUB SWAP1 KECCAK256 SWAP1 POP DUP2 PUSH1 0x0 ADD SLOAD PUSH2 0x112A DUP8 DUP5 PUSH1 0x1 ADD SLOAD PUSH2 0x26DB SWAP1 SWAP2 SWAP1 PUSH4 0xFFFFFFFF AND JUMP JUMPDEST GT ISZERO PUSH2 0x1135 JUMPI PUSH1 0x0 DUP1 REVERT JUMPDEST PUSH2 0x114C DUP7 DUP4 PUSH1 0x1 ADD SLOAD PUSH2 0x26DB SWAP1 SWAP2 SWAP1 PUSH4 0xFFFFFFFF AND JUMP JUMPDEST DUP3 PUSH1 0x1 ADD DUP2 SWAP1 SSTORE POP PUSH2 0x116B DUP7 DUP3 PUSH1 0x1 ADD SLOAD PUSH2 0x2763 SWAP1 SWAP2 SWAP1 PUSH4 0xFFFFFFFF AND JUMP JUMPDEST DUP2 PUSH1 0x1 ADD DUP2 SWAP1 SSTORE POP PUSH2 0x117E DUP9 DUP9 DUP9 PUSH2 0x27EC JUMP JUMPDEST SWAP5 POP POP POP POP POP SWAP4 SWAP3 POP POP POP JUMP JUMPDEST PUSH1 0x0 PUSH1 0x8 DUP3 PUSH1 0x40 MLOAD DUP1 DUP3 DUP1 MLOAD SWAP1 PUSH1 0x20 ADD SWAP1 DUP1 DUP4 DUP4 JUMPDEST PUSH1 0x20 DUP4 LT PUSH2 0x11C3 JUMPI DUP1 MLOAD DUP3 MSTORE PUSH1 0x20 DUP3 ADD SWAP2 POP PUSH1 0x20 DUP2 ADD SWAP1 POP PUSH1 0x20 DUP4 SUB SWAP3 POP PUSH2 0x11A0 JUMP JUMPDEST PUSH1 0x1 DUP4 PUSH1 0x20 SUB PUSH2 0x100 EXP SUB DUP1 NOT DUP3 MLOAD AND DUP2 DUP5 MLOAD AND DUP1 DUP3 OR DUP6 MSTORE POP POP POP POP POP POP SWAP1 POP ADD SWAP2 POP POP SWAP1 DUP2 MSTORE PUSH1 0x20 ADD PUSH1 0x40 MLOAD DUP1 SWAP2 SUB SWAP1 KECCAK256 PUSH1 0x1 ADD SLOAD SWAP1 POP SWAP2 SWAP1 POP JUMP JUMPDEST PUSH1 0x5 PUSH1 0x0 SWAP1 SLOAD SWAP1 PUSH2 0x100 EXP SWAP1 DIV PUSH1 0xFF AND DUP2 JUMP JUMPDEST PUSH2 0x121C PUSH2 0x1CBC JUMP JUMPDEST PUSH2 0x128E JUMPI PUSH1 0x40 MLOAD PUSH32 0x8C379A000000000000000000000000000000000000000000000000000000000 DUP2 MSTORE PUSH1 0x4 ADD DUP1 DUP1 PUSH1 0x20 ADD DUP3 DUP2 SUB DUP3 MSTORE PUSH1 0x20 DUP2 MSTORE PUSH1 0x20 ADD DUP1 PUSH32 0x4F776E61626C653A2063616C6C6572206973206E6F7420746865206F776E6572 DUP2 MSTORE POP PUSH1 0x20 ADD SWAP2 POP POP PUSH1 0x40 MLOAD DUP1 SWAP2 SUB SWAP1 REVERT JUMPDEST DUP1 PUSH1 0x7 PUSH1 0x0 DUP5 PUSH20 0xFFFFFFFFFFFFFFFFFFFFFFFFFFFFFFFFFFFFFFFF AND PUSH20 0xFFFFFFFFFFFFFFFFFFFFFFFFFFFFFFFFFFFFFFFF AND DUP2 MSTORE PUSH1 0x20 ADD SWAP1 DUP2 MSTORE PUSH1 0x20 ADD PUSH1 0x0 KECCAK256 PUSH1 0x1 ADD SWAP1 DUP1 MLOAD SWAP1 PUSH1 0x20 ADD SWAP1 PUSH2 0x12E4 SWAP3 SWAP2 SWAP1 PUSH2 0x2E3E JUMP JUMPDEST POP PUSH1 0x1 PUSH1 0x7 PUSH1 0x0 DUP5 PUSH20 0xFFFFFFFFFFFFFFFFFFFFFFFFFFFFFFFFFFFFFFFF AND PUSH20 0xFFFFFFFFFFFFFFFFFFFFFFFFFFFFFFFFFFFFFFFF AND DUP2 MSTORE PUSH1 0x20 ADD SWAP1 DUP2 MSTORE PUSH1 0x20 ADD PUSH1 0x0 KECCAK256 PUSH1 0x0 ADD PUSH1 0x0 PUSH2 0x100 EXP DUP2 SLOAD DUP2 PUSH1 0xFF MUL NOT AND SWAP1 DUP4 ISZERO ISZERO MUL OR SWAP1 SSTORE POP PUSH1 0x0 PUSH1 0x7 PUSH1 0x0 DUP5 PUSH20 0xFFFFFFFFFFFFFFFFFFFFFFFFFFFFFFFFFFFFFFFF AND PUSH20 0xFFFFFFFFFFFFFFFFFFFFFFFFFFFFFFFFFFFFFFFF AND DUP2 MSTORE PUSH1 0x20 ADD SWAP1 DUP2 MSTORE PUSH1 0x20 ADD PUSH1 0x0 KECCAK256 PUSH1 0x2 ADD DUP2 SWAP1 SSTORE POP POP POP JUMP JUMPDEST PUSH1 0x0 PUSH2 0x1427 CALLER DUP5 PUSH2 0x1422 DUP6 PUSH1 0x1 PUSH1 0x0 CALLER PUSH20 0xFFFFFFFFFFFFFFFFFFFFFFFFFFFFFFFFFFFFFFFF AND PUSH20 0xFFFFFFFFFFFFFFFFFFFFFFFFFFFFFFFFFFFFFFFF AND DUP2 MSTORE PUSH1 0x20 ADD SWAP1 DUP2 MSTORE PUSH1 0x20 ADD PUSH1 0x0 KECCAK256 PUSH1 0x0 DUP10 PUSH20 0xFFFFFFFFFFFFFFFFFFFFFFFFFFFFFFFFFFFFFFFF AND PUSH20 0xFFFFFFFFFFFFFFFFFFFFFFFFFFFFFFFFFFFFFFFF AND DUP2 MSTORE PUSH1 0x20 ADD SWAP1 DUP2 MSTORE PUSH1 0x20 ADD PUSH1 0x0 KECCAK256 SLOAD PUSH2 0x26DB SWAP1 SWAP2 SWAP1 PUSH4 0xFFFFFFFF AND JUMP JUMPDEST PUSH2 0x24E4 JUMP JUMPDEST PUSH1 0x1 SWAP1 POP SWAP3 SWAP2 POP POP JUMP JUMPDEST PUSH1 0x0 PUSH1 0x7 PUSH1 0x0 CALLER PUSH20 0xFFFFFFFFFFFFFFFFFFFFFFFFFFFFFFFFFFFFFFFF AND PUSH20 0xFFFFFFFFFFFFFFFFFFFFFFFFFFFFFFFFFFFFFFFF AND DUP2 MSTORE PUSH1 0x20 ADD SWAP1 DUP2 MSTORE PUSH1 0x20 ADD PUSH1 0x0 KECCAK256 SWAP1 POP DUP1 PUSH1 0x0 ADD PUSH1 0x0 SWAP1 SLOAD SWAP1 PUSH2 0x100 EXP SWAP1 DIV PUSH1 0xFF AND ISZERO PUSH2 0x1543 JUMPI PUSH1 0x0 PUSH1 0x8 DUP3 PUSH1 0x1 ADD PUSH1 0x40 MLOAD DUP1 DUP3 DUP1 SLOAD PUSH1 0x1 DUP2 PUSH1 0x1 AND ISZERO PUSH2 0x100 MUL SUB AND PUSH1 0x2 SWAP1 DIV DUP1 ISZERO PUSH2 0x14EE JUMPI DUP1 PUSH1 0x1F LT PUSH2 0x14CC JUMPI PUSH2 0x100 DUP1 DUP4 SLOAD DIV MUL DUP4 MSTORE SWAP2 DUP3 ADD SWAP2 PUSH2 0x14EE JUMP JUMPDEST DUP3 ADD SWAP2 SWAP1 PUSH1 0x0 MSTORE PUSH1 0x20 PUSH1 0x0 KECCAK256 SWAP1 JUMPDEST DUP2 SLOAD DUP2 MSTORE SWAP1 PUSH1 0x1 ADD SWAP1 PUSH1 0x20 ADD DUP1 DUP4 GT PUSH2 0x14DA JUMPI JUMPDEST POP POP SWAP2 POP POP SWAP1 DUP2 MSTORE PUSH1 0x20 ADD PUSH1 0x40 MLOAD DUP1 SWAP2 SUB SWAP1 KECCAK256 SWAP1 POP PUSH2 0x151A DUP4 DUP3 PUSH1 0x1 ADD SLOAD PUSH2 0x2763 SWAP1 SWAP2 SWAP1 PUSH4 0xFFFFFFFF AND JUMP JUMPDEST DUP2 PUSH1 0x1 ADD DUP2 SWAP1 SSTORE POP PUSH2 0x1539 DUP4 DUP3 PUSH1 0x0 ADD SLOAD PUSH2 0x2763 SWAP1 SWAP2 SWAP1 PUSH4 0xFFFFFFFF AND JUMP JUMPDEST DUP2 PUSH1 0x0 ADD DUP2 SWAP1 SSTORE POP POP JUMPDEST PUSH2 0x154D CALLER DUP4 PUSH2 0x289D JUMP JUMPDEST POP POP JUMP JUMPDEST PUSH1 0x60 PUSH1 0x7 PUSH1 0x0 DUP4 PUSH20 0xFFFFFFFFFFFFFFFFFFFFFFFFFFFFFFFFFFFFFFFF AND PUSH20 0xFFFFFFFFFFFFFFFFFFFFFFFFFFFFFFFFFFFFFFFF AND DUP2 MSTORE PUSH1 0x20 ADD SWAP1 DUP2 MSTORE PUSH1 0x20 ADD PUSH1 0x0 KECCAK256 PUSH1 0x1 ADD DUP1 SLOAD PUSH1 0x1 DUP2 PUSH1 0x1 AND ISZERO PUSH2 0x100 MUL SUB AND PUSH1 0x2 SWAP1 DIV DUP1 PUSH1 0x1F ADD PUSH1 0x20 DUP1 SWAP2 DIV MUL PUSH1 0x20 ADD PUSH1 0x40 MLOAD SWAP1 DUP2 ADD PUSH1 0x40 MSTORE DUP1 SWAP3 SWAP2 SWAP1 DUP2 DUP2 MSTORE PUSH1 0x20 ADD DUP3 DUP1 SLOAD PUSH1 0x1 DUP2 PUSH1 0x1 AND ISZERO PUSH2 0x100 MUL SUB AND PUSH1 0x2 SWAP1 DIV DUP1 ISZERO PUSH2 0x1629 JUMPI DUP1 PUSH1 0x1F LT PUSH2 0x15FE JUMPI PUSH2 0x100 DUP1 DUP4 SLOAD DIV MUL DUP4 MSTORE SWAP2 PUSH1 0x20 ADD SWAP2 PUSH2 0x1629 JUMP JUMPDEST DUP3 ADD SWAP2 SWAP1 PUSH1 0x0 MSTORE PUSH1 0x20 PUSH1 0x0 KECCAK256 SWAP1 JUMPDEST DUP2 SLOAD DUP2 MSTORE SWAP1 PUSH1 0x1 ADD SWAP1 PUSH1 0x20 ADD DUP1 DUP4 GT PUSH2 0x160C JUMPI DUP3 SWAP1 SUB PUSH1 0x1F AND DUP3 ADD SWAP2 JUMPDEST POP POP POP POP POP SWAP1 POP SWAP2 SWAP1 POP JUMP JUMPDEST PUSH1 0x0 DUP1 PUSH2 0x1640 PUSH2 0x2EBE JUMP JUMPDEST PUSH1 0x7 PUSH1 0x0 DUP6 PUSH20 0xFFFFFFFFFFFFFFFFFFFFFFFFFFFFFFFFFFFFFFFF AND PUSH20 0xFFFFFFFFFFFFFFFFFFFFFFFFFFFFFFFFFFFFFFFF AND DUP2 MSTORE PUSH1 0x20 ADD SWAP1 DUP2 MSTORE PUSH1 0x20 ADD PUSH1 0x0 KECCAK256 PUSH1 0x40 MLOAD DUP1 PUSH1 0xA0 ADD PUSH1 0x40 MSTORE SWAP1 DUP2 PUSH1 0x0 DUP3 ADD PUSH1 0x0 SWAP1 SLOAD SWAP1 PUSH2 0x100 EXP SWAP1 DIV PUSH1 0xFF AND ISZERO ISZERO ISZERO ISZERO DUP2 MSTORE PUSH1 0x20 ADD PUSH1 0x1 DUP3 ADD DUP1 SLOAD PUSH1 0x1 DUP2 PUSH1 0x1 AND ISZERO PUSH2 0x100 MUL SUB AND PUSH1 0x2 SWAP1 DIV DUP1 PUSH1 0x1F ADD PUSH1 0x20 DUP1 SWAP2 DIV MUL PUSH1 0x20 ADD PUSH1 0x40 MLOAD SWAP1 DUP2 ADD PUSH1 0x40 MSTORE DUP1 SWAP3 SWAP2 SWAP1 DUP2 DUP2 MSTORE PUSH1 0x20 ADD DUP3 DUP1 SLOAD PUSH1 0x1 DUP2 PUSH1 0x1 AND ISZERO PUSH2 0x100 MUL SUB AND PUSH1 0x2 SWAP1 DIV DUP1 ISZERO PUSH2 0x173E JUMPI DUP1 PUSH1 0x1F LT PUSH2 0x1713 JUMPI PUSH2 0x100 DUP1 DUP4 SLOAD DIV MUL DUP4 MSTORE SWAP2 PUSH1 0x20 ADD SWAP2 PUSH2 0x173E JUMP JUMPDEST DUP3 ADD SWAP2 SWAP1 PUSH1 0x0 MSTORE PUSH1 0x20 PUSH1 0x0 KECCAK256 SWAP1 JUMPDEST DUP2 SLOAD DUP2 MSTORE SWAP1 PUSH1 0x1 ADD SWAP1 PUSH1 0x20 ADD DUP1 DUP4 GT PUSH2 0x1721 JUMPI DUP3 SWAP1 SUB PUSH1 0x1F AND DUP3 ADD SWAP2 JUMPDEST POP POP POP POP POP DUP2 MSTORE PUSH1 0x20 ADD PUSH1 0x2 DUP3 ADD SLOAD DUP2 MSTORE PUSH1 0x20 ADD PUSH1 0x3 DUP3 ADD SLOAD DUP2 MSTORE PUSH1 0x20 ADD PUSH1 0x4 DUP3 ADD SLOAD DUP2 MSTORE POP POP SWAP1 POP PUSH1 0xA SLOAD DUP2 PUSH1 0x80 ADD MLOAD EQ ISZERO PUSH2 0x1781 JUMPI DUP1 PUSH1 0x40 ADD MLOAD SWAP2 POP PUSH2 0x1786 JUMP JUMPDEST PUSH1 0x0 SWAP2 POP JUMPDEST DUP2 SWAP3 POP POP POP SWAP2 SWAP1 POP JUMP JUMPDEST PUSH2 0x1798 PUSH2 0x1CBC JUMP JUMPDEST PUSH2 0x180A JUMPI PUSH1 0x40 MLOAD PUSH32 0x8C379A000000000000000000000000000000000000000000000000000000000 DUP2 MSTORE PUSH1 0x4 ADD DUP1 DUP1 PUSH1 0x20 ADD DUP3 DUP2 SUB DUP3 MSTORE PUSH1 0x20 DUP2 MSTORE PUSH1 0x20 ADD DUP1 PUSH32 0x4F776E61626C653A2063616C6C6572206973206E6F7420746865206F776E6572 DUP2 MSTORE POP PUSH1 0x20 ADD SWAP2 POP POP PUSH1 0x40 MLOAD DUP1 SWAP2 SUB SWAP1 REVERT JUMPDEST DUP1 PUSH1 0x8 DUP4 PUSH1 0x40 MLOAD DUP1 DUP3 DUP1 MLOAD SWAP1 PUSH1 0x20 ADD SWAP1 DUP1 DUP4 DUP4 JUMPDEST PUSH1 0x20 DUP4 LT PUSH2 0x1841 JUMPI DUP1 MLOAD DUP3 MSTORE PUSH1 0x20 DUP3 ADD SWAP2 POP PUSH1 0x20 DUP2 ADD SWAP1 POP PUSH1 0x20 DUP4 SUB SWAP3 POP PUSH2 0x181E JUMP JUMPDEST PUSH1 0x1 DUP4 PUSH1 0x20 SUB PUSH2 0x100 EXP SUB DUP1 NOT DUP3 MLOAD AND DUP2 DUP5 MLOAD AND DUP1 DUP3 OR DUP6 MSTORE POP POP POP POP POP POP SWAP1 POP ADD SWAP2 POP POP SWAP1 DUP2 MSTORE PUSH1 0x20 ADD PUSH1 0x40 MLOAD DUP1 SWAP2 SUB SWAP1 KECCAK256 PUSH1 0x0 ADD DUP2 SWAP1 SSTORE POP DUP1 PUSH1 0x8 DUP4 PUSH1 0x40 MLOAD DUP1 DUP3 DUP1 MLOAD SWAP1 PUSH1 0x20 ADD SWAP1 DUP1 DUP4 DUP4 JUMPDEST PUSH1 0x20 DUP4 LT PUSH2 0x18B2 JUMPI DUP1 MLOAD DUP3 MSTORE PUSH1 0x20 DUP3 ADD SWAP2 POP PUSH1 0x20 DUP2 ADD SWAP1 POP PUSH1 0x20 DUP4 SUB SWAP3 POP PUSH2 0x188F JUMP JUMPDEST PUSH1 0x1 DUP4 PUSH1 0x20 SUB PUSH2 0x100 EXP SUB DUP1 NOT DUP3 MLOAD AND DUP2 DUP5 MLOAD AND DUP1 DUP3 OR DUP6 MSTORE POP POP POP POP POP POP SWAP1 POP ADD SWAP2 POP POP SWAP1 DUP2 MSTORE PUSH1 0x20 ADD PUSH1 0x40 MLOAD DUP1 SWAP2 SUB SWAP1 KECCAK256 PUSH1 0x2 ADD DUP2 SWAP1 SSTORE POP POP POP JUMP JUMPDEST PUSH2 0x18F8 PUSH2 0x1CBC JUMP JUMPDEST PUSH2 0x196A JUMPI PUSH1 0x40 MLOAD PUSH32 0x8C379A000000000000000000000000000000000000000000000000000000000 DUP2 MSTORE PUSH1 0x4 ADD DUP1 DUP1 PUSH1 0x20 ADD DUP3 DUP2 SUB DUP3 MSTORE PUSH1 0x20 DUP2 MSTORE PUSH1 0x20 ADD DUP1 PUSH32 0x4F776E61626C653A2063616C6C6572206973206E6F7420746865206F776E6572 DUP2 MSTORE POP PUSH1 0x20 ADD SWAP2 POP POP PUSH1 0x40 MLOAD DUP1 SWAP2 SUB SWAP1 REVERT JUMPDEST PUSH1 0x1 PUSH1 0xA SLOAD ADD PUSH1 0xA DUP2 SWAP1 SSTORE POP JUMP JUMPDEST PUSH1 0x0 DUP1 PUSH1 0x0 DUP4 PUSH20 0xFFFFFFFFFFFFFFFFFFFFFFFFFFFFFFFFFFFFFFFF AND PUSH20 0xFFFFFFFFFFFFFFFFFFFFFFFFFFFFFFFFFFFFFFFF AND DUP2 MSTORE PUSH1 0x20 ADD SWAP1 DUP2 MSTORE PUSH1 0x20 ADD PUSH1 0x0 KECCAK256 SLOAD SWAP1 POP SWAP2 SWAP1 POP JUMP JUMPDEST PUSH2 0x19C8 PUSH2 0x1CBC JUMP JUMPDEST PUSH2 0x1A3A JUMPI PUSH1 0x40 MLOAD PUSH32 0x8C379A000000000000000000000000000000000000000000000000000000000 DUP2 MSTORE PUSH1 0x4 ADD DUP1 DUP1 PUSH1 0x20 ADD DUP3 DUP2 SUB DUP3 MSTORE PUSH1 0x20 DUP2 MSTORE PUSH1 0x20 ADD DUP1 PUSH32 0x4F776E61626C653A2063616C6C6572206973206E6F7420746865206F776E6572 DUP2 MSTORE POP PUSH1 0x20 ADD SWAP2 POP POP PUSH1 0x40 MLOAD DUP1 SWAP2 SUB SWAP1 REVERT JUMPDEST PUSH1 0x0 PUSH20 0xFFFFFFFFFFFFFFFFFFFFFFFFFFFFFFFFFFFFFFFF AND PUSH1 0x3 PUSH1 0x0 SWAP1 SLOAD SWAP1 PUSH2 0x100 EXP SWAP1 DIV PUSH20 0xFFFFFFFFFFFFFFFFFFFFFFFFFFFFFFFFFFFFFFFF AND PUSH20 0xFFFFFFFFFFFFFFFFFFFFFFFFFFFFFFFFFFFFFFFF AND PUSH32 0x8BE0079C531659141344CD1FD0A4F28419497F9722A3DAAFE3B4186F6B6457E0 PUSH1 0x40 MLOAD PUSH1 0x40 MLOAD DUP1 SWAP2 SUB SWAP1 LOG3 PUSH1 0x0 PUSH1 0x3 PUSH1 0x0 PUSH2 0x100 EXP DUP2 SLOAD DUP2 PUSH20 0xFFFFFFFFFFFFFFFFFFFFFFFFFFFFFFFFFFFFFFFF MUL NOT AND SWAP1 DUP4 PUSH20 0xFFFFFFFFFFFFFFFFFFFFFFFFFFFFFFFFFFFFFFFF AND MUL OR SWAP1 SSTORE POP JUMP JUMPDEST PUSH1 0x0 PUSH1 0x7 PUSH1 0x0 DUP5 PUSH20 0xFFFFFFFFFFFFFFFFFFFFFFFFFFFFFFFFFFFFFFFF AND PUSH20 0xFFFFFFFFFFFFFFFFFFFFFFFFFFFFFFFFFFFFFFFF AND DUP2 MSTORE PUSH1 0x20 ADD SWAP1 DUP2 MSTORE PUSH1 0x20 ADD PUSH1 0x0 KECCAK256 SWAP1 POP DUP1 PUSH1 0x0 ADD PUSH1 0x0 SWAP1 SLOAD SWAP1 PUSH2 0x100 EXP SWAP1 DIV PUSH1 0xFF AND ISZERO PUSH2 0x1C0D JUMPI PUSH1 0x0 PUSH1 0x8 DUP3 PUSH1 0x1 ADD PUSH1 0x40 MLOAD DUP1 DUP3 DUP1 SLOAD PUSH1 0x1 DUP2 PUSH1 0x1 AND ISZERO PUSH2 0x100 MUL SUB AND PUSH1 0x2 SWAP1 DIV DUP1 ISZERO PUSH2 0x1BB8 JUMPI DUP1 PUSH1 0x1F LT PUSH2 0x1B96 JUMPI PUSH2 0x100 DUP1 DUP4 SLOAD DIV MUL DUP4 MSTORE SWAP2 DUP3 ADD SWAP2 PUSH2 0x1BB8 JUMP JUMPDEST DUP3 ADD SWAP2 SWAP1 PUSH1 0x0 MSTORE PUSH1 0x20 PUSH1 0x0 KECCAK256 SWAP1 JUMPDEST DUP2 SLOAD DUP2 MSTORE SWAP1 PUSH1 0x1 ADD SWAP1 PUSH1 0x20 ADD DUP1 DUP4 GT PUSH2 0x1BA4 JUMPI JUMPDEST POP POP SWAP2 POP POP SWAP1 DUP2 MSTORE PUSH1 0x20 ADD PUSH1 0x40 MLOAD DUP1 SWAP2 SUB SWAP1 KECCAK256 SWAP1 POP PUSH2 0x1BE4 DUP4 DUP3 PUSH1 0x1 ADD SLOAD PUSH2 0x2763 SWAP1 SWAP2 SWAP1 PUSH4 0xFFFFFFFF AND JUMP JUMPDEST DUP2 PUSH1 0x1 ADD DUP2 SWAP1 SSTORE POP PUSH2 0x1C03 DUP4 DUP3 PUSH1 0x0 ADD SLOAD PUSH2 0x2763 SWAP1 SWAP2 SWAP1 PUSH4 0xFFFFFFFF AND JUMP JUMPDEST DUP2 PUSH1 0x0 ADD DUP2 SWAP1 SSTORE POP POP JUMPDEST PUSH2 0x1C17 DUP4 DUP4 PUSH2 0x2A3B JUMP JUMPDEST POP POP POP JUMP JUMPDEST PUSH1 0x0 PUSH1 0x8 DUP3 PUSH1 0x40 MLOAD DUP1 DUP3 DUP1 MLOAD SWAP1 PUSH1 0x20 ADD SWAP1 DUP1 DUP4 DUP4 JUMPDEST PUSH1 0x20 DUP4 LT PUSH2 0x1C54 JUMPI DUP1 MLOAD DUP3 MSTORE PUSH1 0x20 DUP3 ADD SWAP2 POP PUSH1 0x20 DUP2 ADD SWAP1 POP PUSH1 0x20 DUP4 SUB SWAP3 POP PUSH2 0x1C31 JUMP JUMPDEST PUSH1 0x1 DUP4 PUSH1 0x20 SUB PUSH2 0x100 EXP SUB DUP1 NOT DUP3 MLOAD AND DUP2 DUP5 MLOAD AND DUP1 DUP3 OR DUP6 MSTORE POP POP POP POP POP POP SWAP1 POP ADD SWAP2 POP POP SWAP1 DUP2 MSTORE PUSH1 0x20 ADD PUSH1 0x40 MLOAD DUP1 SWAP2 SUB SWAP1 KECCAK256 PUSH1 0x0 ADD SLOAD SWAP1 POP SWAP2 SWAP1 POP JUMP JUMPDEST PUSH1 0x0 PUSH1 0x3 PUSH1 0x0 SWAP1 SLOAD SWAP1 PUSH2 0x100 EXP SWAP1 DIV PUSH20 0xFFFFFFFFFFFFFFFFFFFFFFFFFFFFFFFFFFFFFFFF AND SWAP1 POP SWAP1 JUMP JUMPDEST PUSH1 0x0 PUSH1 0x3 PUSH1 0x0 SWAP1 SLOAD SWAP1 PUSH2 0x100 EXP SWAP1 DIV PUSH20 0xFFFFFFFFFFFFFFFFFFFFFFFFFFFFFFFFFFFFFFFF AND PUSH20 0xFFFFFFFFFFFFFFFFFFFFFFFFFFFFFFFFFFFFFFFF AND CALLER PUSH20 0xFFFFFFFFFFFFFFFFFFFFFFFFFFFFFFFFFFFFFFFF AND EQ SWAP1 POP SWAP1 JUMP JUMPDEST PUSH1 0x6 DUP1 SLOAD PUSH1 0x1 DUP2 PUSH1 0x1 AND ISZERO PUSH2 0x100 MUL SUB AND PUSH1 0x2 SWAP1 DIV DUP1 PUSH1 0x1F ADD PUSH1 0x20 DUP1 SWAP2 DIV MUL PUSH1 0x20 ADD PUSH1 0x40 MLOAD SWAP1 DUP2 ADD PUSH1 0x40 MSTORE DUP1 SWAP3 SWAP2 SWAP1 DUP2 DUP2 MSTORE PUSH1 0x20 ADD DUP3 DUP1 SLOAD PUSH1 0x1 DUP2 PUSH1 0x1 AND ISZERO PUSH2 0x100 MUL SUB AND PUSH1 0x2 SWAP1 DIV DUP1 ISZERO PUSH2 0x1DAA JUMPI DUP1 PUSH1 0x1F LT PUSH2 0x1D7F JUMPI PUSH2 0x100 DUP1 DUP4 SLOAD DIV MUL DUP4 MSTORE SWAP2 PUSH1 0x20 ADD SWAP2 PUSH2 0x1DAA JUMP JUMPDEST DUP3 ADD SWAP2 SWAP1 PUSH1 0x0 MSTORE PUSH1 0x20 PUSH1 0x0 KECCAK256 SWAP1 JUMPDEST DUP2 SLOAD DUP2 MSTORE SWAP1 PUSH1 0x1 ADD SWAP1 PUSH1 0x20 ADD DUP1 DUP4 GT PUSH2 0x1D8D JUMPI DUP3 SWAP1 SUB PUSH1 0x1F AND DUP3 ADD SWAP2 JUMPDEST POP POP POP POP POP DUP2 JUMP JUMPDEST PUSH1 0x0 PUSH2 0x1E4D CALLER DUP5 PUSH2 0x1E48 DUP6 PUSH1 0x1 PUSH1 0x0 CALLER PUSH20 0xFFFFFFFFFFFFFFFFFFFFFFFFFFFFFFFFFFFFFFFF AND PUSH20 0xFFFFFFFFFFFFFFFFFFFFFFFFFFFFFFFFFFFFFFFF AND DUP2 MSTORE PUSH1 0x20 ADD SWAP1 DUP2 MSTORE PUSH1 0x20 ADD PUSH1 0x0 KECCAK256 PUSH1 0x0 DUP10 PUSH20 0xFFFFFFFFFFFFFFFFFFFFFFFFFFFFFFFFFFFFFFFF AND PUSH20 0xFFFFFFFFFFFFFFFFFFFFFFFFFFFFFFFFFFFFFFFF AND DUP2 MSTORE PUSH1 0x20 ADD SWAP1 DUP2 MSTORE PUSH1 0x20 ADD PUSH1 0x0 KECCAK256 SLOAD PUSH2 0x2763 SWAP1 SWAP2 SWAP1 PUSH4 0xFFFFFFFF AND JUMP JUMPDEST PUSH2 0x24E4 JUMP JUMPDEST PUSH1 0x1 SWAP1 POP SWAP3 SWAP2 POP POP JUMP JUMPDEST PUSH1 0x0 DUP1 PUSH1 0x7 PUSH1 0x0 DUP6 PUSH20 0xFFFFFFFFFFFFFFFFFFFFFFFFFFFFFFFFFFFFFFFF AND PUSH20 0xFFFFFFFFFFFFFFFFFFFFFFFFFFFFFFFFFFFFFFFF AND DUP2 MSTORE PUSH1 0x20 ADD SWAP1 DUP2 MSTORE PUSH1 0x20 ADD PUSH1 0x0 KECCAK256 SWAP1 POP PUSH1 0x0 PUSH1 0x7 PUSH1 0x0 CALLER PUSH20 0xFFFFFFFFFFFFFFFFFFFFFFFFFFFFFFFFFFFFFFFF AND PUSH20 0xFFFFFFFFFFFFFFFFFFFFFFFFFFFFFFFFFFFFFFFF AND DUP2 MSTORE PUSH1 0x20 ADD SWAP1 DUP2 MSTORE PUSH1 0x20 ADD PUSH1 0x0 KECCAK256 SWAP1 POP DUP2 PUSH1 0x0 ADD PUSH1 0x0 SWAP1 SLOAD SWAP1 PUSH2 0x100 EXP SWAP1 DIV PUSH1 0xFF AND PUSH2 0x1EF9 JUMPI PUSH1 0x0 DUP1 REVERT JUMPDEST DUP1 PUSH1 0x0 ADD PUSH1 0x0 SWAP1 SLOAD SWAP1 PUSH2 0x100 EXP SWAP1 DIV PUSH1 0xFF AND PUSH2 0x1F14 JUMPI PUSH1 0x0 DUP1 REVERT JUMPDEST PUSH1 0x0 PUSH1 0x8 DUP4 PUSH1 0x1 ADD PUSH1 0x40 MLOAD DUP1 DUP3 DUP1 SLOAD PUSH1 0x1 DUP2 PUSH1 0x1 AND ISZERO PUSH2 0x100 MUL SUB AND PUSH1 0x2 SWAP1 DIV DUP1 ISZERO PUSH2 0x1F77 JUMPI DUP1 PUSH1 0x1F LT PUSH2 0x1F55 JUMPI PUSH2 0x100 DUP1 DUP4 SLOAD DIV MUL DUP4 MSTORE SWAP2 DUP3 ADD SWAP2 PUSH2 0x1F77 JUMP JUMPDEST DUP3 ADD SWAP2 SWAP1 PUSH1 0x0 MSTORE PUSH1 0x20 PUSH1 0x0 KECCAK256 SWAP1 JUMPDEST DUP2 SLOAD DUP2 MSTORE SWAP1 PUSH1 0x1 ADD SWAP1 PUSH1 0x20 ADD DUP1 DUP4 GT PUSH2 0x1F63 JUMPI JUMPDEST POP POP SWAP2 POP POP SWAP1 DUP2 MSTORE PUSH1 0x20 ADD PUSH1 0x40 MLOAD DUP1 SWAP2 SUB SWAP1 KECCAK256 SWAP1 POP PUSH1 0x0 PUSH1 0x8 DUP4 PUSH1 0x1 ADD PUSH1 0x40 MLOAD DUP1 DUP3 DUP1 SLOAD PUSH1 0x1 DUP2 PUSH1 0x1 AND ISZERO PUSH2 0x100 MUL SUB AND PUSH1 0x2 SWAP1 DIV DUP1 ISZERO PUSH2 0x1FEF JUMPI DUP1 PUSH1 0x1F LT PUSH2 0x1FCD JUMPI PUSH2 0x100 DUP1 DUP4 SLOAD DIV MUL DUP4 MSTORE SWAP2 DUP3 ADD SWAP2 PUSH2 0x1FEF JUMP JUMPDEST DUP3 ADD SWAP2 SWAP1 PUSH1 0x0 MSTORE PUSH1 0x20 PUSH1 0x0 KECCAK256 SWAP1 JUMPDEST DUP2 SLOAD DUP2 MSTORE SWAP1 PUSH1 0x1 ADD SWAP1 PUSH1 0x20 ADD DUP1 DUP4 GT PUSH2 0x1FDB JUMPI JUMPDEST POP POP SWAP2 POP POP SWAP1 DUP2 MSTORE PUSH1 0x20 ADD PUSH1 0x40 MLOAD DUP1 SWAP2 SUB SWAP1 KECCAK256 SWAP1 POP DUP2 PUSH1 0x0 ADD SLOAD PUSH2 0x2020 DUP8 DUP5 PUSH1 0x1 ADD SLOAD PUSH2 0x26DB SWAP1 SWAP2 SWAP1 PUSH4 0xFFFFFFFF AND JUMP JUMPDEST GT ISZERO PUSH2 0x202B JUMPI PUSH1 0x0 DUP1 REVERT JUMPDEST PUSH2 0x2042 DUP7 DUP4 PUSH1 0x1 ADD SLOAD PUSH2 0x26DB SWAP1 SWAP2 SWAP1 PUSH4 0xFFFFFFFF AND JUMP JUMPDEST DUP3 PUSH1 0x1 ADD DUP2 SWAP1 SSTORE POP PUSH2 0x2061 DUP7 DUP3 PUSH1 0x1 ADD SLOAD PUSH2 0x2763 SWAP1 SWAP2 SWAP1 PUSH4 0xFFFFFFFF AND JUMP JUMPDEST DUP2 PUSH1 0x1 ADD DUP2 SWAP1 SSTORE POP PUSH2 0x2074 CALLER DUP9 DUP9 PUSH2 0x2AE2 JUMP JUMPDEST PUSH1 0x1 SWAP5 POP POP POP POP POP SWAP3 SWAP2 POP POP JUMP JUMPDEST PUSH2 0x208A PUSH2 0x1CBC JUMP JUMPDEST PUSH2 0x20FC JUMPI PUSH1 0x40 MLOAD PUSH32 0x8C379A000000000000000000000000000000000000000000000000000000000 DUP2 MSTORE PUSH1 0x4 ADD DUP1 DUP1 PUSH1 0x20 ADD DUP3 DUP2 SUB DUP3 MSTORE PUSH1 0x20 DUP2 MSTORE PUSH1 0x20 ADD DUP1 PUSH32 0x4F776E61626C653A2063616C6C6572206973206E6F7420746865206F776E6572 DUP2 MSTORE POP PUSH1 0x20 ADD SWAP2 POP POP PUSH1 0x40 MLOAD DUP1 SWAP2 SUB SWAP1 REVERT JUMPDEST DUP2 PUSH1 0x9 PUSH1 0x0 DUP4 PUSH20 0xFFFFFFFFFFFFFFFFFFFFFFFFFFFFFFFFFFFFFFFF AND PUSH20 0xFFFFFFFFFFFFFFFFFFFFFFFFFFFFFFFFFFFFFFFF AND DUP2 MSTORE PUSH1 0x20 ADD SWAP1 DUP2 MSTORE PUSH1 0x20 ADD PUSH1 0x0 KECCAK256 PUSH1 0x0 ADD PUSH1 0x1 PUSH2 0x100 EXP DUP2 SLOAD DUP2 PUSH20 0xFFFFFFFFFFFFFFFFFFFFFFFFFFFFFFFFFFFFFFFF MUL NOT AND SWAP1 DUP4 PUSH20 0xFFFFFFFFFFFFFFFFFFFFFFFFFFFFFFFFFFFFFFFF AND MUL OR SWAP1 SSTORE POP PUSH1 0x1 PUSH1 0x9 PUSH1 0x0 DUP4 PUSH20 0xFFFFFFFFFFFFFFFFFFFFFFFFFFFFFFFFFFFFFFFF AND PUSH20 0xFFFFFFFFFFFFFFFFFFFFFFFFFFFFFFFFFFFFFFFF AND DUP2 MSTORE PUSH1 0x20 ADD SWAP1 DUP2 MSTORE PUSH1 0x20 ADD PUSH1 0x0 KECCAK256 PUSH1 0x0 ADD PUSH1 0x0 PUSH2 0x100 EXP DUP2 SLOAD DUP2 PUSH1 0xFF MUL NOT AND SWAP1 DUP4 ISZERO ISZERO MUL OR SWAP1 SSTORE POP POP POP JUMP JUMPDEST PUSH1 0x0 PUSH2 0x21E6 PUSH2 0x2EBE JUMP JUMPDEST PUSH1 0x7 PUSH1 0x0 DUP5 PUSH20 0xFFFFFFFFFFFFFFFFFFFFFFFFFFFFFFFFFFFFFFFF AND PUSH20 0xFFFFFFFFFFFFFFFFFFFFFFFFFFFFFFFFFFFFFFFF AND DUP2 MSTORE PUSH1 0x20 ADD SWAP1 DUP2 MSTORE PUSH1 0x20 ADD PUSH1 0x0 KECCAK256 PUSH1 0x40 MLOAD DUP1 PUSH1 0xA0 ADD PUSH1 0x40 MSTORE SWAP1 DUP2 PUSH1 0x0 DUP3 ADD PUSH1 0x0 SWAP1 SLOAD SWAP1 PUSH2 0x100 EXP SWAP1 DIV PUSH1 0xFF AND ISZERO ISZERO ISZERO ISZERO DUP2 MSTORE PUSH1 0x20 ADD PUSH1 0x1 DUP3 ADD DUP1 SLOAD PUSH1 0x1 DUP2 PUSH1 0x1 AND ISZERO PUSH2 0x100 MUL SUB AND PUSH1 0x2 SWAP1 DIV DUP1 PUSH1 0x1F ADD PUSH1 0x20 DUP1 SWAP2 DIV MUL PUSH1 0x20 ADD PUSH1 0x40 MLOAD SWAP1 DUP2 ADD PUSH1 0x40 MSTORE DUP1 SWAP3 SWAP2 SWAP1 DUP2 DUP2 MSTORE PUSH1 0x20 ADD DUP3 DUP1 SLOAD PUSH1 0x1 DUP2 PUSH1 0x1 AND ISZERO PUSH2 0x100 MUL SUB AND PUSH1 0x2 SWAP1 DIV DUP1 ISZERO PUSH2 0x22E4 JUMPI DUP1 PUSH1 0x1F LT PUSH2 0x22B9 JUMPI PUSH2 0x100 DUP1 DUP4 SLOAD DIV MUL DUP4 MSTORE SWAP2 PUSH1 0x20 ADD SWAP2 PUSH2 0x22E4 JUMP JUMPDEST DUP3 ADD SWAP2 SWAP1 PUSH1 0x0 MSTORE PUSH1 0x20 PUSH1 0x0 KECCAK256 SWAP1 JUMPDEST DUP2 SLOAD DUP2 MSTORE SWAP1 PUSH1 0x1 ADD SWAP1 PUSH1 0x20 ADD DUP1 DUP4 GT PUSH2 0x22C7 JUMPI DUP3 SWAP1 SUB PUSH1 0x1F AND DUP3 ADD SWAP2 JUMPDEST POP POP POP POP POP DUP2 MSTORE PUSH1 0x20 ADD PUSH1 0x2 DUP3 ADD SLOAD DUP2 MSTORE PUSH1 0x20 ADD PUSH1 0x3 DUP3 ADD SLOAD DUP2 MSTORE PUSH1 0x20 ADD PUSH1 0x4 DUP3 ADD SLOAD DUP2 MSTORE POP POP SWAP1 POP PUSH1 0xA SLOAD DUP2 PUSH1 0x80 ADD MLOAD EQ ISZERO PUSH2 0x2328 JUMPI DUP1 PUSH1 0x60 ADD MLOAD SWAP2 POP POP PUSH2 0x235C JUMP JUMPDEST PUSH2 0x233E PUSH1 0x1 PUSH1 0xA SLOAD PUSH2 0x2763 SWAP1 SWAP2 SWAP1 PUSH4 0xFFFFFFFF AND JUMP JUMPDEST DUP2 PUSH1 0x80 ADD MLOAD EQ ISZERO PUSH2 0x2356 JUMPI DUP1 PUSH1 0x40 ADD MLOAD SWAP2 POP POP PUSH2 0x235C JUMP JUMPDEST PUSH1 0x0 SWAP2 POP POP JUMPDEST SWAP2 SWAP1 POP JUMP JUMPDEST PUSH1 0x0 PUSH1 0x1 PUSH1 0x0 DUP5 PUSH20 0xFFFFFFFFFFFFFFFFFFFFFFFFFFFFFFFFFFFFFFFF AND PUSH20 0xFFFFFFFFFFFFFFFFFFFFFFFFFFFFFFFFFFFFFFFF AND DUP2 MSTORE PUSH1 0x20 ADD SWAP1 DUP2 MSTORE PUSH1 0x20 ADD PUSH1 0x0 KECCAK256 PUSH1 0x0 DUP4 PUSH20 0xFFFFFFFFFFFFFFFFFFFFFFFFFFFFFFFFFFFFFFFF AND PUSH20 0xFFFFFFFFFFFFFFFFFFFFFFFFFFFFFFFFFFFFFFFF AND DUP2 MSTORE PUSH1 0x20 ADD SWAP1 DUP2 MSTORE PUSH1 0x20 ADD PUSH1 0x0 KECCAK256 SLOAD SWAP1 POP SWAP3 SWAP2 POP POP JUMP JUMPDEST PUSH1 0x0 PUSH1 0x8 DUP3 PUSH1 0x40 MLOAD DUP1 DUP3 DUP1 MLOAD SWAP1 PUSH1 0x20 ADD SWAP1 DUP1 DUP4 DUP4 JUMPDEST PUSH1 0x20 DUP4 LT PUSH2 0x2420 JUMPI DUP1 MLOAD DUP3 MSTORE PUSH1 0x20 DUP3 ADD SWAP2 POP PUSH1 0x20 DUP2 ADD SWAP1 POP PUSH1 0x20 DUP4 SUB SWAP3 POP PUSH2 0x23FD JUMP JUMPDEST PUSH1 0x1 DUP4 PUSH1 0x20 SUB PUSH2 0x100 EXP SUB DUP1 NOT DUP3 MLOAD AND DUP2 DUP5 MLOAD AND DUP1 DUP3 OR DUP6 MSTORE POP POP POP POP POP POP SWAP1 POP ADD SWAP2 POP POP SWAP1 DUP2 MSTORE PUSH1 0x20 ADD PUSH1 0x40 MLOAD DUP1 SWAP2 SUB SWAP1 KECCAK256 PUSH1 0x2 ADD SLOAD SWAP1 POP SWAP2 SWAP1 POP JUMP JUMPDEST PUSH2 0x2466 PUSH2 0x1CBC JUMP JUMPDEST PUSH2 0x24D8 JUMPI PUSH1 0x40 MLOAD PUSH32 0x8C379A000000000000000000000000000000000000000000000000000000000 DUP2 MSTORE PUSH1 0x4 ADD DUP1 DUP1 PUSH1 0x20 ADD DUP3 DUP2 SUB DUP3 MSTORE PUSH1 0x20 DUP2 MSTORE PUSH1 0x20 ADD DUP1 PUSH32 0x4F776E61626C653A2063616C6C6572206973206E6F7420746865206F776E6572 DUP2 MSTORE POP PUSH1 0x20 ADD SWAP2 POP POP PUSH1 0x40 MLOAD DUP1 SWAP2 SUB SWAP1 REVERT JUMPDEST PUSH2 0x24E1 DUP2 PUSH2 0x2CF8 JUMP JUMPDEST POP JUMP JUMPDEST PUSH1 0x0 PUSH20 0xFFFFFFFFFFFFFFFFFFFFFFFFFFFFFFFFFFFFFFFF AND DUP4 PUSH20 0xFFFFFFFFFFFFFFFFFFFFFFFFFFFFFFFFFFFFFFFF AND EQ ISZERO PUSH2 0x256A JUMPI PUSH1 0x40 MLOAD PUSH32 0x8C379A000000000000000000000000000000000000000000000000000000000 DUP2 MSTORE PUSH1 0x4 ADD DUP1 DUP1 PUSH1 0x20 ADD DUP3 DUP2 SUB DUP3 MSTORE PUSH1 0x24 DUP2 MSTORE PUSH1 0x20 ADD DUP1 PUSH2 0x2FA1 PUSH1 0x24 SWAP2 CODECOPY PUSH1 0x40 ADD SWAP2 POP POP PUSH1 0x40 MLOAD DUP1 SWAP2 SUB SWAP1 REVERT JUMPDEST PUSH1 0x0 PUSH20 0xFFFFFFFFFFFFFFFFFFFFFFFFFFFFFFFFFFFFFFFF AND DUP3 PUSH20 0xFFFFFFFFFFFFFFFFFFFFFFFFFFFFFFFFFFFFFFFF AND EQ ISZERO PUSH2 0x25F0 JUMPI PUSH1 0x40 MLOAD PUSH32 0x8C379A000000000000000000000000000000000000000000000000000000000 DUP2 MSTORE PUSH1 0x4 ADD DUP1 DUP1 PUSH1 0x20 ADD DUP3 DUP2 SUB DUP3 MSTORE PUSH1 0x22 DUP2 MSTORE PUSH1 0x20 ADD DUP1 PUSH2 0x2F5E PUSH1 0x22 SWAP2 CODECOPY PUSH1 0x40 ADD SWAP2 POP POP PUSH1 0x40 MLOAD DUP1 SWAP2 SUB SWAP1 REVERT JUMPDEST DUP1 PUSH1 0x1 PUSH1 0x0 DUP6 PUSH20 0xFFFFFFFFFFFFFFFFFFFFFFFFFFFFFFFFFFFFFFFF AND PUSH20 0xFFFFFFFFFFFFFFFFFFFFFFFFFFFFFFFFFFFFFFFF AND DUP2 MSTORE PUSH1 0x20 ADD SWAP1 DUP2 MSTORE PUSH1 0x20 ADD PUSH1 0x0 KECCAK256 PUSH1 0x0 DUP5 PUSH20 0xFFFFFFFFFFFFFFFFFFFFFFFFFFFFFFFFFFFFFFFF AND PUSH20 0xFFFFFFFFFFFFFFFFFFFFFFFFFFFFFFFFFFFFFFFF AND DUP2 MSTORE PUSH1 0x20 ADD SWAP1 DUP2 MSTORE PUSH1 0x20 ADD PUSH1 0x0 KECCAK256 DUP2 SWAP1 SSTORE POP DUP2 PUSH20 0xFFFFFFFFFFFFFFFFFFFFFFFFFFFFFFFFFFFFFFFF AND DUP4 PUSH20 0xFFFFFFFFFFFFFFFFFFFFFFFFFFFFFFFFFFFFFFFF AND PUSH32 0x8C5BE1E5EBEC7D5BD14F71427D1E84F3DD0314C0F7B2291E5B200AC8C7C3B925 DUP4 PUSH1 0x40 MLOAD DUP1 DUP3 DUP2 MSTORE PUSH1 0x20 ADD SWAP2 POP POP PUSH1 0x40 MLOAD DUP1 SWAP2 SUB SWAP1 LOG3 POP POP POP JUMP JUMPDEST PUSH1 0x0 DUP1 DUP3 DUP5 ADD SWAP1 POP DUP4 DUP2 LT ISZERO PUSH2 0x2759 JUMPI PUSH1 0x40 MLOAD PUSH32 0x8C379A000000000000000000000000000000000000000000000000000000000 DUP2 MSTORE PUSH1 0x4 ADD DUP1 DUP1 PUSH1 0x20 ADD DUP3 DUP2 SUB DUP3 MSTORE PUSH1 0x1B DUP2 MSTORE PUSH1 0x20 ADD DUP1 PUSH32 0x536166654D6174683A206164646974696F6E206F766572666C6F770000000000 DUP2 MSTORE POP PUSH1 0x20 ADD SWAP2 POP POP PUSH1 0x40 MLOAD DUP1 SWAP2 SUB SWAP1 REVERT JUMPDEST DUP1 SWAP2 POP POP SWAP3 SWAP2 POP POP JUMP JUMPDEST PUSH1 0x0 DUP3 DUP3 GT ISZERO PUSH2 0x27DB JUMPI PUSH1 0x40 MLOAD PUSH32 0x8C379A000000000000000000000000000000000000000000000000000000000 DUP2 MSTORE PUSH1 0x4 ADD DUP1 DUP1 PUSH1 0x20 ADD DUP3 DUP2 SUB DUP3 MSTORE PUSH1 0x1E DUP2 MSTORE PUSH1 0x20 ADD DUP1 PUSH32 0x536166654D6174683A207375627472616374696F6E206F766572666C6F770000 DUP2 MSTORE POP PUSH1 0x20 ADD SWAP2 POP POP PUSH1 0x40 MLOAD DUP1 SWAP2 SUB SWAP1 REVERT JUMPDEST PUSH1 0x0 DUP3 DUP5 SUB SWAP1 POP DUP1 SWAP2 POP POP SWAP3 SWAP2 POP POP JUMP JUMPDEST PUSH1 0x0 PUSH2 0x27F9 DUP5 DUP5 DUP5 PUSH2 0x2AE2 JUMP JUMPDEST PUSH2 0x2892 DUP5 CALLER PUSH2 0x288D DUP6 PUSH1 0x1 PUSH1 0x0 DUP11 PUSH20 0xFFFFFFFFFFFFFFFFFFFFFFFFFFFFFFFFFFFFFFFF AND PUSH20 0xFFFFFFFFFFFFFFFFFFFFFFFFFFFFFFFFFFFFFFFF AND DUP2 MSTORE PUSH1 0x20 ADD SWAP1 DUP2 MSTORE PUSH1 0x20 ADD PUSH1 0x0 KECCAK256 PUSH1 0x0 CALLER PUSH20 0xFFFFFFFFFFFFFFFFFFFFFFFFFFFFFFFFFFFFFFFF AND PUSH20 0xFFFFFFFFFFFFFFFFFFFFFFFFFFFFFFFFFFFFFFFF AND DUP2 MSTORE PUSH1 0x20 ADD SWAP1 DUP2 MSTORE PUSH1 0x20 ADD PUSH1 0x0 KECCAK256 SLOAD PUSH2 0x2763 SWAP1 SWAP2 SWAP1 PUSH4 0xFFFFFFFF AND JUMP JUMPDEST PUSH2 0x24E4 JUMP JUMPDEST PUSH1 0x1 SWAP1 POP SWAP4 SWAP3 POP POP POP JUMP JUMPDEST PUSH1 0x0 PUSH20 0xFFFFFFFFFFFFFFFFFFFFFFFFFFFFFFFFFFFFFFFF AND DUP3 PUSH20 0xFFFFFFFFFFFFFFFFFFFFFFFFFFFFFFFFFFFFFFFF AND EQ ISZERO PUSH2 0x2923 JUMPI PUSH1 0x40 MLOAD PUSH32 0x8C379A000000000000000000000000000000000000000000000000000000000 DUP2 MSTORE PUSH1 0x4 ADD DUP1 DUP1 PUSH1 0x20 ADD DUP3 DUP2 SUB DUP3 MSTORE PUSH1 0x21 DUP2 MSTORE PUSH1 0x20 ADD DUP1 PUSH2 0x2F80 PUSH1 0x21 SWAP2 CODECOPY PUSH1 0x40 ADD SWAP2 POP POP PUSH1 0x40 MLOAD DUP1 SWAP2 SUB SWAP1 REVERT JUMPDEST PUSH2 0x2938 DUP2 PUSH1 0x2 SLOAD PUSH2 0x2763 SWAP1 SWAP2 SWAP1 PUSH4 0xFFFFFFFF AND JUMP JUMPDEST PUSH1 0x2 DUP2 SWAP1 SSTORE POP PUSH2 0x298F DUP2 PUSH1 0x0 DUP1 DUP6 PUSH20 0xFFFFFFFFFFFFFFFFFFFFFFFFFFFFFFFFFFFFFFFF AND PUSH20 0xFFFFFFFFFFFFFFFFFFFFFFFFFFFFFFFFFFFFFFFF AND DUP2 MSTORE PUSH1 0x20 ADD SWAP1 DUP2 MSTORE PUSH1 0x20 ADD PUSH1 0x0 KECCAK256 SLOAD PUSH2 0x2763 SWAP1 SWAP2 SWAP1 PUSH4 0xFFFFFFFF AND JUMP JUMPDEST PUSH1 0x0 DUP1 DUP5 PUSH20 0xFFFFFFFFFFFFFFFFFFFFFFFFFFFFFFFFFFFFFFFF AND PUSH20 0xFFFFFFFFFFFFFFFFFFFFFFFFFFFFFFFFFFFFFFFF AND DUP2 MSTORE PUSH1 0x20 ADD SWAP1 DUP2 MSTORE PUSH1 0x20 ADD PUSH1 0x0 KECCAK256 DUP2 SWAP1 SSTORE POP PUSH1 0x0 PUSH20 0xFFFFFFFFFFFFFFFFFFFFFFFFFFFFFFFFFFFFFFFF AND DUP3 PUSH20 0xFFFFFFFFFFFFFFFFFFFFFFFFFFFFFFFFFFFFFFFF AND PUSH32 0xDDF252AD1BE2C89B69C2B068FC378DAA952BA7F163C4A11628F55A4DF523B3EF DUP4 PUSH1 0x40 MLOAD DUP1 DUP3 DUP2 MSTORE PUSH1 0x20 ADD SWAP2 POP POP PUSH1 0x40 MLOAD DUP1 SWAP2 SUB SWAP1 LOG3 POP POP JUMP JUMPDEST PUSH2 0x2A45 DUP3 DUP3 PUSH2 0x289D JUMP JUMPDEST PUSH2 0x2ADE DUP3 CALLER PUSH2 0x2AD9 DUP5 PUSH1 0x1 PUSH1 0x0 DUP9 PUSH20 0xFFFFFFFFFFFFFFFFFFFFFFFFFFFFFFFFFFFFFFFF AND PUSH20 0xFFFFFFFFFFFFFFFFFFFFFFFFFFFFFFFFFFFFFFFF AND DUP2 MSTORE PUSH1 0x20 ADD SWAP1 DUP2 MSTORE PUSH1 0x20 ADD PUSH1 0x0 KECCAK256 PUSH1 0x0 CALLER PUSH20 0xFFFFFFFFFFFFFFFFFFFFFFFFFFFFFFFFFFFFFFFF AND PUSH20 0xFFFFFFFFFFFFFFFFFFFFFFFFFFFFFFFFFFFFFFFF AND DUP2 MSTORE PUSH1 0x20 ADD SWAP1 DUP2 MSTORE PUSH1 0x20 ADD PUSH1 0x0 KECCAK256 SLOAD PUSH2 0x2763 SWAP1 SWAP2 SWAP1 PUSH4 0xFFFFFFFF AND JUMP JUMPDEST PUSH2 0x24E4 JUMP JUMPDEST POP POP JUMP JUMPDEST PUSH1 0x0 PUSH20 0xFFFFFFFFFFFFFFFFFFFFFFFFFFFFFFFFFFFFFFFF AND DUP3 PUSH20 0xFFFFFFFFFFFFFFFFFFFFFFFFFFFFFFFFFFFFFFFF AND EQ ISZERO PUSH2 0x2B68 JUMPI PUSH1 0x40 MLOAD PUSH32 0x8C379A000000000000000000000000000000000000000000000000000000000 DUP2 MSTORE PUSH1 0x4 ADD DUP1 DUP1 PUSH1 0x20 ADD DUP3 DUP2 SUB DUP3 MSTORE PUSH1 0x23 DUP2 MSTORE PUSH1 0x20 ADD DUP1 PUSH2 0x2F15 PUSH1 0x23 SWAP2 CODECOPY PUSH1 0x40 ADD SWAP2 POP POP PUSH1 0x40 MLOAD DUP1 SWAP2 SUB SWAP1 REVERT JUMPDEST PUSH2 0x2BB9 DUP2 PUSH1 0x0 DUP1 DUP7 PUSH20 0xFFFFFFFFFFFFFFFFFFFFFFFFFFFFFFFFFFFFFFFF AND PUSH20 0xFFFFFFFFFFFFFFFFFFFFFFFFFFFFFFFFFFFFFFFF AND DUP2 MSTORE PUSH1 0x20 ADD SWAP1 DUP2 MSTORE PUSH1 0x20 ADD PUSH1 0x0 KECCAK256 SLOAD PUSH2 0x2763 SWAP1 SWAP2 SWAP1 PUSH4 0xFFFFFFFF AND JUMP JUMPDEST PUSH1 0x0 DUP1 DUP6 PUSH20 0xFFFFFFFFFFFFFFFFFFFFFFFFFFFFFFFFFFFFFFFF AND PUSH20 0xFFFFFFFFFFFFFFFFFFFFFFFFFFFFFFFFFFFFFFFF AND DUP2 MSTORE PUSH1 0x20 ADD SWAP1 DUP2 MSTORE PUSH1 0x20 ADD PUSH1 0x0 KECCAK256 DUP2 SWAP1 SSTORE POP PUSH2 0x2C4C DUP2 PUSH1 0x0 DUP1 DUP6 PUSH20 0xFFFFFFFFFFFFFFFFFFFFFFFFFFFFFFFFFFFFFFFF AND PUSH20 0xFFFFFFFFFFFFFFFFFFFFFFFFFFFFFFFFFFFFFFFF AND DUP2 MSTORE PUSH1 0x20 ADD SWAP1 DUP2 MSTORE PUSH1 0x20 ADD PUSH1 0x0 KECCAK256 SLOAD PUSH2 0x26DB SWAP1 SWAP2 SWAP1 PUSH4 0xFFFFFFFF AND JUMP JUMPDEST PUSH1 0x0 DUP1 DUP5 PUSH20 0xFFFFFFFFFFFFFFFFFFFFFFFFFFFFFFFFFFFFFFFF AND PUSH20 0xFFFFFFFFFFFFFFFFFFFFFFFFFFFFFFFFFFFFFFFF AND DUP2 MSTORE PUSH1 0x20 ADD SWAP1 DUP2 MSTORE PUSH1 0x20 ADD PUSH1 0x0 KECCAK256 DUP2 SWAP1 SSTORE POP DUP2 PUSH20 0xFFFFFFFFFFFFFFFFFFFFFFFFFFFFFFFFFFFFFFFF AND DUP4 PUSH20 0xFFFFFFFFFFFFFFFFFFFFFFFFFFFFFFFFFFFFFFFF AND PUSH32 0xDDF252AD1BE2C89B69C2B068FC378DAA952BA7F163C4A11628F55A4DF523B3EF DUP4 PUSH1 0x40 MLOAD DUP1 DUP3 DUP2 MSTORE PUSH1 0x20 ADD SWAP2 POP POP PUSH1 0x40 MLOAD DUP1 SWAP2 SUB SWAP1 LOG3 POP POP POP JUMP JUMPDEST PUSH1 0x0 PUSH20 0xFFFFFFFFFFFFFFFFFFFFFFFFFFFFFFFFFFFFFFFF AND DUP2 PUSH20 0xFFFFFFFFFFFFFFFFFFFFFFFFFFFFFFFFFFFFFFFF AND EQ ISZERO PUSH2 0x2D7E JUMPI PUSH1 0x40 MLOAD PUSH32 0x8C379A000000000000000000000000000000000000000000000000000000000 DUP2 MSTORE PUSH1 0x4 ADD DUP1 DUP1 PUSH1 0x20 ADD DUP3 DUP2 SUB DUP3 MSTORE PUSH1 0x26 DUP2 MSTORE PUSH1 0x20 ADD DUP1 PUSH2 0x2F38 PUSH1 0x26 SWAP2 CODECOPY PUSH1 0x40 ADD SWAP2 POP POP PUSH1 0x40 MLOAD DUP1 SWAP2 SUB SWAP1 REVERT JUMPDEST DUP1 PUSH20 0xFFFFFFFFFFFFFFFFFFFFFFFFFFFFFFFFFFFFFFFF AND PUSH1 0x3 PUSH1 0x0 SWAP1 SLOAD SWAP1 PUSH2 0x100 EXP SWAP1 DIV PUSH20 0xFFFFFFFFFFFFFFFFFFFFFFFFFFFFFFFFFFFFFFFF AND PUSH20 0xFFFFFFFFFFFFFFFFFFFFFFFFFFFFFFFFFFFFFFFF AND PUSH32 0x8BE0079C531659141344CD1FD0A4F28419497F9722A3DAAFE3B4186F6B6457E0 PUSH1 0x40 MLOAD PUSH1 0x40 MLOAD DUP1 SWAP2 SUB SWAP1 LOG3 DUP1 PUSH1 0x3 PUSH1 0x0 PUSH2 0x100 EXP DUP2 SLOAD DUP2 PUSH20 0xFFFFFFFFFFFFFFFFFFFFFFFFFFFFFFFFFFFFFFFF MUL NOT AND SWAP1 DUP4 PUSH20 0xFFFFFFFFFFFFFFFFFFFFFFFFFFFFFFFFFFFFFFFF AND MUL OR SWAP1 SSTORE POP POP JUMP JUMPDEST DUP3 DUP1 SLOAD PUSH1 0x1 DUP2 PUSH1 0x1 AND ISZERO PUSH2 0x100 MUL SUB AND PUSH1 0x2 SWAP1 DIV SWAP1 PUSH1 0x0 MSTORE PUSH1 0x20 PUSH1 0x0 KECCAK256 SWAP1 PUSH1 0x1F ADD PUSH1 0x20 SWAP1 DIV DUP2 ADD SWAP3 DUP3 PUSH1 0x1F LT PUSH2 0x2E7F JUMPI DUP1 MLOAD PUSH1 0xFF NOT AND DUP4 DUP1 ADD OR DUP6 SSTORE PUSH2 0x2EAD JUMP JUMPDEST DUP3 DUP1 ADD PUSH1 0x1 ADD DUP6 SSTORE DUP3 ISZERO PUSH2 0x2EAD JUMPI SWAP2 DUP3 ADD JUMPDEST DUP3 DUP2 GT ISZERO PUSH2 0x2EAC JUMPI DUP3 MLOAD DUP3 SSTORE SWAP2 PUSH1 0x20 ADD SWAP2 SWAP1 PUSH1 0x1 ADD SWAP1 PUSH2 0x2E91 JUMP JUMPDEST JUMPDEST POP SWAP1 POP PUSH2 0x2EBA SWAP2 SWAP1 PUSH2 0x2EEF JUMP JUMPDEST POP SWAP1 JUMP JUMPDEST PUSH1 0x40 MLOAD DUP1 PUSH1 0xA0 ADD PUSH1 0x40 MSTORE DUP1 PUSH1 0x0 ISZERO ISZERO DUP2 MSTORE PUSH1 0x20 ADD PUSH1 0x60 DUP2 MSTORE PUSH1 0x20 ADD PUSH1 0x0 DUP2 MSTORE PUSH1 0x20 ADD PUSH1 0x0 DUP2 MSTORE PUSH1 0x20 ADD PUSH1 0x0 DUP2 MSTORE POP SWAP1 JUMP JUMPDEST PUSH2 0x2F11 SWAP2 SWAP1 JUMPDEST DUP1 DUP3 GT ISZERO PUSH2 0x2F0D JUMPI PUSH1 0x0 DUP2 PUSH1 0x0 SWAP1 SSTORE POP PUSH1 0x1 ADD PUSH2 0x2EF5 JUMP JUMPDEST POP SWAP1 JUMP JUMPDEST SWAP1 JUMP INVALID GASLIMIT MSTORE NUMBER ORIGIN ADDRESS GASPRICE KECCAK256 PUSH21 0x72616E7366657220746F20746865207A65726F2061 PUSH5 0x6472657373 0x4f PUSH24 0x6E61626C653A206E6577206F776E65722069732074686520 PUSH27 0x65726F206164647265737345524332303A20617070726F76652074 PUSH16 0x20746865207A65726F20616464726573 PUSH20 0x45524332303A206275726E2066726F6D20746865 KECCAK256 PUSH27 0x65726F206164647265737345524332303A20617070726F76652066 PUSH19 0x6F6D20746865207A65726F2061646472657373 LOG1 PUSH6 0x627A7A723058 KECCAK256 0xcb 0xbf DUP6 DUP4 PUSH28 0xF71D91D4FAB56C2C4251E86B9EC2EAA7B66F0A0352449923086FBA00 0x29 "},"gasEstimates":{"creation":{"codeDepositCost":"2454400","executionCost":"infinite","totalCost":"infinite"},"external":{"allowance(address,address)":"787","approve(address,uint256)":"infinite","balanceOf(address)":"642","burn(uint256)":"infinite","burnFrom(address,uint256)":"infinite","checkPolluterLimit(address)":"infinite","decimals()":"565","decreaseAllowance(address,uint256)":"infinite","getLocationCapacity(string)":"infinite","getLocationHoldings(string)":"infinite","getLocationOriginalCapacity(string)":"infinite","getUserLocation(address)":"infinite","getUserPreviousCyclePollution(address)":"infinite","increaseAllowance(address,uint256)":"infinite","isOwner()":"567","name()":"infinite","nextCycle()":"20780","owner()":"528","register(address,string)":"infinite","registerSensor(address,address)":"41439","renounceOwnership()":"22565","sensorAddPollution(uint256)":"infinite","setLocationCapacity(string,uint256)":"infinite","symbol()":"infinite","totalSupply()":"504","transfer(address,uint256)":"infinite","transferFrom(address,address,uint256)":"infinite","transferOwnership(address)":"infinite"}},"methodIdentifiers":{"allowance(address,address)":"dd62ed3e","approve(address,uint256)":"095ea7b3","balanceOf(address)":"70a08231","burn(uint256)":"42966c68","burnFrom(address,uint256)":"79cc6790","checkPolluterLimit(address)":"551dc454","decimals()":"313ce567","decreaseAllowance(address,uint256)":"a457c2d7","getLocationCapacity(string)":"87038ff7","getLocationHoldings(string)":"2af37d01","getLocationOriginalCapacity(string)":"e6bcff66","getUserLocation(address)":"4a3a9d25","getUserPreviousCyclePollution(address)":"d277add8","increaseAllowance(address,uint256)":"39509351","isOwner()":"8f32d59b","name()":"06fdde03","nextCycle()":"6b6923b8","owner()":"8da5cb5b","register(address,string)":"32434a2e","registerSensor(address,address)":"cd3d3fa4","renounceOwnership()":"715018a6","sensorAddPollution(uint256)":"1feab8ec","setLocationCapacity(string,uint256)":"5f151bc5","symbol()":"95d89b41","totalSupply()":"18160ddd","transfer(address,uint256)":"a9059cbb","transferFrom(address,address,uint256)":"23b872dd","transferOwnership(address)":"f2fde38b"}},"userdoc":{"methods":{"renounceOwnership()":{"notice":"Renouncing ownership will leave the contract without an owner, thereby removing any functionality that is only available to the owner."}}}}